:020000040800F2
:1000000000010020C1010008B50E0008218B000886
:10001000B50E0008B50E0008B50E0008B50E0008B4
:10002000B50E0008B50E0008B50E00083114000822
:10003000B50E0008B50E0008B50E0008B50E000894
:10004000B50E0008B50E0008B50E0008B50E000884
:10005000B50E0008B50E0008B50E0008D1FF000867
:10006000E9FF000801000108B50E0008B50E000800
:10007000B50E0008B50E0008B5FF0008B50E000863
:10008000B50E0008B50E000855FB0008B50E0008B7
:10009000B50E0008B50E0008B50E0008B50E000834
:1000A000B50E0008B50E0008B50E0008B50E000824
:1000B0006D230008B50E0008B50E0008B50E000847
:1000C000B50E0008B50E0008B50E0008B50E000804
:1000D000B50E0008F1230008B50E0008B50E0008A3
:1000E000B50E0008B50E0008B50E0008B50E0008E4
:1000F000B50E0008B50E0008B50E0008B50E0008D4
:10010000B50E0008B50E0008B50E0008B50E0008C3
:10011000B50E0008B50E0008B50E0008B50E0008B3
:10012000B50E0008B50E0008B50E0008B50E0008A3
:10013000B50E0008B50E0008B50E0008B50E000893
:10014000B50E0008B50E0008B50E0008B50E000883
:10015000B50E0008B50E0008B50E0008B50E000873
:10016000B50E0008B50E0008B50E0008852700087A
:10017000B50E0008B50E0008B50E0008B50E000853
:10018000B50E0008B50E0008B50E0008B50E000843
:10019000B50E0008B50E0008B50E0008B50E000833
:1001C00072B6344880F3098840F20000CCF2000097
:1001D0004EF63471CEF200010860BFF34F8FBFF3CB
:1001E0006F8F40F20000C0F2F0004EF68851CEF260
:1001F00000010860BFF34F8FBFF36F8F4FF0000017
:10020000E1EE100A4EF63C71CEF2000108600620C5
:1002100080F31488BFF36F8F00F012FE02F0F2FB40
:100220004FF055301C491D4A91423CBF41F8040B28
:10023000FAE71B49174A91423CBF41F8040BFAE721
:100240001849194A194B9A423EBF51F8040B42F81B
:10025000040BF8E700201649164A91423CBF41F8CA
:10026000040BFAE700F0F2FD00F0ECFD124C134D28
:10027000AC4203DA54F8041B8847F9E708F0F2FAB5
:100280000F4C104DAC4203DA54F8041B8847F9E7D1
:1002900000F0DABD00030020000000200001002073
:1002A00000010020684A010800030020C803002064
:1002B000C803002090990020A0010008A0010008B8
:1002C000A0010008A00100082DE9F04F2DED108AD3
:1002D000C1F80CD0C3689D46BDEC108ABDE8F08F14
:1002E000002383F311882846A047002001F058F826
:1002F00000F0E6FF00DFFEE781F0004102E000BF12
:1003000083F0004330B54FEA41044FEA430594EAD5
:10031000050F08BF90EA020F1FBF54EA000C55EA10
:10032000020C7FEA645C7FEA655C00F0E2804FEAE1
:100330005454D4EB5555B8BF6D420CDD2C4480EAC3
:10034000020281EA030382EA000083EA010180EAF3
:10035000020281EA0303362D88BF30BD11F0004F41
:100360004FEA01314FF4801C4CEA113102D0404277
:1003700061EB410113F0004F4FEA03334CEA1333B2
:1003800002D0524263EB430394EA050F00F0A780CA
:10039000A4F10104D5F1200E0DDB02FA0EFC22FAC5
:1003A00005F2801841F1000103FA0EF2801843FAB9
:1003B00005F359410EE0A5F120050EF1200E012AAA
:1003C00003FA0EFC28BF4CF0020C43FA05F3C018E8
:1003D00051EBE37101F0004507D54FF0000EDCF161
:1003E000000C7EEB00006EEB0101B1F5801F1BD30A
:1003F000B1F5001F0CD349085FEA30004FEA3C0C0E
:1004000004F101044FEA445212F5800F80F09A8003
:10041000BCF1004F08BF5FEA500C50F1000041EB07
:10042000045141EA050130BD5FEA4C0C404141EB0B
:10043000010111F4801FA4F10104E9D191F0000F32
:1004400004BF01460020B1FA81F308BF2033A3F1B5
:100450000B03B3F120020CDA0C3208DD02F1140CAC
:10046000C2F10C0201FA0CF021FA02F10CE002F1E7
:100470001402D8BFC2F1200C01FA02F120FA0CFCE0
:10048000DCBF41EA0C019040E41AA2BF01EB045129
:10049000294330BD6FEA04041F3C1CDA0C340EDC27
:1004A00004F11404C4F1200220FA04F001FA02F36A
:1004B00040EA030021FA04F345EA030130BDC4F128
:1004C0000C04C4F1200220FA02F001FA04F340EA1D
:1004D0000300294630BD21FA04F0294630BD94F0CE
:1004E000000F83F4801306BF81F480110134013DB5
:1004F0004EE77FEA645C18BF7FEA655C29D094EA26
:10050000050F08BF90EA020F05D054EA000C04BFA3
:100510001946104630BD91EA030F1EBF002100208E
:1005200030BD5FEA545C05D14000494128BF41F02D
:10053000004130BD14F580043CBF01F5801130BD91
:1005400001F0004545F0FE4141F470014FF000001C
:1005500030BD7FEA645C1ABF194610467FEA655CCD
:100560001CBF0B46024650EA013406BF52EA03356F
:1005700091EA030F41F4002130BD00BF90F0000F5D
:1005800004BF0021704730B54FF4806404F1320499
:100590004FF000054FF0000150E700BF90F0000F52
:1005A00004BF0021704730B54FF4806404F1320479
:1005B00010F0004548BF40424FF000013EE700BF49
:1005C00042004FEAE2014FEA31014FEA02701FBFD9
:1005D00012F07F4393F07F4F81F06051704732F00B
:1005E0007F4208BF704793F07F4F04BF41F4002162
:1005F000704730B54FF4607401F0004521F00041C0
:100600001CE700BF50EA010208BF704730B54FF049
:1006100000050AE050EA010208BF704730B511F04A
:10062000004502D5404261EB41014FF4806404F182
:1006300032045FEA915C3FF4D8AE4FF003025FEA08
:10064000DC0C18BF03325FEADC0C18BF033202EB8C
:10065000DC02C2F1200300FA03FC20FA02F001FAE6
:1006600003FE40EA0E0021FA02F11444BDE600BF89
:100670004FEA4102B2F1E04324BFB3F5001CDCF1C4
:10068000FE5C0DD901F0004C4FEAC0024CEA5070FC
:10069000B2F1004F40EB830008BF20F0010070472B
:1006A00011F0804F21D113F13872BCBF01F000402E
:1006B000704741F480114FEA5252C2F11802C2F160
:1006C000200C10FA0CF320FA02F018BF40F00100E1
:1006D0004FEAC1234FEAD32303FA0CFC40EA0C0093
:1006E00023FA02F34FEA4303CCE77FEA625307D1D0
:1006F00050EA01331EBF4FF0FE4040F44000704707
:1007000001F0004040F0FE4040F40000704700BFA0
:1007100080F0004002E000BF81F0004142001FBFB6
:100720005FEA410392EA030F7FEA226C7FEA236CBF
:100730006AD04FEA1262D2EB1363C1BFD2184140B4
:1007400048404140B8BF5B42192B88BF704710F04A
:10075000004F40F4000020F07F4018BF404211F0ED
:10076000004F41F4000121F07F4118BF494292EA55
:10077000030F3FD0A2F1010241FA03FC10EB0C0081
:10078000C3F1200301FA03F100F0004302D549420E
:1007900060EB4000B0F5000F13D3B0F1807F06D3BB
:1007A00040084FEA310102F10102FE2A51D2B1F1B3
:1007B000004F40EBC25008BF20F0010040EA0300A8
:1007C0007047490040EB000010F4000FA2F1010255
:1007D000EDD1B0FA80FCACF1080CB2EB0C0200FADF
:1007E0000CF0AABF00EBC25052421843BCBFD0402D
:1007F0001843704792F0000F81F4000106BF80F4A7
:1008000000000132013BB5E74FEA41037FEA226C69
:1008100018BF7FEA236C21D092EA030F04D092F034
:10082000000F08BF0846704790EA010F1CBF002068
:10083000704712F07F4F04D1400028BF40F00040C5
:10084000704712F100723CBF00F50000704700F0E5
:10085000004343F0FE4040F4000070477FEA22620C
:1008600016BF08467FEA23630146420206BF5FEADD
:10087000412390EA010F40F4800070474FF00003DD
:1008800004E000BF10F0004348BF40425FEA000CA4
:1008900008BF704743F0964301464FF000001CE04C
:1008A00050EA010208BF70474FF000030AE000BFA2
:1008B00050EA010208BF704711F0004302D54042E0
:1008C00061EB41015FEA010C02BF84460146002052
:1008D00043F0B64308BFA3F18053A3F50003BCFA6D
:1008E0008CF2083AA3EBC25310DB01FA02FC63441A
:1008F00000FA02FCC2F12002BCF1004F20FA02F221
:1009000043EB020008BF20F00100704702F1200213
:1009100001FA02FCC2F1200250EA4C0021FA02F274
:1009200043EB020008BF20EADC70704753B94AB9B4
:10093000002908BF00281CBF4FF0FF314FF0FF30E7
:1009400000F074B9ADF1080C6DE904CE00F006F8C2
:10095000DDF804E0DDE9022304B070472DE9F0473B
:10096000089E04468846002B40F085808A42154642
:1009700048D9B2FA82F24AB1C2F1200701FA02F371
:1009800020FA07F7954047EA030894404FEA154ECE
:10099000230CB8FBFEF71FFA85FC0EFB178843EA11
:1009A000084307FB0CF1994209D9EB1807F1FF3016
:1009B00080F0E380994240F2E080023F2B445B1AD2
:1009C000A4B2B3FBFEF00EFB103344EA034400FB79
:1009D0000CFCA44509D92C1900F1FF3380F0CB8021
:1009E000A44540F2C88002382C4440EA0740A4EBFA
:1009F0000C0400271EB1D4400023C6E90043394649
:100A0000BDE8F087002A53D0B2FA82F2002A40F003
:100A1000B680491B4FEA154E1FFA85F80127B1FB36
:100A2000FEFC230C0EFB1C1143EA014308FB0CF1F6
:100A3000994207D9EB180CF1FF3002D2994200F22B
:100A4000EC808446591AA3B2B1FBFEF00EFB1014E1
:100A500043EA044408FB00F8A04507D92C1900F12B
:100A6000FF3302D2A04500F2DC801846A4EB080454
:100A700040EA0C40BEE78B4208D9002E78D0002710
:100A8000C6E9000138463946BDE8F087B3FA83F776
:100A90007FB98B4202D3824200F2BD80841A61EB9F
:100AA000030301209846002EA9D0C6E90048A6E716
:100AB000FFDEC7F12005BB4022FA05FC4CEA030C1F
:100AC00001FA07F420FA05F821FA05F34FEA1C4E63
:100AD00048EA0404B3FBFEF9210C0EFB19331FFA9C
:100AE0008CF841EA034309FB08FA9A4502FA07F237
:100AF00000FA07F10BD91CEB030309F1FF3080F07A
:100B000088809A4540F28580A9F102096344A3EBED
:100B10000A03A4B2B3FBFEF00EFB103344EA034415
:100B200000FB08F8A04508D91CEB040400F1FF33D2
:100B30006BD2A04569D90238644440EA0940A4EB6D
:100B40000804A0FB02894C45C6464B4654D351D0FD
:100B5000002E69D0B1EB0E0264EB030404FA05F534
:100B600022FA07F3FC401D43C6E90054002746E77C
:100B70003746304643E7184637E707461FE7C2F1D6
:100B8000200320FA03F7954001FA02F021FA03F35B
:100B90004FEA154E3843010CB3FBFEF71FFA85F8F8
:100BA0000EFB173341EA034107FB08F38B4204FABB
:100BB00002F407D9691807F1FF3C28D28B4226D9E5
:100BC000023F2944CB1A81B2B3FBFEF00EFB103377
:100BD00041EA034100FB08F38B4207D9691800F191
:100BE000FF3C10D28B420ED902382944C91A40EA80
:100BF000074714E74145ABD2B8EB020E69EB0C0294
:100C000001381346A4E76046F0E7184695E76746C3
:100C1000D8E781467BE7384645E7ACF1020C2B4428
:100C200010E702382C4421E73746E8E6704700BF5A
:100C3000844641EA000313F003036DD1403A41D3E7
:100C400051F8043B40F8043B51F8043B40F8043BA6
:100C500051F8043B40F8043B51F8043B40F8043B96
:100C600051F8043B40F8043B51F8043B40F8043B86
:100C700051F8043B40F8043B51F8043B40F8043B76
:100C800051F8043B40F8043B51F8043B40F8043B66
:100C900051F8043B40F8043B51F8043B40F8043B56
:100CA00051F8043B40F8043B51F8043B40F8043B46
:100CB00051F8043B40F8043B51F8043B40F8043B36
:100CC000403ABDD2303211D351F8043B40F8043BD6
:100CD00051F8043B40F8043B51F8043B40F8043B16
:100CE00051F8043B40F8043B103AEDD20C3205D3E6
:100CF00051F8043B40F8043B043AF9D2043208D0DE
:100D0000D2071CBF11F8013B00F8013B01D30B884F
:100D100003806046704700BF082A13D38B078DD02D
:100D200010F003038AD0C3F10403D21ADB071CBFFF
:100D300011F8013B00F8013B80D331F8023B20F869
:100D4000023B7BE7043AD9D3013A11F8013B00F8A2
:100D5000013BF9D20B7803704B7843708B7883702A
:100D60006046704790F800F06DE9024520F00701F9
:100D70006FF0000C10F0070491F820F040F049806B
:100D80004FF000046FF00700D1E9002391F840F024
:100D900000F1080082FA4CF2A4FA8CF283FA4CF3C8
:100DA000A2FA8CF34BBBD1E9022382FA4CF200F198
:100DB0000800A4FA8CF283FA4CF3A2FA8CF3E3B99C
:100DC000D1E9042382FA4CF200F10800A4FA8CF273
:100DD00083FA4CF3A2FA8CF37BB9D1E9062301F133
:100DE000200182FA4CF200F10800A4FA8CF283FA96
:100DF0004CF3A2FA8CF3002BC6D0002A04BF0430B7
:100E00001A4612BAB2FA82F2FDE8024500EBD200AD
:100E10007047D1E9002304F00305C4F100004FEA54
:100E2000C50514F0040F91F840F00CFA05F562EADC
:100E300005021CBF63EA050362464FF00004A9E700
:100E4000704700BF704700BFFEE700BFF0B4144F0B
:100E5000144D1548154B164907F1700C00269842A1
:100E600011D904391A4651F8044F42F8044B904204
:100E7000F9D8421ED21A22F00302043213449D42D2
:100E800003D943F8046B9D42FBD8674505D0D7E9E9
:100E90000413D7E906051037E1E7F0BC704700BF3F
:100EA0003805010890990020909900209099002021
:100EB000304B0108FEE700BFFEE700BF38B5184C15
:100EC00000F006F900F080F820468022154900F075
:100ED000F9F9154B44F8180C14490161012200245A
:100EE00002759C60D968124A12484FF6FF052940E6
:100EF0000A43DA60C268104942F08072C2600A6830
:100F0000102542F0010220200A60DD7783F82200DC
:100F100084F3118862B60948BDE8384000F0F8B99A
:100F200028050020B805010800ED00E000010020C0
:100F30000003FA05F0ED00E0001000E0C005010834
:100F400072B6014B5862FEE7000500202DE9F0471C
:100F50001C4D4FF080466C692A6A706AA368811A3A
:100F6000994205F114091ED300274FF020080CE028
:100F700087F311882069D04788F311886C69706AFB
:100F80002A6AA368811A8B420DD82168D4F80CA074
:100F9000134449452B62C1F804906961E760E7D1C9
:100FA00000F0A6FAE4E74C4509D013441B1A022BC3
:100FB0002CBFC0180230BDE8F04700F09FBABDE872
:100FC000F08700BF00050020054B4FF0FF300021E7
:100FD00003F11402C3E90701C3E90522704700BF0A
:100FE00000050020F8B51C4F3D46022955F8144F66
:100FF00003614FF0804338BF0221AC420646C26015
:10100000586A1ED03D6AA3680844451BAB4213D8FA
:101010009D4204D92468ED1AA368AB42FAD36368F1
:10102000C6E900431E606660B560A3684FF0FF32FA
:101030005D1BA560FA61F8BD00F060FA7C69A368E9
:10104000E6E73862C7E905660844C6E90044B160CE
:10105000BDE8F84000F044BA000500201B4B0268D0
:101060005969814210B40FD041680A600268143394
:1010700000249A425160C46003D0816893680B4495
:1010800093605DF8044B70471846002440F8142F15
:1010900082425060CC6014D090688C68196A044415
:1010A0004FF080409460406A421A9442E9D9091A8C
:1010B0000B19022B2CBFC01802305DF8044B00F056
:1010C0001DBA5DF8044B00F013BA00BF0005002004
:1010D000024B0022C3E900339A60704700050020EC
:1010E00000228168084B10B4044602751B689A6898
:1010F0008A42FBD25A682046C4E9003214605C6020
:101100005DF8044B704700BF0005002008B52023A0
:1011100083F31188037D032B0BD0042B0DD02BB14F
:101120004FF0FF338361FFF7DBFF002383F3118868
:1011300008BD836900221A60F2E7D0E9003213602B
:101140005A60EDE700228168084B10B4044602752E
:101150001B689A688A42FBD85A682046C4E9003264
:1011600014605C605DF8044B704700BF0005002010
:1011700038B5104C2569236828751A68226001214A
:10118000546023611975EFF309822969643A914229
:1011900005D829461846BDE83840FFF795B80648F7
:1011A000FFF7CEFE236929461846BDE83840FFF711
:1011B0008BB800BF00050020E005010830B54B1CCE
:1011C00087B012D00C4C0D4A2369054601A8FFF7E1
:1011D00009FF2846FFF7CCFF049B13B101A8FFF7D6
:1011E0003DFF2369986907B030BD034CFFF7C0FF8E
:1011F0002369986907B030BD000500200D11000873
:1012000070B5144D86682A6994688161A64203D836
:10121000BDE87040FFF764BF04461046FFF760FF6B
:10122000012306462C612375EFF309830269643BB1
:101230009A4205D831462046BDE87040FFF744B8D1
:101240000548FFF77DFE31462046BDE87040FFF7B8
:101250003BB800BF00050020E0050108044B1A68F8
:101260001B6990689B68984294BF002001207047DA
:101270000005002038B5104C236820691A682260E8
:101280000121546019752361FFF75CFF0546EFF3F8
:1012900009830269643B9A4205D829462069BDE862
:1012A0003840FFF711B80548FFF74AFE2946206984
:1012B000BDE83840FFF708B800050020E005010848
:1012C000FFF7D8BF0221826081827047D0E9011305
:1012D00030B4D0E90425C06843F8101CA3F18401A0
:1012E00043F8141C43F8442C02210022074C03F855
:1012F0000C1C03F80B2C43F8405C43F8180C43F823
:10130000244CA3F1200030BC704700BFE10200086C
:10131000D0E90132934210B504D2552103F8011BE4
:101320009A42FBD1202383F31188FFF7CFFF0021DE
:101330000446FFF765FF002383F31188204610BDA4
:10134000F8B54518A842069E05D20446552704F86C
:10135000017BA542FBD1202484F311882039441855
:10136000A4F16407094D2061022144E90936A182F4
:10137000C4E9022744F8045C20460021FFF740FF3F
:10138000002383F311882046F8BD00BFE102000866
:10139000024B1B6998610F20FFF7EABE0005002091
:1013A000202383F31188FFF7F3BF00BF08B5014680
:1013B000202383F311880820FFF700FF002383F325
:1013C000118808BD69B1084B10B4024644681B6916
:1013D0000420C3E90024236053605DF8044BFFF749
:1013E000EDBE4FF0FF3070470005002002689042CC
:1013F0000AD010B41468046003466360104691611B
:101400005DF8044BFFF76CBE704700BF38B503684A
:1014100098420BD004460D461A6822601846546064
:101420009D61FFF75DFE23689C42F5D138BD00BF8A
:1014300080B4094A536823F0010300AF5360EFF30F
:101440000983683383F30988002383F31188BD4639
:101450005DF8047B704700BF30EF00E098B52023B3
:1014600000AF83F31188114B5B6813F4006302D162
:1014700083F3118898BDF1EE103AEFF309840C4B19
:101480004FF08072DB6844F8083C44F84C2CA4F11F
:10149000680383F30988FFF7E1FE18B1054B44F8B0
:1014A000503C98BD044B44F8503C98BD00ED00E022
:1014B00030EF00E0F1020008F402000808B500F087
:1014C000EDFE00F0EFFA00F0A3FC00F089FB01F064
:1014D0009BFABDE8084000F001B800BF00F05CBF17
:1014E0004FF080430021022258631961DA6070478F
:1014F0004FF080430022DA60704700BF4FF0804316
:1015000058637047C36810B4446919608169826880
:101510000B44A342C36002F1010228BF036A826048
:1015200028BFC3605DF8044B704700BF70B404323D
:10153000039D049C826103FB021600224661C0E900
:101540000B54C0E90000C0E90311C0E90731826013
:10155000C0E9092270BC7047016A0022C0E903118A
:101560008260C0E909226FF00101FFF74FBF00BFA1
:1015700010B5FFF7C7FF0021BDE81040FFF736BFE9
:10158000836810B504463BB123691A6804331A44D2
:10159000C4E90932002010BDFFF714FF0028F3D082
:1015A00010BD00BF10B4D0E905140369826823445C
:1015B0008B42036124BF036A0361013AC36A8260FC
:1015C0000022426213B15DF8044B18475DF8044BEA
:1015D000704700BF70B52023054683F31188446A25
:1015E00074B114F8016BAA6A6C62944204D20023AD
:1015F00083F31188304670BD2846FFF7D3FFF6E726
:10160000FFF7BEFF064608B96C6AEAE784F3118863
:10161000F0E700BF2DE9F84398460446894617468F
:10162000202383F31188002515E0A36A7E1B5B1A33
:101630009E4228BF1E4632464846FFF7F9FAD4E9D3
:1016400009323344934235446362204601D3FFF7A5
:10165000A9FFAF4209D9616A0029E6D14146204677
:10166000FFF78EFF08B9616ADFE7002383F3118873
:101670002846BDE8F88300BFD0E90332934201D089
:10168000181D70478268002AFAD00020704700BFFA
:10169000836823B1006950F8043B0B60704718461B
:1016A000704700BF10B4D0E9051403698268234471
:1016B0008B42036102F1FF3228BF036A826028BFB8
:1016C000036100215DF8044BFFF790BED0E90332BF
:1016D000934210B5044606D0A1691A1D0B44C4E913
:1016E0000923002010BD8268002AF5D0FFF76AFEAA
:1016F0000028F7D1E368EFE710B5FFF703FFC36AEF
:101700000022426213B1BDE81040184710BD00BF6F
:1017100070B520230E46044683F31188456A85B1CF
:101720002E70D4E9093201339342636203D2002060
:1017300080F3118870BDA16920460439FFF7DCFFF2
:10174000F5E71146FFF7C2FF08B9656AE8E785F3D8
:10175000118870BD2DE9F84398460446894617461E
:10176000202383F31188002518E0A36A7E1B1B1A2F
:101770009E4228BF1E46324609EB0501FFF758FA84
:10178000D4E909323344934235446362204603D39B
:10179000A1690439FFF7B0FFAF4209D9606A002898
:1017A000E3D141462046FFF791FF08B9606ADCE7C4
:1017B000002383F311882846BDE8F88338B585688F
:1017C0003DB9416A29B1C2680439891A03D1084672
:1017D00038BD002038BDFFF795FE4562012038BDB9
:1017E000034630B40269C0695C69DD68411C013A96
:1017F000A1421A61D96128BF0022285C28BFDA61A2
:1018000030BC70478269036930B4C468551C013329
:1018100085610361A154D0E905329A4224BF0023B7
:10182000836130BC704700BF10B400240461C0E97C
:101830000644C0E90000C160426183605DF8044B6A
:10184000704700BF0022C0E9062202616FF001016B
:10185000FFF7DCBDD0E90432934207D210B5FFF7A1
:10186000D1FF0021FFF7C2FD002010BD4FF0FF3077
:10187000704700BF38B50446202383F311880369FD
:1018800063B12046FFF7ACFFA36805460BB12046C5
:101890009847002383F31188284638BDFFF792FD4F
:1018A00005460028EDD0002383F31188284638BD73
:1018B0002DE9F04F83B0054601938A4690462023D8
:1018C00083F31188002710E018462246FFF7B0F98D
:1018D000EE6926442B69EE611B1B27442B61AB6824
:1018E0000BB128469847B84529D92C6904B3A8EB11
:1018F00007039C4228BF1C46002CF0D0012C0AEBA9
:10190000070323D0EE69D5F814B0E968ABEB0609FC
:101910004C453144D8D34A461846FFF789F9A6EB1F
:101920000B06264448443246E968FFF781F9D1E7BF
:1019300001992846FFF746FD08B92C69D7E700232F
:1019400083F31188384603B0BDE8F08F2846FFF7CF
:1019500047FF0AF807000137C1E700BF70B5202331
:101960000E46044683F31188D0E904539D420BD2FE
:1019700031462046FFF746FFA36803B19847002091
:10198000002383F3118870BD1146FFF71BFD00286B
:10199000EED0002383F3118870BD00BF026938B513
:1019A0004AB10446FFF71CFF002105462046FFF719
:1019B0001DFD284638BD4FF0FF35FAE72DE9F04F01
:1019C00083B0044601938B469146202383F311880C
:1019D0000027B84610E019462A46FFF729F9A669FC
:1019E0002E442369A6612B44A8442361A3680BB14C
:1019F00020469847C1452DD9D4E90457BD4221D28C
:101A00007D1BA9EB08039D4228BF1D46002DEDD08C
:101A1000012D0BEB080324D0A669E068A7EB060AAA
:101A200055453044D7D3524619460093F61BFFF76D
:101A3000FFF8009BE0682E4403EB0A013246FFF7F3
:101A4000F7F8CEE701992046FFF7BCFC10B9D4E9BE
:101A50000457D5E7002383F31188404603B0BDE85F
:101A6000F08F1BF80810204608F10108FFF7CAFEA6
:101A7000BCE700BF08304FF0FF31FFF7FBBE00BFEF
:101A800028304FF0FF32FFF769BF00BF08304FF03A
:101A9000FF33FFF70DBF00BF28304FF0FF33FFF7D4
:101AA0008DBF00BF00F0DEBC70B50C4B0360044678
:101AB000012015460B46207104F1480104F108008D
:101AC0004022FFF7B1FE2B4604F1880104F1280003
:101AD0004022BDE87040FFF7A7BE00BFF005010837
:101AE00010B52023044683F3118800F0E5FC02239F
:101AF0002371002383F3118810BD00BF10B5046B60
:101B0000D4F83C2113681978042982B002D12179D4
:101B1000022901D002B010BD11791A8901238B402E
:101B20001342F7D101A904F13C00FFF7B1FD0246D1
:101B30000028EFD0D4F83C01019B0179006800F047
:101B4000B7F9E7E738B5D0F83C311A6811780429BD
:101B500002D10179022901D0012038BD5979548977
:101B600001238B401C40F7D105460830FFF784FD68
:101B70000028F1D0D5F83C31024659791868402345
:101B800000F082F9204638BD006BFFF7DBBF00BFD5
:101B900008304FF0FF31FFF71DBD00BFD0F83C31DA
:101BA0001B681B78042B04D13C304FF0FF32FFF749
:101BB000AFBD6FF00100704708304FF0FF33FFF703
:101BC00029BD00BFD0F83C311B681B78042B01D025
:101BD000002070473C304FF0FF33FFF7BBBD00BF24
:101BE000704700BF10B582B001230D490D4A019026
:101BF00004460160037100F1700100920830402238
:101C0000FFF794FC084B0093019404F1B40104F134
:101C10003C0002234022FFF789FC02B010BD00BF48
:101C200010060108891B0008FD1A00080B68202215
:101C300082F311880A7903EB820290624A791132A9
:101C400043F822008A7912B103EB820398620223DF
:101C50000371C0F83C11002383F31188704700BF63
:101C600010B504460830FFF777FC04F13C00BDE8EE
:101C70001040FFF771BC00BF10B504460830FFF7F5
:101C80006BFC04F13C00FFF767FC2046BDE8104008
:101C9000FFF758BF90F8743003F06003202B01D099
:101CA0000020704790F87530202BF9D3212B05D8F0
:101CB000064B83660723C36601207047222BEFD1B2
:101CC0000023C0E91A330120704700BF0003002041
:101CD000D0F83C2113681978042902D1017902292E
:101CE00000D0704711791A8901238B401342F8D133
:101CF00030B500F13C0583B004462846FFF75EFD91
:101D000008B903B030BD01A92846FFF7C1FCD4F8DB
:101D10003C41019B21790246206800F0C9F8F0E7B8
:101D2000F0B500EB810383B09C6AC4B10E46054652
:101D3000202282F311881F46DB685B691B683C34F4
:101D4000DBB9204601A9FFF7A3FC024648B13146A2
:101D50002846019B00F0ACF8002383F3118803B000
:101D6000F0BDFB6859691B8A09689942F4D1314674
:101D70002846134600F09CF8EEE72046FFF792FC59
:101D8000DFE700BF113110B550F8214094B1202396
:101D900083F31188D4F83C211368527903EB820352
:101DA000DB689B69596831B92046FFF7CBFE0023F9
:101DB00083F3118810BD04F10800FFF7D9FBF3E7A6
:101DC000704700BF10B50021044600F0D9FD204641
:101DD000002100F0C3FD63681B6813B10521204694
:101DE0009847062384F8643010BD00BF10B5B0F8E2
:101DF000763080F87E30044600F0BCFB63681B68D8
:101E000013B10121204698470323237010BD00BF62
:101E100000F084BB012300220370426000F12C0318
:101E200000F1480143F8042B8B429A61FAD1826099
:101E3000704700BF38B50446202383F3118800257E
:101E40004160C0E90355C0E90555C0E90755C0E93F
:101E5000095500F069FB0223237085F3118838BD12
:101E600010B4536900EB8104E2601BB100241C60D4
:101E70005C609C6093691BB100221A605A609A6092
:101E80005DF8044B00F080BBF0B400EB810447899F
:101E9000D4F80CC00124DCF818508C403C430027D7
:101EA0004481AA60C5E90037F0BC00F019BC00BF4E
:101EB000F0B400EB81040789D4F80CC00124DCF8ED
:101EC00014508C403C4300270481AA60C5E90037C8
:101ED000F0BC00F017BC00BF70B50223002504461B
:101EE0000370C567C0E90255C0E90455C0E906554D
:101EF000C0E90855856280F8645000F099FB63687A
:101F00001B6823B129462046BDE87040184770BDC4
:101F100042681368052101700BB10321184770470F
:101F2000426813680421017003B11847704700BF6D
:101F300038B50446002580F8645000F1740200F0C2
:101F4000B3FB636825679B68EBB120469847D0B127
:101F5000E06EB4F87A30834238BFE366202383F31F
:101F6000118894F97430002BE36E20DB63B3A26E0A
:101F700000212046FFF788FF042384F86430002303
:101F800083F3118838BD94F8743013F0600F09D1D1
:101F900003F01F03012B94F875206DD0002B51D056
:101FA000022B29D02046BDE83840FFF70BBFBBB15C
:101FB000A26E00212046FFF77BFF012384F86430E6
:101FC000002383F3118838BD1A4619462046FFF7CF
:101FD0006FFF052384F86430002383F3118838BD34
:101FE0001A4619462046FFF74FFF032384F8643052
:101FF000002383F3118838BDB4F8783003F00F0163
:1020000003F080030C2ACDD801A050F822F000BFC5
:10201000AB20000887200008A51F000887200008C3
:10202000A51F0008A51F0008A51F0008A51F000880
:10203000A51F0008A51F0008A51F0008A51F000870
:102040007D200008092AADD801A353F822F000BF73
:102050004921000827210008A51F000827210008A2
:10206000A51F00081B210008F7200008A51F000875
:10207000EB200008C9200008002A93D13E4BA3663C
:102080000220E06665E7B4F8760000288AD10029CE
:1020900088D0012AC9B2204664D0002B66D000F057
:1020A0006FFC0023C4E91A3358E7C9B22046002B5D
:1020B00050D000F0EBFA01284FD002287FF472AF25
:1020C0002E4BC4E91A3044E7626894F8763084F8FD
:1020D0007F30002B136814BF042203222270002BD0
:1020E000DFD0022120469847DBE704F17F0301207F
:1020F000C4E91A302DE7B4F876106268B4F8783085
:1021000055682046CAB2090AA84700283FF44AAFDA
:10211000D0E90003C4E91A301BE70023184A2267FC
:10212000C4E91A331AE7B4F87630012B7FF43AAFDA
:10213000B4F87C3023F002039BB2032A08BF43F0BB
:102140000203A4F87C30ACE704F17C030220C4E96C
:102150001A30FEE600F08CFAADE70A4BA3660220C7
:10216000E066F6E62BB100F035FC9AE700F0F6FBEE
:1021700097E700F017FC94E73806010830060108DD
:10218000ED1D00083406010838B590F864300446A7
:10219000062B20D8DFE803F02004102020242000A4
:1021A000C36EB0F87A20934206D2C268128AB3FB9B
:1021B000F2F502FB1535D5B1202383F311880023F6
:1021C0001A4619462046FFF75FFE002383F3118865
:1021D000032384F8643038BDBDE83840FFF7F2BD12
:1021E000036F03B19847002384F8643038BD20237F
:1021F00083F311882B462A462946FFF759FE85F3BB
:102200001188022384F8643038BD00BF90F8642040
:10221000062A00D9704738B50123934013F06705AB
:102220000FD1DA06044610D41B0709D5C3689B6991
:102230005B682BB9036F03B19847002384F86430BF
:1022400038BDBDE83840FFF7BDBD202383F31188BA
:102250002B462A462946FFF72BFE85F311880523D6
:1022600084F8643038BD00BF430910B49B0000F10E
:10227000604404F5614403F16043090103F56143DF
:1022800000F01F000122C9B284F8001302FA00F026
:10229000C3F880015DF8044B186070470E4B0F487F
:1022A0009A6A4FF0FF31002210B499629A621C6959
:1022B00019611A61DC68D960DA60DA695DF8044B8B
:1022C00042F08052DA619A6942F001029A61036831
:1022D00043F02003036070470010024000000140FB
:1022E0001F4A136843F00103136013689807FCD575
:1022F00053681B4923F003035360536853604B68D2
:1023000013F00C03FBD10868154A00F0F9000860CF
:102310004B600B6843F480330B6013689903FCD562
:10232000104B536042F210113023D16213631368D3
:102330000B4943F0807313600B689B01FCD50A4B7B
:10234000074A122018604B6843F002034B60536841
:1023500003F00C03082BFAD1136B1363704700BF13
:102360000010024000041D07002002404FF080438F
:102370001A69920701D4FFF771B810B500241C61E7
:10238000202383F31188FEF7E1FD84F31188BDE873
:102390001040FFF763B800BF0F4A1048D36970B40C
:1023A00043F00103D36181684FF080430022012490
:1023B00041F0010140F2CF264FF0FF3581609E626F
:1023C0000221DD621C209A615A63DA605A605C6106
:1023D0001C6070BCFFF748BF00100240002004E002
:1023E000024A136843F080031360704700380140CD
:1023F000F8B51A4ED6F8C8402768E569256220234B
:1024000083F31188AA0608D50836A18C3046C9B2D4
:10241000FFF720FAE569AB06F7D43E0610D528068B
:102420000ED50F4E03E02085E569290608D5304614
:10243000FFF7B4FA002880B2F5DA27F080032360B2
:102440007A0604D56B0644BF27F0400727600023B7
:1024500083F31188BDE8F840FFF700B84405002079
:102460006C05002010B5094C094A20460021FFF7F1
:102470001BFB084A084BC4F8C820C4F8CC30022122
:102480002520BDE81040FFF7EFBE00BF4405002047
:10249000E12300080038014000A24A04D0E93232AA
:1024A0001868B2FBF1F120F001001860D9601A68D9
:1024B00042F001021A60704770B511B3D1E90135DD
:1024C000CA68096843F4967343F0010345F0400578
:1024D00042F001020479012C0AD0D0F8C8406560AE
:1024E000A2602360FFF7DAFF4FF0FF33236270BD75
:1024F000084CA042F1D1084EB46944F48044B46160
:10250000EBE74FF4164140F22D13012244F240054F
:10251000E0E700BF44050020001002400148FFF73B
:1025200079BC00BF1406002038B50378012B00D019
:1025300038BD0D4A9042044604D02046BDE83840DC
:10254000FFF7CABC09490A4DCA6942F40002CA61D0
:102550004A202B640D21FFF787FE03214B20FFF754
:1025600083FE00232B64E8E71406002000100240DD
:10257000005C004090F87E30024A43F08003D36450
:10258000704700BF005C004000EB810370B4DD6861
:102590002B6813F0030345D0022B41D9032B0CBF4A
:1025A0004FF4C0644FF40074204B6E691B6D03F14F
:1025B000804303F5C04303EB01126EB12B8A002662
:1025C0005660D0F88060013323F001033344C0F833
:1025D000803044F020041660AB6983B16B8A3E2BD7
:1025E00018D801335D10AD02D560D0F8805023F0CB
:1025F00001032B44C0F8803044F4005495608B00F4
:1026000003F1804303F5B84321431A681A6070BC94
:10261000196070475D1E6D1145F020050133E2E73A
:102620000024C1E74FF40074BEE700BF005C004027
:1026300041680D4BC96870B400294FF080054FF018
:1026400000011965094C596408BF4FF41C46DD644C
:1026500018BF4FF41E4640251E64C0F88050C46069
:1026600070BCFFF791BF00BF005C00403C06010852
:10267000054B53F8210010F4405004D0B0F5805FB2
:102680000CBF012002207047005C0040054B53F84E
:10269000210010F0300003D010280CBF01200220D0
:1026A000704700BF005C00400C4B1B6D03F1804382
:1026B00003F5C04303EB011110B48B6803F1005321
:1026C00003F540535B00D3E90040D3E902131480C3
:1026D00050809180D3805DF8044B7047005C0040CF
:1026E000890001F1804101F5B8410B6823F4904362
:1026F00023F0700383F4405343F4004343F080031A
:102700000B60704700EB8100F0B4C2681C4B556948
:10271000148A1B6DAF68D5E90006801B844203F163
:10272000804328BF044603F5C04303EB0112601C3D
:102730004008136854600ED003F1005303F5405372
:102740005B00B21E03EB80003A4432F8027F43F88C
:10275000047B8342F9D1890001F1804101F5B84140
:1027600034440B686C6023F4F04323F0400383F09F
:10277000300343F4004343F080030B60F0BC704728
:10278000005C00402DE9F04F714B5C6CE243660544
:1027900087B05A6400F1C580250500F1C880E004C7
:1027A00004D56B4B9A6C110440F1CA80A20507D581
:1027B000DFF8A0B1DBF80430DB680BB1584698476E
:1027C00023043FD5DFF88CB1DFF88CA1DFF88091CE
:1027D0001AE06869D0E9000401EA0A0141F4004105
:1027E0008442196033D3BBF80830AC6801219140B2
:1027F00023EA0103ABF8083014B111465548A0474D
:10280000D9F8444023041DD504F00F02930003F1CE
:102810008043961C03F5B8430BEB8601E706186866
:102820004D681968D5D501EA0A0141F08001040517
:102830001960D1B210D56B6846489847D9F8444022
:102840002304E1D407B0BDE8F04FFEF707BE114600
:102850004048FFF757FFD3E7D9F85000D5F818E004
:1028600000F1804000F5C04000EB0210DEF80840A7
:10287000D0F808C0C0680394DEF804700290C0F37A
:1028800009080CF100540398019704F540543844AA
:1028900064005FEA580705940490039708D0023853
:1028A00000EB470C54F8047B20F8027F6045F9D117
:1028B0000298C0070AD50598039C074657F82400DC
:1028C000049F07F81400DEF8040001900198DEF878
:1028D00000404044A042CEF8040002D2688A40453D
:1028E00012D90BEB8606BBF80A307468012000FA97
:1028F00002F2E46823EA0203ABF80A30002C3FF44A
:102900007FAF1448A0477BE71A6822F4904222F078
:10291000700282F4405242F4004242F080021A6097
:102920006EE70C48FFF7D8FA25057FF538AF084A5F
:102930000848136C43F008031364FFF7E9FA2EE725
:102940001A6C044822F008021A64FFF7E9FA2DE72E
:10295000005C0040140600200F07FFFF890001F112
:10296000804101F5B8410B6823F4904323F07003D4
:1029700083F4805343F4004343F080030B607047BB
:10298000890001F1804101F5B8410B6823F4F0435F
:1029900023F0400383F0100343F4004343F080032B
:1029A0000B607047890001F1804101F5B8410B6867
:1029B00003F44053B3F5405F0BD00B6823F490430E
:1029C00023F0700383F4005343F4004343F0800387
:1029D0000B607047890001F1804101F5B8410B6837
:1029E00003F03003302B0BD00B6823F4F04323F0BB
:1029F000400383F0200343F4004343F080030B6063
:102A0000704700BFFFF76CBC014B11221A60704782
:102A100000200240F0B407460B300546B1FBF2F649
:102A200002FB16140A2C34BF4FF0300C4FF0370C59
:102A30005CFA84F4E4B28C4605F8014D31460BB1E2
:102A4000013BEBD1944501D30023E7E7401B384419
:102A500001E015F8014F07F8014BB842F9D1F0BC7D
:102A6000704700BF092970B51A4B0E46A8BF09264A
:102A7000FCEEC07A53F82630B8EE677A06EE903A4C
:102A800030EE470AF8EE666AB6EE007AA0EE267AD5
:102A90000D46BCEEC77A17EE104AA34205D8E41AD9
:102AA00017EE903A013307EE903A00230A2217EE10
:102AB000901AFFF7AFFF05B970BD074A92F8693069
:102AC00000F8013B214633460A22BDE87040FFF77B
:102AD000A1BF00BF6C060108080300200389012B79
:102AE00006D943685A1C426019700389013B03816F
:102AF000002070472DE9F04F2DED048B00248BB0A2
:102B00002023CDE901439FEDB69A9FEDB68ADFED14
:102B1000B68A06468B4690461BF8011B61B12529F3
:102B200010D0019A336801329B6801923046984771
:102B30001BF8011B0029F2D101980BB0BDEC048BEE
:102B4000BDE8F08F00245B461BF801ABBAF12D0FF6
:102B500016D0BAF12B0F16D0BAF1300F16D0BAF149
:102B60006A0F16D0BAF1200F16D0BAF1620F16D143
:102B70005B461BF801ABBAF12D0F44F48074E8D129
:102B800044F00204DFE744F00404DCE744F01004FE
:102B9000D9E744F08004D6E744F02004D3E70133BA
:102BA000002507E051F8042BD2B2884613F801AB98
:102BB00002EB4005AAF13002D2B2092A41469B46F7
:102BC00005EB8500F2D9BAF12A0FEBD0BAF12E0F3E
:102BD00000F06D8144F040040027AAF14403342B37
:102BE00000F25481DFE813F0C00052016D00520181
:102BF0005201C000520152015201520152013500EE
:102C0000520152015201520152015001520152012E
:102C10004E01520152015201520152015201520120
:102C20005201520152014201C00052016D00520195
:102C30005201C000520152015201520152013500AD
:102C4000520102015201DD005201500152015201B4
:102C50004E0108220DF11009002358F8041B4846C4
:102C6000FFF7D8FECA460746A0EB0903ED1A5CD46D
:102C7000E10640F1198130230293A20759D5574547
:102C800040F2A981019CD146336819F8011B9B6869
:102C90003046984709EB0403B945A3EB0A03F3D385
:102CA0001C46002D00F09581DDF808902F46336812
:102CB00049469B6830469847013FF8D12B1901934C
:102CC0002AE7E30500F1138108F1070828F0070857
:102CD000F8E80201FDF7CCFC00EE100AB5EEC00AE0
:102CE000F1EE10FA00F10D81600740F194812B2381
:102CF0008DF810300DF111000DF11009220648BFBA
:102D00006A23B4EEC90A48BF00F8013BF1EE10FA9D
:102D100040F363810746192307F8023BA7EB090339
:102D20002022ED1ACA464270A2D5A2074FF0000534
:102D3000A5D414F02C0F02D0E30600F1CE80002DB4
:102D400000F07381DDF808902C46336849469B6893
:102D500030469847013CF8D1019BBA452B4401937A
:102D600038BF25468ED3D7E658F8041B0029C0F299
:102D7000D980670740F145812B238DF810300DF184
:102D800011000DF11009220644BF6A2300F8013B2F
:102D90000A220023FFF73EFECA460746A0EB0903BE
:102DA00064E758F804AB24F01001BAF1000F00F00A
:102DB000C48062069AF8003070D5002B72D047F6B6
:102DC000FE70574601E0013306D017F8012FAAEB39
:102DD00007030344002AF6D10C46A7EB0A0345E794
:102DE000FFFF7F7F00007A446F12833A434653F817
:102DF000042B0393002F00F090800E2FA8BF0E2706
:102E0000B8464FF0010CCA49A1FB0230C00800EBE4
:102E10008003A2EB43033033DBB2092A8DF81D3067
:102E200040F27081894644F6241E4FF0000A0DF1ED
:102E30001D07A9FB0032D20802EB8203A0EB43037B
:102E40003033DBB209284FEA5E0E07F8013C07F188
:102E5000FF317BD91EF0010F75D04FF0200307F82A
:102E6000023C0AF1010A023F1046E2E758F8043B2F
:102E70008DF8103024F0100401230DF1100A0DF12B
:102E80001107F3E61022E5E60A22E3E68DF810A02A
:102E900001230DF1100A0DF11107E7E613B1781EB9
:102EA000002F8ED10C46574620230293E5E60027DB
:102EB00005E052F8043BDBB2904603EB41071BF8F8
:102EC00001ABAAF13003DBB2092B424607EB8701C5
:102ED000F3D9BAF12A0FECD07FE6019A33681AF8D9
:102EE000011B9B68013230460192984727E758F84A
:102EF000043B00EE103AB5EEC00AF1EE10FA7FF591
:102F0000F3AE2D2344F00804B1EE400A8DF81030E2
:102F10000DF111000DF11009F0E64FF0030C4FF028
:102F20000E0870E72D2344F0080449428DF8103054
:102F30000DF111000DF1100925E76006DFF800A280
:102F40003FF53DAFABE70F46104672E7794A0DF10A
:102F50001E0E12F80AA0AEEB010E0DF11009CE44C0
:102F60004A4606E07FB102F8013B724515D003786E
:102F70000146202B01F101000CF00107F2D117B33B
:102F80000CF0FE0C2E23B8F1000F08F1FF3104DB2A
:102F900002F8013B72458846E9D11CF0020F02F1AC
:102FA000010708D0BAF1200F05D01346202203F8FC
:102FB000022B3A461F4682F800A0DDF80C80A7EBF2
:102FC0000903CA4652E61CF0020FDCD1881C4B787C
:102FD000D9E70194A0E5019C63E6630629D5BAF11F
:102FE000460F34D009273946FFF73CFD074614F059
:102FF000100273D1A7EB0903ED1ACA467FF554AF4F
:1030000093E6A0061FD520238DF810300DF1110096
:103010000DF11009B7E6A10611D520238DF8103067
:103020000DF111000DF1100968E6BA45FFF42AAE62
:1030300072E5BAF1460FD6D10FFA87FA09E00DF121
:10304000100948465AE60DF1100948469BE6032749
:10305000BA46B4EEC80AF1EE10FA5ADB20EE280A9E
:10306000354BB4EEC80AF1EE10FA05DB13F8012F68
:1030700020EE280A002AF4D113F8013C13B1013FD5
:103080000FFA87FAFCEEC07A17EE902A632A59D914
:10309000AAF1020A0FFA8AFABAF1000F039341DB90
:1030A0005146FFF7DFFC039B0746BAF1000F10D033
:1030B00010F8012C302A05D1411E0F4611F8012DC0
:1030C000302AFAD01D4991F86910914208BF07F1E2
:1030D000FF37002B8BD007F8013B88E717F8013C3E
:1030E000302B84F0100405D17A1E174612F8013DEA
:1030F000302BFAD02E2B08BF07F1FF37A7EB0903BF
:10310000CA46B3E54FF0010E4FF0200A0DF11D0144
:1031100023E7F7EE007AB4EEE70AF1EE10FA18D4DE
:103120000023AFE70021FFF79DFC039B0746D0E794
:10313000CDCCCCCC580601085A0601080803002063
:1031400064060108092A84BF0AF1FF3A0FFA8AFAD5
:10315000A2E720EE080A094BB4EEE70AF1EE10FAF6
:1031600005D513F8012F20EE080A002AF4D1B4EE99
:10317000E80AF1EE10FAD3DD7EE700BF95060108FC
:103180000CB430B50C1E85B016DD09AB0D4D0290A8
:103190001A460899ADF80C4001A8CDE90035FFF7B3
:1031A000A9FC029B002284421A7000DC601E05B05C
:1031B000BDE8304002B07047002005B0BDE83040A7
:1031C00002B07047A00601080A44013811F8013B1B
:1031D00000F8013F9142F9D1704700BF0244C9B2E3
:1031E00000F8011B8242FBD1704700BF30B4044697
:1031F00011F8015B14F8013B0244581B38B914F86C
:10320000010B11F8013BA242A0EB0300F6D130BC48
:10321000704700BFC3690239023B8B4283BF4389B9
:10322000006B01FB03000020704700BF10B4024692
:1032300000F10B040020C30112F8011B43EA500304
:1032400051FA83F3A242D8B2F5D15DF8044B70472E
:1032500030B44478002301346401194602294FEA4E
:1032600053050DD10279417902EBC33315FA83F38B
:103270009BB201EBC3315B0813FA81F39BB20621C9
:10328000425C5D08013102EBC33315FA83F38C42D3
:103290009BB2E3D8184630BC704700BF03685A1C85
:1032A00002601878A0F16103192B01D8203870470B
:1032B0007F2803D9024B184410F8800C704700BFD8
:1032C000B0060108F0B585B012F0FF0F14460646AF
:1032D00001911F4603D10BE014F0FF0F08D001A8A5
:1032E000FFF7DCFF013C0028F6D1002005B0F0BD5F
:1032F0003278002A37D0019BCDE9026333460DE0D6
:103300002A2A0ED0FFF7CAFF014603A8FFF7C6FF1F
:10331000814205461ED141B3029B1A783F2A02A87A
:10332000EED1002FE1D000220133029313F8011CEB
:103330003F2919780CBF013242F480723F29F3D043
:103340002A29F1D0184603997B1EFFF7BBFF60B90D
:10335000039B1D7801A8FFF7A1FF002CC5D0002D0D
:10336000C3D03278C7E7002CC5D0012005B0F0BD2E
:10337000016861B10A4601E03A2B05D012F8013B21
:103380001F2BF9D8002070478B1C9A4202D04FF0B7
:10339000FF3070470B78302BF9D102600020704766
:1033A000C8B110B5036882B004462BB11A781AB1BF
:1033B0008088DA88904204D0092000230B6002B094
:1033C00010BD587801910CF0ADF810F00100019992
:1033D000F2D12368F2E7002309200B60704700BF99
:1033E00070B5C37813B90025284670BD00F13C06BE
:1033F000826B04463146012340780CF015F90546EE
:1034000080B9A16BA36A226AE070CB1A9342EAD218
:10341000A378022BE7D10A446078314601230CF0EF
:1034200003F9E1E70125284670BD00BF38B5836B7D
:103430008B4202D10023184638BD05460C46FFF7E3
:10344000CFFF03460028F6D12246012305F13C01B7
:1034500068780CF06FF80028034616BF4FF0FF3471
:1034600003460123AC63184638BD00BF38B50022BF
:103470004FF0FF33C27083630446FFF7D7FF88BB6A
:10348000B4F83A524AF655239D421AD094F83C308B
:1034900003F0FD02E92A03D0E82B01D0032038BD58
:1034A000B4F8473094F849105A1E1A42F6D1B3F5D1
:1034B000007F2DD04AF65520854214BF03200220FC
:1034C00038BD0B22224904F13C00FFF78FFE58B1B2
:1034D00094F83C3003F0FD02E92A07D0E82B05D030
:1034E000022038BD042038BD012038BD082219490A
:1034F00004F18E00FFF77AFE0028D0D0B4F84730F0
:1035000094F849105A1E1A42EAD1B3F5007FE7D168
:103510000029CFD04B1E0B42CCD1B4F84A30002B3F
:10352000C8D094F84C30013B012BC3D8B4F84D30CF
:10353000002BBFD0B4F84F307F2B03D8E36DB3F529
:10354000803FB7D3B4F85230002BB3D0002038BD41
:10355000400701084C07010802392DE9F84F804661
:1035600001F007044FF0010A406B0AFA04F4164612
:103570009B46E4B200EB1139C1F3C8074946404607
:1035800009F10109FFF752FF20BB08EB070210E029
:10359000013E82F83C5088F803A017D014F0FF04D5
:1035A00009D10137B7F5007F08EB07024FF001049E
:1035B0000ED092F83C502C4214BF012300235B45EF
:1035C00085EA04054FEA4404E2D10220BDE8F88F01
:1035D0000027D3E70120F9E701292DE9F0470DD9AC
:1035E000C3698B420C46054608D90378013B164651
:1035F000032B03D8DFE803F0312107074FF002085F
:103600004046BDE8F087816A01EBD411FFF70EFF59
:1036100080460028F4D12B46A40013F83C2B042A42
:1036200004F4FE7405D0195926F0704601F070417B
:103630000E4301221E51EA70E2E7816A01EB142178
:10364000FFF7F4FE80460028DAD1630003F4FF732D
:103650002B4401229E87EA70D2E7816A04EB54076B
:1036600001EB5721FFF7E2FE80460028C8D107F1A1
:10367000010AE307C7F308074FEA5A2205F13C099C
:1036800018D409F80760A96A01231144EB70284691
:10369000FFF7CCFE20BBCAF3080AC6F3032619F8CD
:1036A0000A3023F00F031E43D144012389F8006040
:1036B000EB70A5E719F8073003F00F0343EA061390
:1036C00009F80730A96A01231144EB702846FFF777
:1036D000ADFE28B9CAF3080AD144C6F30716E4E7D9
:1036E00080468DE7C379032B01D00020704770B569
:1036F00086698168054666B10E4401E0B44208D08F
:103700004C1C22462868FFF767FF21460028F5D0A9
:1037100070BD0020E87170BD012911D92DE9F0417B
:103720000668F2698A4202D80120BDE8F081327849
:10373000013A0C46032AF7D8DFE802F033261704D3
:1037400001207047D0E9047857EA0803C17934D0E2
:10375000856895B30229A4EB05055ED003292ED117
:103760008369AB422BD9601CDFE7B16A304601EBBD
:10377000D411FFF75BFEE8B9A30003F4FE733344F2
:10378000D86B20F07040D0E7B16A304601EB1421CD
:10379000FFF74CFE70B9630003F4FF733344988F56
:1037A000C3E7B16A04EB540701EB57213046FFF73A
:1037B0003DFEB8B14FF0FF30B7E70029B4D1C3697F
:1037C000002B38D1B16A304601EBD411FFF72EFE41
:1037D0000028EFD1A30003F4FE733344D86B20F02C
:1037E0000040A2E7C7F30803B16A3344013701EB95
:1037F0005721304693F83C50FFF718FE0028D9D1E6
:10380000C7F30803334493F83C00E30745EA00207C
:103810004CBF0009C0F30B0087E717F1FF3248F1F6
:10382000FF31530A43EAC1537289B3FBF2F39D425D
:103830003FF67AAF97D16FF0004076E7F8B50668AB
:103840003378042B0CBF4FF080524FF400128A42A1
:103850001DD9CA060C461AD1054682682963C2B131
:1038600077897F02BC4207D22EE001280FD9F36985
:1038700083420CD9A74227D811462846FFF74CFFB0
:10388000431C0246A4EB0704EFD10120F8BD02203F
:10389000F8BD022B12D83389B3EB541FF7D9F06A65
:1038A000A8636A630028F2D0C4F308033C3600EB37
:1038B00054201E44C5E90E060020F8BDF36AC2710B
:1038C000002BE8D01A46CBE711463046FFF7A2FCA2
:1038D000A863E6E701292DE9F843066853D9F3699F
:1038E0008B420C464FD907469146002A3CD1A04650
:1038F00003E0A8468D422C4630D221463846FFF7D9
:103900000BFF054650B301283DD0411C56D03378FB
:10391000042B05D0002221463046FFF75DFE08BB90
:10392000D6E906318A1E934205D23279013342F03C
:103930000102B36132710134AC42DBD03378042B25
:10394000D7D1A4EB0802414600233046FFF704FE1E
:1039500040B9F1698D42A8462C46CED33378042B6A
:1039600014D00020BDE8F8833378042B02D1C3794A
:10397000022BBCD04FF0FF3249463046FFF72CFEF9
:103980000028B4D0EEE70220BDE8F883B9F1000FBB
:1039900017D0FB79CBB9BC680BE021463846FFF75E
:1039A000BBFE631C01281C46EDD9421C06D0834295
:1039B000D7D1A145F1D10223FB71D2E70120BDE8A7
:1039C000F88387F807904846CCE7032BC9D1BB683A
:1039D0004B45C6D8BA6913444B45C2D3EBE700BF89
:1039E000F8B50E460546FFF7FBFC08B10120F8BD0F
:1039F000314604462846FFF70DFC05F13C06A86356
:103A000007464FF4007230462146FFF7E7FB68890E
:103A100020B910E068890134A04208D901233A197D
:103A2000314668780BF000FE0028F3D06889201A30
:103A300018BF0120F8BD0446F9E700BF38B50D46B0
:103A400040F26231144602F059F8FF2808D9012CDF
:103A500001D8002038BD030A68702B70022038BDE1
:103A60000028F7D014B12870012038BD204638BD99
:103A70002DE9F047002407688C76836B002B7CD0FF
:103A80003B78042B0D46804600F0B980C36C0133AF
:103A90002CD0A1462646D7F80CE008E0FFF7CEFF71
:103AA000D8B1D7F80CE006444FF0000902343EF8D4
:103AB000043006F11A0103F5205CC6F12002294406
:103AC00043EA09401FFA8CFC43B1B9F1000FE5D17C
:103AD000BCF5006FE2D29946E8E70646B9F1000F5F
:103AE00018BF00262E440023B376AC7ED8F83CE005
:103AF00000200EF1FF320EF10A084FF02E0904E00B
:103B00002E1838467373884539D053789EB2511CAD
:103B1000202EA2F1070C00F101070A46F3D0052E72
:103B200008BFE523F445EBD10B28E9D805EB000CE1
:103B3000861C8CF80D9038463746E1E7BCF1000F43
:103B400000F093803F23AB7601262E440023B3760A
:103B50006B739EF8043003F037022A73DB0658BFFC
:103B6000DEE90E23BEF80C10698144BF0022002359
:103B7000BEF80E102981C5E90023BDE8F0872B1897
:103B800000225A734CBBF0B16B7BFBB16FF00B069C
:103B9000761B05F10D0208270DE0192806D89EF8BE
:103BA0000C100F4203F1200100D0CBB25373B418B4
:103BB00012F8013F53B199B22E29A1F14100ECD185
:103BC0000B461027F2E73F23AB7601242C44002359
:103BD000A3769EF80C3003B96B739EF80B3003F09C
:103BE0003F032B73BEF81630DEF81C206B81BEF845
:103BF00018302B810023C5E90023BDE8F087D7F8F2
:103C000010E09EF82390A4462646402306F11A01B0
:103C1000A145C6F12002294403F102088ED97F2B69
:103C200090D8D80602D1181D434680463EF803A01E
:103C30000AF520534AEA0C409BB20134BCF1000F54
:103C400002D1B3F5006F0DD3FFF7F8FED7F810E0FF
:103C500000283FF477AF06449EF823904FF0000C05
:103C60004346D3E7D4464346D0E7002E7FF46DAFFA
:103C700068E700BF38B5054635F8020BA8B1002447
:103C800001F076FF80B2C3B203EB540303EBC433FD
:103C90009AB2030A03EB520335F8020B03EBC2336B
:103CA0009CB20028ECD1204638BD0446204638BDE1
:103CB000F8B50546FFF794FB50B92B78032B08D0D5
:103CC0000022687811460BF01DFD003018BF01205E
:103CD000F8BD2B79012BF3D1044605F13C063046A3
:103CE0004FF400722146FFF779FA6A6AA8690A4917
:103CF0000A4FE96301324AF6552C31466E69AA63D0
:103D0000C5E98870A5F83AC2C5F8286268780BF052
:103D10008BFC2C71D4E700BF525261417272416139
:103D2000D0E90E2310B4446B8C60C1E9042390F8F1
:103D300021305DF8044B002203F00203CB71CA610D
:103D4000704700BF2DE9F0410C68B4B10D4607463D
:103D50001646984603E02C68013C2C606CB1321B7F
:103D6000012C02F1010138688CBF02324246FFF794
:103D700033FC0028EFD0BDE8F0810020BDE8F081E1
:103D80002DE9F04F002385B00B600F461546FFF775
:103D9000EFFA061EC0F2B480B54B53F82640002C53
:103DA00000F0D4803C60237805F0FE056BB16078AC
:103DB0000BF0B8FBC10708D41DB110F0040540F0AA
:103DC000C080284605B0BDE8F08FF0B200236070D7
:103DD00023700BF0DDFAC2077FD415B1430700F161
:103DE000B08000212046FFF741FB022800F08D80C3
:103DF000042879D001287ED80128A56B00F0A8807E
:103E0000B4F84730B3F5007F75D1B4F85220002ADA
:103E100000F0AA8094F84C302262591E0129A37048
:103E200069D894F8491088B26081002863D0481E90
:103E3000084260D1B4F84D60268130075BD1B4F8F8
:103E40004F0000B9E06DB4F84AC0BCF1000F52D089
:103E500002FB03F30CEB16171F44B8424BD3C01BF5
:103E60008842B0FBF1FE46D382498E4543D84FF6D7
:103E7000F578C6450CEB05012F440EF1020000F267
:103E8000038140F6F57CE645E061C4E9095127630A
:103E900000F218817EB30B4400EB400100F00100FA
:103EA000E36200EB5100012300F2FF10B2EB502F50
:103EB00021D34FF0FF31C4E905118020DAB220711F
:103EC0006D496E480B88227001336D4A9BB20B809E
:103ED000E380C4E90302002573E70325284605B003
:103EE000BDE8F08F042806D101256AE7B4F8A430B4
:103EF000B3F5807F3AD00D25284605B0BDE8F08F98
:103F00000B25284605B0BDE8F08FD4F80212D4F88E
:103F10001202D4F82222D4F83232CDE90010CDE9D1
:103F2000022301AD04AE31B90320B542DAD055F811
:103F3000041B0029F8D02046FFF798FA0128F4D88E
:103F40005AE70A25284605B0BDE8F08F0C2538E76A
:103F500004F1460304F17B0001E09842C6D013F857
:103F6000012F002AF9D0C6E7226E53E794F8A83053
:103F7000092BC0D1D4E9210110EB050A41F1000B56
:103F8000BBF1010F08BFBAF1000FB4D294F8AA3008
:103F9000D4F89060A370012B2662ACD194F8A9608C
:103FA000B3409EB26681002EA5D0D4F898C0354E9D
:103FB000B445A0D8D4F89470D4F88C1065629BB244
:103FC0002F440CFB03F317EB03080D444FF00001E3
:103FD00041F10009CB450CF1020608BFC245E6617C
:103FE0002763A56287D3D4F89C30E3621546164652
:103FF00001E0C2F30805204675B96389B3427FF634
:104000007AAFE16AFFF706F981192046FFF70EFA49
:1040100000287FF469AF0136631905F1200293F897
:104020003C30812BE5D104F13C0672195569012D14
:104030007FF661AFE369AB427FF65DAF6389226BC8
:10404000A91E01FB0323636306E056F823305F1CBF
:1040500040D0AB427FF44FAFA16A204601EBD511AF
:10406000FFF7E4F905F07F0301350028EDD03BE7C9
:1040700024070020F5FFFF0F280700202C07002051
:10408000A4060020FDFFFF7FB4F86630E0613343F3
:10409000C4E9095127637FF42EAF830003F2FF13B5
:1040A000A16EE162B2EB532FFFF425AFB4F86C20A0
:1040B0004FF0FF338021012AC4E9053321710DD06F
:1040C0000322FDE6002E3FF416AF0B44E3624000EE
:1040D0000223E9E6C4E905330422F1E6691C20461F
:1040E000FFF7A4F90028EBD1B4F83A2220714AF680
:1040F00055239A42E4D1094BE26B9A42E0D103F195
:10410000FF53D4F8202203F5005320339A4204BF12
:10411000D4E98923C4E90532D2E700BF5252614194
:104120002DE9F047074688460668002945D175699C
:10413000002D3AD0F369AB4298BF0125B369002B3B
:1041400037D03278F369042A6BD045454ED02C46DF
:1041500006E0012846D001305ED0AC4229D0F36998
:1041600001349C42384602D3012D22D90224214633
:10417000FFF7D2FA0028ECD14FF0FF32214630464B
:10418000FFF72AFA60BBB8F1000F22D1D6E9062367
:10419000023B9A423379746198BF02F1FF3243F0D7
:1041A000010398BFB261337104E0B3690125002BAC
:1041B000C7D100242046BDE8F087FFF7ADFA0128FB
:1041C00004460FD9421C27D0F3698342F2D84546F2
:1041D000B4E7414622463046FFF7FEF90028D5D025
:1041E000012819D001242046BDE8F0876C1C9C42B0
:1041F00028BF022421463846FFF78EFA0128F1D065
:10420000431C09D0002865D07269F369012A9ED940
:104210009A4238BF15469AE74FF0FF342046BDE872
:10422000F087023BA5F1020A9A4528BF4FF0000A29
:1042300054464FF00109716B304601EB1431FFF722
:10424000F5F80028E8D1C4F3C801701804F007039A
:10425000F26990F83C0009FA03F3DBB2A2F1020E16
:1042600004F1010CF44503EA000218D362BB1CF10F
:10427000030F04F102049DD801231A46214630465B
:10428000FFF76AF90228ADD00128C5D0B8F1000FB8
:1042900025D10223FB7100283FF478AFA2E75B0031
:1042A000002AE4D0D44584D013F0FF0301D0644643
:1042B000D6E70131B1F5007F06EB010339D093F861
:1042C0003C0064460123CBE7BAF1000F3FF471AF25
:1042D0000024B0E7002C7FF44FAFF36937E7FB7998
:1042E000022B1BD008F10103A342FA690FD00AB9CF
:1042F0000123FB614246234607F11C013846FFF7C4
:1043000021FD00287FF46CAF0123FB613EE772B111
:104310000132FA6100283FF439AF63E76B1CA34216
:10432000B9D0BB680322EB1ABB61FA71DAE702224B
:10433000EFE764467FE700BF2DE9F8430568066BA9
:104340002B78042B0CBF4FF080534FF40013203612
:10435000B342044604D80023A3630420BDE8F883D5
:10436000836B002B47D0C6F3080797BB8846416B89
:1043700001338363A1B36B89013B13EA562328D130
:10438000FFF7CAF90128814631D9B0F1FF3F2CD09F
:10439000EB69834216D8B8F1000FDCD0616B204680
:1043A000FFF7BEFE814620B3012820D0B0F1FF3FC9
:1043B0001BD001462846FFF713FBB0B9E37943F061
:1043C0000403E371C4F8349049462846FEF722FFFF
:1043D000A0633C353D44E56326630020BDE8F883D7
:1043E0002B89B3EB561FF4D8B5E70120B6E70220BE
:1043F000B4E70720B2E70420B0E700BF2DE9F041A1
:1044000005460068A96B0769FFF710F8044620B954
:10441000E96B0B78852B03D002242046BDE8F081A0
:1044200020223846FEF7D0FE7E7801367601A6F1CE
:104430006003B3F5007FEFD821462846FFF77CFFE5
:1044400004280446E8D00028E7D1A96B2868FEF7C5
:10445000EDFF04460028E0D1E96B0B78C02BDBD1DF
:104460002022B818FEF7B0FE97F823301A4A2C33F2
:10447000A2FB0323DB08B6EB431FCDD34FF040086C
:1044800003E008F1200846451CD900212846FFF723
:1044900053FF04280446BFD00028BED1A96B28686A
:1044A000FEF7C4FF04460028B7D1E96B0B78C12B97
:1044B000B2D1B8F17F0FE4D8202207EB0800FEF755
:1044C00083FEDEE7B8F1800FA7D83846FEF7C0FEBE
:1044D0007B888342A1D09FE789888888F8B50F46FA
:1044E000002104460668FFF7A9F9C8B90546A16B83
:1044F0003046FEF79BFF98B93278E36B042A1B78AD
:1045000014D0E52B03D0B3FA83F35B0963B1013513
:10451000BD4208D001212046FFF70EFF0028E6D05B
:10452000042808BF0720F8BD1D46F3E7DB43C3F3AB
:10453000C013EBE703682DE9F0411E6905463046DC
:10454000FEF786FEE96C708028467778FFF776F9EB
:1045500008BB01374FF001080DE0E86BFEF734FEB1
:104560002B68013F2146284683F8038010D0FFF7CF
:10457000E3FE203678B9A96B2868FEF757FF31466D
:10458000044620220028E8D0022828BF0224E4B2F2
:104590002046BDE8F081022828BF0220C4B2204690
:1045A000BDE8F081C16C4B1C2DE9F0410446056863
:1045B000066B25D14FF0E508012714E02978E26B5E
:1045C000042909BF117882F8008001F07F01117081
:1045D000EF70226BB2424FF0000120460DD2FFF780
:1045E000ABFE034630B9A16B2846FEF71FFF03461A
:1045F0000028E3D0042B08BF02231846BDE8F08151
:10460000FFF71CF903460028D4D01846BDE8F08116
:104610002DE9F8434FF0FF08054606684746042495
:1046200012E0C27AE52B02F03F02AA7105D02E2BD0
:1046300003D022F02001082924D1FF270021284699
:10464000FFF77AFE0446C0B9A96B002950D0304666
:10465000FEF7ECFE044680B9E86B0378002B4DD0E2
:104660003278042ADDD1852BE8D12B6BEB64284608
:10467000FFF7C4FE0446002842D00023AB63204667
:10468000BDE8F8830F2A4DD159062ED52A6B90F834
:104690000D80EA6403F0BF07437B4345CDD1438BD4
:1046A000002BCAD10378DFF890C0D6F80CE023F0D5
:1046B0004003013B03EB4301012203EB81030CF1B7
:1046C0000C0411464FF6FF7909E0162BB5D82EF8E9
:1046D000132011460133644518D01CF8012F825A6B
:1046E0000029F2D14A45F6D0A7E7BB42A5D1D3E7CE
:1046F000002CC2D100242046BDE8F8830424BCE786
:1047000033691B7903F03F03AB71B8E702785206B7
:1047100005D521B1162B90D800222EF81320013F89
:10472000FFB28BE71FB9FEF781FD4045E2D04FF0A5
:10473000FF33EB64A3E700BF300701082DE9F04F1A
:10474000002187B004460768FFF778F88246002802
:1047500042D13B78042B00F0A8804FF0FF334FF09C
:10476000FF0BE3649846D9460CE00F2A38D0C4F812
:104770004C804FF0FF0900212046FFF7DDFD0028A7
:1047800040F08880A16B3846FEF750FE002840F0CC
:104790008180E56B2E78002E00F08180EB7AE52E8B
:1047A00003F03F02A271E2D01B07DED40F2A17D01C
:1047B000B9F1000F04D12846FEF738FD58450BD05B
:1047C00094F84B30DB07D2D428460B2204F1400189
:1047D000FEF70CFD0028CAD1504607B0BDE8F08FA7
:1047E00094F84B305806C6D4710648D5236B95F81B
:1047F0000DB0E36406F0BF066B7B5B4541D16B8B6C
:10480000002B3ED195F80090FB684E4A049309F0C6
:104810003F0909F1FF3909EB4901012309EB81093E
:10482000CDE900B7CDE902A419462C461846049FED
:104830000596154612E0B9F1160F19D801F098F94E
:10484000834637F8190001F093F9834510D13146BA
:10485000D1463D4B9D4261D015F8010F265A09F112
:10486000010A30460029E6D14FF6FF739E42F0D090
:10487000DDE900B7DDE902A44FF0FF097BE7B145B0
:10488000BAD0002120464FF0FF09FFF755FD002860
:104890003FF478AF8246504607B0BDE8F08F4FF046
:1048A000040A504607B0BDE8F08FF868FFF7E2F958
:1048B00081462046FFF7ACFE0028EBD13B6993F818
:1048C0002320162AF5D8998C4945F2D10AB302F172
:1048D000FF385FFA88F808F1010205460092402689
:1048E00001E01D463B69F20608BF0236985B01F005
:1048F0003FF9FA68834632F8150001F039F983452B
:1049000005F1010306F10206D3D1A845E9D1009BC8
:104910005A00FB689B5A002BCBD15DE72546DDE9A9
:1049200000B72B78059E5A06DDE902A405D521B112
:10493000049B33F81930002BA3D1013E5FFA86F9AE
:1049400019E700BF300701083C0701082DE9F04FC7
:1049500090F84B9019F0A0099BB040F0C98107680E
:10496000FB681A88002A00F0EB8133F8022F09F166
:104970000109002AF9D13B78042B044600F00B8191
:1049800000F140050C22294604A8FEF71DFC9DF805
:104990001B30DA0767D5402384F84B300B2204A97B
:1049A00028464FF0010BDFF8B083FEF70DFC04F151
:1049B000470A5B460DF10F06072203E00F2B40F27A
:1049C000D080634603F00F0000F13001392988BF21
:1049D00000F13701013A4FEA131C06F80119EDD135
:1049E0007E238DF8083013463F3323441AA911441F
:1049F000072A94BF11F8601C202103F8011F98BFFB
:104A000001329A45F2D12046FFF798FE18BB0BF110
:104A1000010BBBF1640F00F099810B2204A9284619
:104A2000FE68FEF7D1FBBBF1050F40F2B280B01E6D
:104A30005B4630F8022F002ABCD0102102F001069C
:104A400006EB4303DE0348BF83EA080301394FEA5C
:104A50005202F3D1EDE70428064640F045819DF867
:104A60001B3084F84B309B0740F14781B84B09F16C
:104A70000C09A3FB09384FEA980808F10101204608
:104A8000FFF72CFD0646002840F02E81B9F10C0FEF
:104A900000F03A81216B2046A1EB4811FEF7CEFED3
:104AA0000646002840F020812846FEF7BFFBDFF8CD
:104AB000AC9201950546A16B3846FEF7B7FC064659
:104AC000002840F011815FFA88FB0BF1FF33E66BA1
:104AD000D7F80CA0757303EB430103EB81034FF090
:104AE0000F01F17202463073708301464FF0010CE2
:104AF0004FF6FF7E0CE00C2820D819F80020023178
:104B000026F802E04FF6FF720C2910D819F801C000
:104B1000724501F1010000F015813AF8132026F8E2
:104B20000C200133002AE6D001460C29EED94FF6BD
:104B3000FF718A4202D03AF813300BB94BF0400BA8
:104B4000012386F800B00021FB702046FFF7F4FB3C
:104B50000646002840F0C880B8F10108ABD1019D9D
:104B6000D2E094F840101AAB13447E20202903F8B9
:104B7000600C08BF00233FF437AF2946002304E050
:104B800011F8010F20283FF42FAF01339A42F7D8D4
:104B90002AE75B460EE76F4B09F10E05A3FB0535CF
:104BA000ED08A91CFFF79AFC0646002840F09C80FF
:104BB000226BE37905F100650135A2EB45155A0733
:104BC000E56449D523F00403E3712046FEF78AFD2E
:104BD000002840F0B3804FF0FF33626B04F11C01FA
:104BE0002046FFF7AFF8002840F0A880A368002B0C
:104BF00032D0D4E9092322F0FF0025680890194635
:104C0000179304A8236A09960B968DF8172004952C
:104C10000693FEF713FE002840F0908004A8FFF7EB
:104C2000EDFB002840F08A80D4E904237D893969AE
:104C30004FF40070E0FB0523C4E90423C1E90E230F
:104C4000C1E90A23E37943F0010304A881F8213084
:104C5000FFF770FC002871D1D7E903584022404685
:104C60000021FEF7BBFA4FF0000CC023852288F824
:104C7000203088F80020E1466046E34601214023C9
:104C80004FF0C10A019608EB030408F803A022467E
:104C900084F801B05FFA89FE00E02246131DA3EB01
:104CA0000803941C05EB400651B135F810100CF1C7
:104CB000010729B15FFA87FC0FFA8CF005EB40067B
:104CC000DF065180E9D1328809F10109002ADAD1E1
:104CD0007346023388F8013088F823C02846019EC5
:104CE000FEF7C8FFA8F8240030461BB0BDE8F08FDF
:104CF000062630461BB0BDE8F08F01212046FFF7A5
:104D0000EDFB06460028EFD1A16B3846FEF78EFB7F
:104D100006460028E8D101462022E06BFEF75EFA45
:104D200029460B22E06BFEF74FFA94F84B30E16B0B
:104D300003F0180301220B73FA70D5E70646D3E798
:104D4000914618E626F80C200146DDE60726CBE75B
:104D50004FECC44E89888888211001003007010873
:104D60002DE9F04FD0F800A085B007460E4611F8A7
:104D7000013B2F2BFAD05C2BF8D00021B960F961F0
:104D800030781F2840F25D815346D3F80C80751CA3
:104D9000A8F10209002480B22E4690B904254CB136
:104DA00008EB440232F8023D202B01D02E2B36D1E5
:104DB000013CF7D10023A8F80030062005B0BDE87B
:104DC000F08F40F2623100F0BFFE0028F5D01F28BE
:104DD000E4D92F280BD05C2809D07F2814D9162CB1
:104DE000EBD029F8020F013415F8010BD3E72B782B
:104DF0002F2B2E4605F10105F9D05C2BF7D01F2B88
:104E00008CBF00250425CAE72A28D6D0A34A3A2316
:104E10008342D2D012F8013F002BF9D1DFE7002303
:104E200028F81430B8F80010202908EB440208BF15
:104E3000414640F0B58031F8020F202803F101030C
:104E4000F9D045F00305EDB232F8021D2E2901D04C
:104E5000013CF9D10B22202107F140004FF000095D
:104E6000FEF7BCF9CB46082238F81300013348B3EB
:104E700020281FD02E2868D0914574D2A34266D036
:104E80007F2800F2AC802B2800F0E980DFF814C204
:104E90002C21814200F0E3801CF8011F0029F8D189
:104EA000A0F1410189B2192900F2EB804BF0020B0D
:104EB000C0B2AFE038F8130045F00305EDB201339E
:104EC0000028D5D197F84030E52B04BF052387F89B
:104ED0004030082A78D00BF00C030C2B4CD00BF090
:104EE0000303032B48D0A9070BD41BF0010F1CBFF1
:104EF00045F01005EDB21BF0040F1CBF45F008058E
:104F0000EDB287F84B503846FFF718FC97F84B3056
:104F100000283DD15A073FF551AFBB79DB0640F180
:104F2000A0809AF8001004293ED03A6B0AF13C03A5
:104F3000C2F30802134403295A8B04BF9B8A42EA36
:104F40000342BA603B6830781FE7A342B2D10B2A14
:104F500000F08B804FEA8B0B5FFA8BFB23460B2212
:104F60004FF0080980E70B2A7FD0A342F2D045F02A
:104F70000305EDB2A6D8EDE745F00205EDB287F8DE
:104F80004B503846FFF7DAFB97F84B300028C1D07A
:104F900004287FF413AF13F0040F08BF05200DE7BA
:104FA0002E297FF451AF4CE73B69FA79B968396231
:104FB00023F0FF031343FA6CDAF81000C7E9093253
:104FC0003946FEF7ADFEBDE74FEA8B0B5FFA8BFB70
:104FD0000BF00C030C2BCFD0A8078CD591E745F034
:104FE000020CCDE9023240F262315FFA8CF3019398
:104FF00000F084FD10F0800FDDE9023211D000F0E6
:105000007F002749085C002846D1019941F003053B
:10501000EDB25F2007EB090109F1010981F84000B9
:1050200022E7FF28EFD9511E894513D207EB09016A
:105030004FEA102C019D81F840C009F10109C0B26E
:10504000E8E78023384687F84B3005B0BDE8F04FDD
:10505000FEF7F4BB45F00305EDB2914604E7019578
:10506000D3E7052005B0BDE8F08F97F8403045F054
:105070000305E52BEDB27FF42EAF052387F8403012
:1050800029E7A0F1610189B2192997BF2038C0B280
:10509000C0B24BF0010BBDE7019DF4E659070108D2
:1050A000B00601086507010810B584B014460190E8
:1050B00003A800910391FEF75BF9002816DB0D4A67
:1050C00052F820300BB100211970019B0BB1002167
:1050D000197042F8203014B9204604B010BD0022E7
:1050E00001A96846FEF74CFE04B010BD0B2004B0C9
:1050F00010BD00BF240700202DE9F04F9BB00191A7
:10510000002800F08A8002F03F070446154603A9F4
:105110003A4601A8FEF734FE064628B10023236074
:1051200030461BB0BDE8F08F039B0199049304A89F
:10513000FFF716FE05F01C0370B99DF95B20002AED
:1051400070DB9DF8162063B112F0110F6CD16B0764
:1051500040F1C1800826E1E70BB1042868D006467B
:10516000DCE7D30662D4A80701D5D1075CD4039B42
:1051700013993A0748BF47F040079A6BC4E91221D8
:105180001A78042A00F09680032A08BF8A8A488B7E
:1051900008BF40EA0240A060CA6922610022626141
:1051A000D888236000210022002304F15005A0804C
:1051B00084F83070C4E90E2384F831106164284605
:1051C0004FF40072FEF70AF8BF06A9D5D4E90489A6
:1051D00058EA0903A4D0039BA168B3F80AA04FF0D2
:1051E000000B4FEA4A2ACB4508BFC245C4E90E89E5
:1051F0000AD376E001305BD0B8EB0A0869EB0B0903
:10520000CB4508BFC2456CD22046FEF785FA01287F
:105210000146EFD80226216480E7092630461BB0FC
:10522000BDE8F08F062679E7072677E7042675E7BD
:1052300004A8FFF78BFB47F0080700288FD1039ADB
:105240001378042B5CD00AF0A1F8139A039BC2F8E0
:105250000E00C2F816001978558B032904BF918AF5
:1052600045EA01452021D172139900224A8318781A
:10527000032800D18A8200220120CA61D870002D43
:105280003FF477AF04A82946D3F83880FEF722FB15
:1052900000287FF464AF41460398FEF7C7F8039AED
:1052A000013D556100287FF45AAF1399134660E71A
:1052B0000126B0E7089A18699DF81710069B23622B
:1052C00022F0FF02179B0A43C4E909232146FEF797
:1052D00027FD039B64E7039B29071A46B0D4139963
:1052E0004BE7C8F308020023134321643FF418AFCF
:1052F000039F3846FDF78EFF002834D102260DE7C4
:10530000106922602146FEF70BFD039B18691E22DF
:1053100002300021FDF762FF039B18691A22263034
:105320000021FDF75BFF039B1A69202111711D69A4
:105330000AF02CF8039BA8601B69012204A883F8DB
:105340002120FFF7F7F800287FF409AFA1680029B2
:105350003FF40DAF02462046FEF7BCFAA368039A5D
:10536000013B53619EE74FEA582242EAC952024488
:1053700062642946787801230AF0DCF800283FF4BB
:10538000CFAE0126CAE600BF2DE9F04F1F468BB015
:1053900000230E463B6009A915460446FEF700F8B7
:1053A0008246002874D194F831A0BAF1000F6FD171
:1053B00094F8303013F00103069300F0C780D4E96D
:1053C0000410D4E90E23B1EB020860EB03090021BD
:1053D000894508BFA84538BF4546002D58D0CDE9BE
:1053E000002304F150010591CDF81CA0DDE9000176
:1053F000C0F30803029300230393DDE90223134360
:105400006CD1DDF824B0019BBBF80A90410A09F188
:10541000FF3941EAC35119EA01096ED0216C58469F
:10542000FDF7F8FE002800F09480B5F5007F09EB49
:10543000000A31D34FEA5528BBF80A309BF8010027
:1054400009EB08029A4288BFA3EB0908434652467B
:1054500031460AF06FF800285CD194F93030002B07
:1054600061DB4FEA4828D4E90E23396812EB0809BA
:1054700043F1000A4A4653464144B5EB08053960FA
:10548000CDE900234644C4E90E23AFD1DDF81CA0CA
:1054900050460BB0BDE8F08F626C524518D094F9BD
:1054A00030309BF80100002B0CDA012305990AF03B
:1054B000BBF878BB94F83030099A03F07F0384F886
:1054C000303050780599012352460AF033F808BB72
:1054D000D4E90E23CDE90023C4F844A0009BC3F314
:1054E0000802C2F50078A845059B28BFA846991870
:1054F00030464246FDF768FEB5E7DDE90023134379
:105500001ED1A168012924D94B1C03D0DDF824B099
:10551000216484E7DDF818A00123504684F8313077
:105520000BB0BDE8F08F606CA0EB0A00404598D24C
:1055300006EB40204FF400720599FDF745FE90E719
:10554000216C2046FEF7E8F80146DBE74FF0070A3A
:105550009EE7022384F831309A4699E72DE9F04F0F
:105560009A4687B000230E46CAF8003005A91546B2
:105570000446FDF715FF8346002840F0908094F81C
:1055800031B0BBF1000F40F08A8094F830309A07B8
:1055900040F1F080059A1278042A03D0A26BEA4207
:1055A00080F0BB80002D76D004F15003D4E90E01C9
:1055B000CDE9023BB146C0F30803009300230193F9
:1055C000DDE9002313437AD1DDF814B0BBF80A807B
:1055D000430A08F1FF3843EAC15318EA030812D11D
:1055E00050EA010340F0A980A068002800F0AD80D7
:1055F000012800F0C280431C75D0A3682064DDF848
:1056000014B003B9A06094F93030002B73DB216C27
:105610005846FDF7FFFD002800F0AF80B5F5007F8C
:1056200008EB00063FD36F0ABBF80A309BF8010075
:1056300008EB07029A4288BFA3EB08073B463246B5
:10564000494609F0F1FF00284DD1616C891BB94230
:1056500065D37F02D4E90E01D4E9042310EB070BD4
:1056600041F1000CDAF80060634508BF5A453E443A
:10567000584661463CBF5A466346ED1BCAF8006077
:10568000B944C4E90E01C4E90423002D93D1DDF827
:105690000CB094F8303043F0400384F83030584672
:1056A00007B0BDE8F08F636CB342D4E90E0105D0BA
:1056B000D4E90423994208BF90424ED36664C0F3F4
:1056C0000800C0F50077029BAF4228BF2F46184460
:1056D0003A464946FDF778FD94F8303063F07F0391
:1056E00084F83030B6E701239B46584684F83130C1
:1056F00007B0BDE8F08F9BF80100626C02990123AE
:1057000009F092FF0028EED194F83030DDF814B0A3
:1057100003F07F0384F8303079E7D54342E709EBA3
:1057200041214FF400720298FDF74EFD94F830309D
:1057300003F07F0384F830308BE7216C2046FEF7BE
:10574000EFFC00287FF454AFA1E701462046FEF7A6
:10575000E7FC00287FF44CAF99E79BF80100029921
:105760000123324609F0E6FE0028BCD1D4E90E231D
:105770001046A3E74FF0070B91E7022384F831307E
:105780009B468CE7F0B599B001A90446FDF708FEE9
:10579000034698B994F8302012F040030ED0130657
:1057A0000FD409F0F3FD054601980378042B19D0B6
:1057B000A16CFDF73BFE0346002862D0184619B0E5
:1057C000F0BD019B626C587804F15001012309F08F
:1057D0002BFF002877D194F8303003F07F0384F852
:1057E0003030DEE72046FDF77DFF03460028E5D197
:1057F0004FF0FF33226C04F11C012046FEF7A2FAA1
:1058000003460028DAD1D4E909202768266A8DF8F2
:105810000F20014622F0FF02159002A8079309937A
:10582000069202970496FEF709F803460028C5D1B0
:1058300002A8FEF7E3FD03460028BFD101990869DD
:10584000027942F020020271E279086942F0010215
:1058500080F82120D4E904670A69A0685063C2E98E
:105860000E67D4E9046753750969D560C2E90A6710
:1058700002A80B61FEF75EFE034600289ED1019848
:1058800017E0E36CDA7A42F02002DA72A26821684B
:105890005A830978032908BF120C216908BF9A822C
:1058A000019AD961002001215882C3F81650104690
:1058B000D170FEF7FDF994F8302022F04002034643
:1058C00084F830207AE7012378E700BF10B582B072
:1058D0000446FFF757FF08B102B010BD01A92046EA
:1058E000FDF75EFD0028F7D1206002B010BD00BFBB
:1058F00030B585B00191002834D00446002203A9B8
:1059000001A8FEF73DFA18B10023236005B030BDB1
:10591000039B236001992046FFF722FAF0B994F91E
:105920004B30002B2FDBA379DB0619D5039B1A78AC
:10593000042A1AD0E06B032A418B04BF828A41EA11
:105940000241A160DB88A38000212046FDF776FF9D
:10595000042805D00028D7D105B030BD0428D3D104
:105960000520D1E7092005B030BD2269E179186929
:10597000A568256222F0FF03E26C0B43C4E90932FB
:105980002146FEF7CDF9039BDCE700BF10B582B0DE
:1059900001A90446FDF704FD00B9206002B010BD66
:1059A00070B582B00D4601A90446FDF7F9FC88B92F
:1059B00095B12046FEF72CFE10F0FB060AD12946D1
:1059C0002046FEF755F831462046FEF7B5FC042880
:1059D00008BF002002B070BD01462046FDF72EFF33
:1059E00002B070BDF8B50C46064601F11A0706E094
:1059F0007CB1A07E68B1306DFDF764FC48B92146EA
:105A00003046FFF7CDFF04230546024639460028FD
:105A1000EED02846F8BD00BF38B50D4603651146E7
:105A20000446FFF765FF00B138BD29462046BDE8B2
:105A30003840FFF7D7BF00BF10B5BCB002220190BD
:105A400003A901A8FEF79CF908B13CB010BD039B67
:105A50000199109310A8FFF783F90028F5D19DF95B
:105A60008B30002B37DB9DF84630DA0731D4039AB0
:105A700004921178042938D01F9A0329548B04BF4B
:105A8000928A44EA0244DB0619D5039B28942693A4
:105A90001B78042B07D1DDE90823CDE92A239DF8E3
:105AA00017308DF89F3026A80021FDF7C7FE00288B
:105AB000CBD126A8FEF7ACFD58B10428C5D110A85B
:105AC000FEF770FD0028C0D13CB90398FEF7F0F84E
:105AD000BBE70720B9E70620B7E70246214604A83E
:105AE000FDF7F8FE0028B0D1EFE7106904A9FEF732
:105AF00017F9069C9DF84630C5E700BF7F2801D8FE
