:020000040800F2
:1000000000010020C1000008111F00083588000809
:10001000451A0008451A0008451A0008451A000844
:10002000451A0008451A0008451A0008451A000834
:10003000451A0008451A0008451A0008451A000824
:10004000451A0008451A0008451A0008451A000814
:10005000451A00086504010885040108451A0008CE
:10006000451A0008451A0008451A00084504010809
:10007000F1FF0008451A0008451A0008E52D0008A0
:10008000451A0008451A0008451A0008451A0008D4
:10009000451A0008451A0008451A0008451A0008C4
:1000A000451A0008451A0008451A00085D2E000888
:1000B000451A0008451A0008451A00083D32000894
:1000C00072B6224880F30988022080F31488BFF3B7
:1000D0006F8F01F081FC03F005FA1D481D491E4A8F
:1000E000914202DA08600431FAE71C49174A91424A
:1000F00002DA08600431FAE719491A4A1A4B9A429F
:1001000004DA0868106004310432F8E70020174967
:10011000174A914202DA08600431FAE701F062FC02
:1001200001F05CFC134C144DAC4203DA21688847A3
:100130000434F9E708F01EFA104C114DAC4203DA12
:10014000216888470434F9E70E4908470003002076
:1001500055555555000000200001002000010020E9
:100160002C52010800030020D4030020D8030020F3
:10017000F83D0020C0000008C0000008C0000008D2
:10018000C0000008E1190008F0B544464D46564647
:100190005F46F0B46B46CB60C3689D46F0BCA0469A
:1001A000A946B246BB46F0BD62B6281CA047002057
:1001B00001F070FE01F00EFE014A024B1360FEE7F3
:1001C00004ED00E000000080002243088B4274D35D
:1001D00003098B425FD3030A8B4244D3030B8B4248
:1001E00028D3030C8B420DD3FF22090212BA030C51
:1001F0008B4202D31212090265D0030B8B4219D332
:1002000000E0090AC30B8B4201D3CB03C01A524151
:10021000830B8B4201D38B03C01A5241430B8B4299
:1002200001D34B03C01A5241030B8B4201D30B0382
:10023000C01A5241C30A8B4201D3CB02C01A5241A9
:10024000830A8B4201D38B02C01A5241430A8B426C
:1002500001D34B02C01A5241030A8B4201D30B0255
:10026000C01A5241CDD2C3098B4201D3CB01C01A6F
:10027000524183098B4201D38B01C01A5241430979
:100280008B4201D34B01C01A524103098B4201D367
:100290000B01C01A5241C3088B4201D3CB00C01AD4
:1002A000524183088B4201D38B00C01A524143084C
:1002B0008B4201D34B00C01A5241411A00D2014671
:1002C000524110467047FFE701B5002000F0F0F8FA
:1002D00002BDC0460029F7D076E7704703460B43BE
:1002E0007FD4002243088B4274D303098B425FD32F
:1002F000030A8B4244D3030B8B4228D3030C8B425B
:100300000DD3FF22090212BA030C8B4202D3121240
:10031000090265D0030B8B4219D300E0090AC30B15
:100320008B4201D3CB03C01A5241830B8B4201D3C2
:100330008B03C01A5241430B8B4201D34B03C01AAB
:100340005241030B8B4201D30B03C01A5241C30A23
:100350008B4201D3CB02C01A5241830A8B4201D394
:100360008B02C01A5241430A8B4201D34B02C01A7E
:100370005241030A8B4201D30B02C01A5241CDD223
:10038000C3098B4201D3CB01C01A524183098B426E
:1003900001D38B01C01A524143098B4201D34B0157
:1003A000C01A524103098B4201D30B01C01A5241BA
:1003B000C3088B4201D3CB00C01A524183088B4241
:1003C00001D38B00C01A524143088B4201D34B002A
:1003D000C01A5241411A00D201465241104670479C
:1003E0005DE0CA0F00D04942031000D340425340A1
:1003F00000229C4603098B422DD3030A8B4212D361
:10040000FC22890112BA030A8B420CD38901921192
:100410008B4208D3890192118B4204D389013AD0CF
:10042000921100E08909C3098B4201D3CB01C01AA4
:10043000524183098B4201D38B01C01A52414309B7
:100440008B4201D34B01C01A524103098B4201D3A5
:100450000B01C01A5241C3088B4201D3CB00C01A12
:10046000524183088B4201D38B00C01A5241D9D22A
:1004700043088B4201D34B00C01A5241411A00D2AB
:100480000146634652415B10104601D34042002BA7
:1004900000D54942704763465B1000D3404201B526
:1004A000002000F005F802BD0029F8D016E77047DB
:1004B0007047C0468446081C6146FFE71FB500F040
:1004C0006BFC002801D40021C8421FBD10B500F00C
:1004D000EFFB4042013010BD10B500F05DFC00287C
:1004E00001DB002010BD012010BDC04610B500F09A
:1004F00053FC002801DD002010BD012010BDC046C6
:1005000010B500F0FDFB002801DC002010BD01202B
:1005100010BDC04610B500F0F3FB002801DA002042
:1005200010BD012010BDC046002B11D1002A0FD1F3
:10053000002900D1002802D00021C943081C07B4BB
:10054000024802A14018029003BDC04665FFFFFFAC
:1005500003B4684601B5029800F048F8019B9E4636
:1005600002B00CBC7047C046F0B5CE4647461504F5
:100570002D0C2E0080B50704140C3F0C9946030C7B
:100580007E435D43674363437F19340CE4199C4603
:10059000A54203D980235B029846C4444B4643439B
:1005A0005143250C36046544360C2404A4195B1908
:1005B000591820000CBC90469946F0BD9E2110B5FC
:1005C000C905041CFFF7A6FF002803D1201C00F07A
:1005D000E7FE10BD9E21201CC90500F03DFD00F086
:1005E000DFFE80231B069C466044F2E7F0B55746C9
:1005F0004E464546DE46E0B5040083B00D00924607
:1006000099468B4230D82DD04946504601F06AF8C1
:1006100029000600200001F065F8331A9846203BB7
:100620009B4633D45A465346934042461F00534696
:1006300093401E00AF423AD8AF4200D17BE05B4608
:10064000A41BBD41002B00DA78E0002200230092B9
:10065000019301235A46934001930123424693405C
:10066000009328E08242CFD9002200230092019318
:100670000C9B002B01D01C605D600098019903B0B9
:100680003CBC90469946A246AB46F0BD424620236C
:100690009B1A5246DA40414613004A468A401700E8
:1006A00042461F43534693401E00AF42C4D9002226
:1006B0000023009201934346002BD9D0FB079C46B0
:1006C000614672080A437B0846460EE0AB4201D100
:1006D000A2420CD8A41A9D41012024196D41002189
:1006E000013E24184D41002E06D0AB42EED9013E0A
:1006F00024196D41002EF8D1009801995B4600192C
:100700006941002B25DB2B005A464446D3402A0082
:10071000E2401C005B461500002B2BDB26005F46E9
:10072000BE40330026004746BE403200801A994141
:10073000009001919CE7A342B9D880E7424620236C
:1007400000219B1A0022009101920122DA400192BD
:1007500083E7424620239B1A2A0046469A402300FC
:10076000F340444613432A00E2401C005B46150058
:10077000002BD3DA2023424626009B1ADE402F00AE
:10078000B4464646B74066463B003343CAE7C046D8
:10079000F8B54C02640A4746A0464C00C90FCE4645
:1007A00089464146430246005B0A360E240E80B558
:1007B000C50F9C463200D800C900371B4D4560D09C
:1007C000002F48DD002C00D17CE0FF2E00D183E01B
:1007D0008023DB04194301231B2F07DC0B0020229D
:1007E000FB40D71BB9404A1E91410B43C31A5A0123
:1007F00000D4B2E09B019C09200000F055FF0538B1
:100800008440864200DDB1E0861B220020200136B4
:10081000F240861BB44023005C1EA3410026134314
:100820005A0704D00F221A40042A00D004335A0178
:1008300000D495E00136F2B2FF2E00D193E09B0187
:100840005B0A5B02D205580AED07104328430CBC33
:1008500090469946F8BD002F49D1FE24771C3C42B2
:1008600000D087E0002E00D0DBE0002800D1CEE0F1
:100870000029E6D0431A5C0100D4EEE00B1A4D4685
:10088000CEE7002F54DD002C3FD0FF2E24D0802354
:10089000DB04194301231B2F07DC0B002022FB4044
:1008A000D71BB9404A1E91410B431B185A0154D51E
:1008B0000136FF2E57D001226F491A405B080B40CA
:1008C0001343ADE700292CD0013F431A002F00D17C
:1008D0008DE7FF2E00D07EE76346002B43D08023B8
:1008E0006246DB0313435B025B0AFF22A9E7A21BFC
:1008F000002E61D1002811D0013A002A00D1B2E0C7
:10090000FF2C5ED14D46C446E6E7002909D0013FE1
:100910004318002FCAD0FF2EBCD1DDE74D46C44698
:100920002600FF2ED8D063465B025B0AF2B288E74E
:10093000002F29D1FE24013634426DD1002A55D131
:10094000002800D193E0002900D17AE7431800265F
:100950005A0102D5494A013613405A0700D061E7CF
:10096000DB089C46DDE7FF2200236AE7434B361A8B
:10097000234055E7441A63015DD4002C00D03BE7C7
:100980000025002200235CE7A21B002E28D10028AE
:10099000C5D0013A002A6CD0FF2CB4D001231B2A09
:1009A00007DC03002026D340B21A9040421E90413B
:1009B00003435B18260079E7FF2CA3D08023DB04D8
:1009C000184301231B2A07DC03002025D340AA1A61
:1009D0009040421E90410343CB1A4D46260006E745
:1009E000FF2C90D08023DB041843D7E700288AD05F
:1009F000002900D170E780236246DB031A4200D150
:100A00006AE742461A4200D066E7C44664E7002916
:100A100026D04D46434614E7FF2EA4D043185B086A
:100A20009BE700280AD1002900D06BE7802300252E
:100A3000DB03FF2205E70C1A4D46DDE6002900D155
:100A40004AE780236246DB031A4200D144E742466C
:100A50001A4200D040E74D4655E7002B00D07CE716
:100A600000250023EDE60B1A4D462600BFE643465F
:100A7000E7E64318260019E7FFFFFF7DFFFFFFFBB6
:100A8000F0B54F464646D64644024500C0B5640A16
:100A90000F1C2D0EC60F002D4FD0FF2D55D08023DB
:100AA000E400DB041C43002399469A467F3D7B0209
:100AB00078005B0A9846000EFF0F002831D0FF280F
:100AC00010D08022DB00D2041A43904600217F38E8
:100AD0002D1A4B4632000B4371489B00C3587A4095
:100AE000D2B29F46FF3D002B54D102234946194301
:100AF00032000B007A40033BD2B20C2B04D8694978
:100B00009B00CB589F463A00002000246402C30596
:100B1000600AD207184310431CBC90469946A2466F
:100B2000F0BD002B2BD101234946320019438B0025
:100B30005D497A40CB58D2B29F46002C13D1042392
:100B40009946033B00259A46B1E7002C05D10823BE
:100B50009946063BFF259A46A9E70C239946093B8F
:100B6000FF259A46A3E7200000F09EFD7625431F4F
:100B70009C4000236D422D1A99469A4697E718002B
:100B800000F092FD4246431F9A402D18904676355C
:100B900000219EE703219CE717003A00FF20002474
:100BA000B4E780240022E403FF20AFE7320053467D
:100BB000022BF1D0032B6CD0012BA5D028007F3065
:100BC000002846DD630704D00F232340042B00D008
:100BD0000434230103D52800344B80301C40FE2808
:100BE000DCDCA401640AC0B290E78023DB031C4272
:100BF00027D042461A4224D144461C436402640A68
:100C00003A00FF2082E73A0044468A46CFE7414651
:100C100063014C01A34235D21B200021013D012775
:100C20001E0049005B00002E01DB9C4201D81B1B0B
:100C3000394301380028F3D11C00631E9C410C434A
:100C4000BCE78023DB031C436402640A3200FF20FC
:100C50005CE70123181A1B2800DD55E79E352300A9
:100C6000AC40C340611E8C411C43630704D00F237A
:100C70002340042B00D00434630107D4A401640A88
:100C8000002043E71B1B1A200121C8E70120002494
:100C90003CE78023DB031C436402640AFF2035E742
:100CA000B40B0108F40B0108280C0108FFFFFFF743
:100CB00070B542004E024C0045026D0A120EC30F81
:100CC000760A240EC90FFF2A0FD0FF2C11D0012065
:100CD000A24200D070BDB542FCD18B420DD0002A9B
:100CE000F8D12800451EA841F4E70120002DF1D1DC
:100CF000EBE70120002EEDD1E9E70020EAE7C0464E
:100D0000F0B5420046024D024C00C30F760A120EA7
:100D10006D0A240EC80FFF2A1FD0FF2C10D0002A06
:100D20001FD171427141002C01D1002D1ED000292C
:100D30000ED183421ED00221581E08400138F0BD5A
:100D4000002D26D1002AF4D1714271410029F0D042
:100D50000028F4D101204042F1E7002E19D1FF2CE8
:100D6000EED0002CE5D1002DE3D1E4E70020002EE9
:100D7000E5D0E0E7A24205DCEADBAE4202D8E7D3E9
:100D80000020DCE74142414148420221084001384D
:100D9000D5E702204042D2E7F0B5420046024D02BC
:100DA0004C00C30F760A120E6D0A240EC80FFF2ADC
:100DB0000DD0FF2C0FD0002A23D171427141002C9D
:100DC0000FD1002D0DD10020002E14D00DE0002EEB
:100DD00010D1FF2C15D1002D0CD1002A03D1714266
:100DE0007141002908D1834210D00221581E0840C9
:100DF000013800E00220F0BD0028FCD10120404273
:100E0000F9E7002CEFD1002DEDD1EEE7A24205DC91
:100E1000F2DBAE4202D8EFD30020ECE74142414181
:100E20004842022108400138E5E7C046F0B54F4688
:100E30004646D64644024500C0B58846640A2D0E93
:100E4000C70F002D49D0FF2D4FD08023E400DB04D5
:100E50001C43002399469A467F3D434642465E0224
:100E6000D20F5B00760A1B0E904646D0FF2B12D0A5
:100E700080220020F600D2047F3B1643ED186A1C46
:100E8000434694464A467B400F2A00D974E0704995
:100E900092008A589746FF35002E54D14A460223C5
:100EA0001A4391460220EAE74346340082465246FE
:100EB000022A2AD0032A00D1C3E0012A00D082E00E
:100EC000002200246402D205600ADB0710431843A5
:100ED0001CBC90469946A246F0BD002C27D10423A5
:100EE0009946033B00259A46B7E7002C19D1082301
:100EF0009946063BFF259A46AFE7002E08D14A46A1
:100F000001231A4391460120B9E7FF220024D9E7C3
:100F1000300000F0C9FB431F2D1A9E40763D002093
:100F2000ADE70C239946093BFF259A4695E720003B
:100F300000F0BAFB7625431F9C4000236D422D1A1A
:100F400099469A4689E74A4603231A439146032065
:100F500095E73B00ABE780240023E403FF22B1E7E1
:100F60008023DB031C4245D01E4243D133435C0245
:100F7000640A4346FF22A5E7200C2404210C0F003D
:100F8000320C3604360C774351434643504389199B
:100F90003A0C5218964203D98021490288464044AF
:100FA0003F0411043F0CC9198C01661EB441890E1F
:100FB0002143140C2418A4010C4322013CD5012226
:100FC000610814400C4360467F3000281ADD620738
:100FD00004D00F222240042A00D00434220103D579
:100FE00060461C4A80301440FE288EDCA401640A4E
:100FF000C2B267E78020C00304436402640A3B0076
:10100000FF225FE70122101A1B2800DD58E7624625
:101010009E3221009440C140621E94410C436207FD
:1010200004D00F222240042A00D00434620105D4E7
:10103000A401640A002245E7AC46C4E7012200246B
:1010400040E78022D20314436402640AFF2239E796
:10105000600C0108FFFFFFF7F8B543025B0ADA00F6
:10106000DE4693464A02520A454690464E46574649
:101070004446E0B54A0047003F0EE400120EA14688
:101080009C463E00C50FC90FBC1AFF2A00D177E06D
:1010900001208246504641408D4200D180E0002C24
:1010A00051DD002A00D073E04B46002B00D1DDE07B
:1010B000013C002C0FD0FF2F00D1A5E001231B2CF9
:1010C00009DC20224946121B91404B460A00E340AE
:1010D000511E8A4113435A46D31A5A0100D4C0E024
:1010E0009B019C09200000F0DFFA230005388340B3
:1010F000864200DDC4E0861B1A0020200136F24043
:10110000861BB3405C1EA341002613435A0704D03C
:101110000F221A40042A00D004335A0100D4A3E05D
:101120000136F7B2FF2E00D1A7E09B015B0A5802FF
:10113000FF05400AED07384328433CBC90469946DA
:10114000A246AB46F8BD002C4FD1FE247A1C1442B7
:1011500000D099E05A46002F00D000E1002A00D1CB
:10116000F1E04A46002AE2D04B465A46D31A5A01C9
:1011700000D402E14B465A460D009B1A0026C5E7F3
:101180004846002800D183E78D4251D0002CDADD9B
:10119000FF2F39D080234A46DB041A4391468DE75E
:1011A000002C45DD002A3AD0FF2F2DD080234A465F
:1011B000DB041A43914601231B2C09DC20224946FB
:1011C000121B91404B460A00E340511E8A411343D3
:1011D0005B445A0145D50136FF2E4ED001226E499F
:1011E0001A405B080B40134390E7D41B0D00002FFF
:1011F0006FD15B46002B00D18FE0013C002C00D169
:10120000C2E0FF2A6CD1C4466346002B35D0802350
:101210006246DB0313435B025B0AFF2787E74B460B
:10122000002B23D0013C002C74D0FF2FC3D1EBE75F
:10123000002C35D1FE227E1C324200D089E05A4675
:10124000002F6DD1002A00D1A3E04A46002A00D128
:101250006DE75B464B4400265A0102D54F4A0136E2
:1012600013405A0700D053E7DB089C46FF2ECBD033
:1012700063465B025B0AF7B259E7FF27002356E794
:10128000464A361A134041E74B465A46D41A630180
:101290006FD4002C00D025E700250027002346E767
:1012A000D11B002F2CD0FF2AADD080235846DB0461
:1012B0001843834601231B2908DC5B46202458463B
:1012C000CB40611A8840411E884103434B441600BD
:1012D0007FE7FF2A97D080235946DB0419438B46CA
:1012E00001231B2C08DC20215B465846E3400C1BE5
:1012F000A040411E8841034349461600CB1AECE644
:101300005B46002B09D001390029DFD0FF2AD1D15B
:10131000C44679E75B464B445BE7C4461600A5E745
:10132000002A00D16FE74A46002A00D16CE78022EC
:10133000D203134200D167E74346134200D063E76C
:101340000D00C44660E74B46002B1AD00D00434603
:10135000EDE6FF2E91D05B464B445B0881E7002A07
:10136000E1D14B46002BEBD180230025DB03FF2787
:10137000DDE64B460D009C1AB4E60026002B00D09B
:101380006FE700250023D2E64B46594616005B1A4C
:10139000A3E64346CBE6C046FFFFFF7DFFFFFFFB12
:1013A00041024200C30F490A120E00207E2A03D9CF
:1013B0009D2A02D9094A98187047802000040143E9
:1013C000952A07DC9620821AD1404842002BF3D19F
:1013D0000800F1E7963A9140F7E7C046FFFFFF7F2C
:1013E00070B5002812D0C317C5185D40C40F28007F
:1013F00000F05AF99E22121A962A11DCD2B208285D
:1014000033DD083885406802400A02E000240022EB
:1014100000204002D205400AE4071043204370BD7B
:10142000992A0BDD052329001B1AD94003001B3321
:101430009D402B005D1EAB4119430D00052801DDC9
:10144000431F9D402B000A490B406E0709D00F2611
:101450003540042D05D004335D0102D59F220B4099
:10146000121A9B01580AD2B2D3E76802400AD0E7A9
:10147000FFFFFFFB70B5041E0DD000F015F99E2292
:10148000121A962A0EDCD2B208282EDD08388440C3
:101490006002400A01E0002200204002D205400A1A
:1014A000104370BD992A09DD030021001B339940C8
:1014B0004B1E994105231B1ADC400C43052801DD16
:1014C000431F9C4023000A490B40650709D00F25A4
:1014D0002C40042C05D004335C0102D59F220B4024
:1014E000121A9B01580AD2B2D7E76002400AD4E729
:1014F000FFFFFFFB70B541004602C40FFE20090E3E
:101500004B1C750A184214D0E0239B006D07360B64
:10151000CB1800210A0D280012051C4D32435B0533
:101520002A405B0813435B00E4075B082343190070
:1015300070BD002914D1002D1ED0280000F0B4F891
:101540000A281CDC0B232A001B1ADA40030015337F
:101550009D400F4B12031B1A5B05160B5B0DD8E762
:10156000002D06D0320B802636036D071643094B3B
:10157000CFE7084B0026CCE700230026C9E703008D
:101580002A000B3B9A400025E3E7C046FFFF0F808F
:1015900089030000FF0700004A00F0B50B03520D5D
:1015A0003D4D5B0A470F561CC90F1F43C4002E4216
:1015B00028D03A4BD518FE2D08DDFF22002040022E
:1015C000D205400AC90710430843F0BD002D2DDDA8
:1015D00080010200501E8241FB00640F134323432D
:1015E0005A0757D00F221A40042A00D00433802211
:1015F000D2041A404ED00135EAB2FF2DDDD09B0156
:10160000580ADCE73C43002A06D1002C0BD0052306
:101610009B01580AD2B2D2E7002CCED08020C00362
:101620003843FF22CBE700220020C8E72B00173306
:1016300022DB80231E261B043B43761B1F2E1DDD51
:1016400002204042451B1800E8400500202E04D02F
:1016500013488446624493401C4323005C1EA3410C
:101660002B4300255A07BDD18020C0041840012219
:10167000A842C4D10200CBE70022C8E709481018ED
:1016800022008440250083406C1EA541F2402B437C
:101690001343E6E72A00BBE7FE07000080FCFFFFDC
:1016A000A2FCFFFF82FCFFFF1C2101231B049842C8
:1016B00001D3000C10391B0A984201D3000A0839E3
:1016C0001B09984201D30009043902A2105C40189A
:1016D0007047C0460403020201010101000000003E
:1016E0000000000010B5002903D1FFF7DDFF203016
:1016F00002E0081CFFF7D8FF10BDC04630B5032A32
:101700000CD903000B439B071CD103680C68A34250
:1017100018D1043A04300431032AF6D8551E002AA1
:101720000ED002780C7894420ED101350123013994
:1017300004E0C25C0133CC5CA24205D1AB42F8D1DB
:10174000002030BD551EECE7101BFAE7F0B5C64689
:1017500000B50F2A43D90B00032603431E400C009B
:101760000300002E40D11500103D2D09AC462D017F
:10177000A846804400E03B00676825685F60E76832
:101780001D60DF601F00A56810379D601034434561
:10179000F1D165460F230C2401352D014919134061
:1017A0004519144223D08C59AC5104369C1B032C90
:1017B000F9D80324043B9B0801339B002240ED1819
:1017C000C918561E002A07D0002300E02300CA5C77
:1017D0005C1CEA549E42F9D104BC9046F0BD050061
:1017E000561E002AF0D1F7E7561E0500ECE71A0056
:1017F000F6E7C046F0B5050083074AD0541E002A1C
:1018000044D0CEB20300032202E00135013C3DD3B7
:1018100001332E701342F8D1032C2FD9FF220A4036
:10182000150215432A0415430F2C35D92700103F04
:101830003F093E01B4461E001A001036664415608A
:1018400055609560D5601032B242F8D10F260C2257
:1018500001373F012640DB193700224217D03E1FD7
:10186000B608B400A4461A001C1D644420C2A2425B
:10187000FCD103240136B6009B193C40002C05D056
:10188000C9B21C19197001339C42FBD1F0BD340060
:10189000F4E714000300BFE72700E0E70323CAB220
:1018A000F0B50340002A39D0002B0ED00378002B6E
:1018B00057D09A4231D0032404E00378002B50D053
:1018C00093422AD001302042F7D1FF2529400D0252
:1018D00029430D040D432C000168234E4C408B1905
:1018E0008B43A119A143214E0B4333420BD104304A
:1018F00001681D4F0C00CB196C408B43E119A143CB
:101900000B433342F3D00378002B04D129E001309C
:101910000378002B25D09A42F9D1F0BD002B0AD0D4
:101920000378002BF9D0032202E00378002BF4D0D7
:1019300001301042F9D102680B4B0C49D318934384
:101940000B4206D104300268074BD31893430B4275
:10195000F8D00378002BE0D001300378002BFBD1C6
:10196000DBE70020D9E7C046FFFEFEFE80808080D6
:1019700010B5830727D00378002B26D0030003215E
:1019800002E01A78002A1CD001330B42F9D1196801
:101990000F4A104C8A188A4322420FD10433196827
:1019A0000B4A8A188A43224208D104331968084A2C
:1019B0008A188A432242F1D000E001331A78002AC3
:1019C000FBD1181A10BD0300E1E70020FAE7C0467A
:1019D000FFFEFEFE808080807047C0467047C04694
:1019E000FEE7C04680229446F0B50025104E114C0B
:1019F0001149124B1248B44499420DD91A0080C8BB
:101A000080C29142FBD80139C91A89080131890085
:101A10005B189C4202D920C39C42FCD81036664514
:101A200004D030687368B168F468E5E7F0BDC0467B
:101A3000A00C0108F83D0020F83D0020F83D0020F2
:101A400000530108FEE7C046FEE7C04610B500F0AF
:101A5000EFF800F069F80B4C80220B49200000F0F1
:101A6000BDF90A4B283C206103610123084A037534
:101A7000136A08490B40136262B6074800F0CAF9BE
:101A800010BDC046B0040020200D01080001002058
:101A900000ED00E0FFFF00FF280D010872B6014BCA
:101AA0005862FEE788040020F8B58026CE464746F7
:101AB0001B4DF6056C69726A286AA36880B5111A15
:101AC00099421DD32F000022143790460AE062B6D7
:101AD0002069C84772B66C69726A286AA368111ACD
:101AE0008B420DD8E268C318914642462B622368A8
:101AF0005F606B61E260BB42E9D100F049FAE6E762
:101B000008498C4206D01818801A022806D380187B
:101B100000F044FA0CBC90469946F8BD0220F6E766
:101B2000880400209C040020054B1A0014325A61DE
:101B30009A6101225242DA6100221A627047C0465D
:101B40008804002070B503618023DB050500C260B6
:101B5000586A022900D20221164E320073691432EB
:101B600093421DD0326A0818841A9A68A24203D997
:101B700011E01B68A41A9A68A242FAD35A682B6033
:101B80006A6015605D60AC609A68141B9C600123FC
:101B90005B42F36170BD00F001FA73699A68EBE78C
:101BA00030627561B56108182B606B60A96000F048
:101BB000E7F9EFE7880400201C4B10B5596902686B
:101BC00081420ED0416814330A60026851600021DE
:101BD000C1609A4204D0916883688C4663449360E4
:101BE00010BD1800002414305A615060CC6082424D
:101BF00018D0886891681B6A8C4660449060802287
:101C0000D205526AD11A8842EAD99B1A18180228BA
:101C100003D3801800F0C2F9E2E70220801800F038
:101C2000BDF9DDE700F0B4F9DAE7C046880400202A
:101C30000022024B1B605B609A60704788040020A2
:101C4000002382680375054B1B6899689142FBD29B
:101C50005A68036042601060586070478804002032
:101C600010B572B6037D032B0AD0042B0CD0002BC9
:101C700004D001235B428361FFF7E2FF62B610BD2F
:101C8000002283691A60F4E74268036813605A60AF
:101C9000EFE7C046002382680375054B1B6899680F
:101CA0009142FBD85A6803604260106058607047E8
:101CB0008804002070B50C4C2569287520680368DD
:101CC0005C602360012320610375EFF309832A69B7
:101CD000243B9A4203D82900FEF756FA70BD034808
:101CE000FFF7DCFE2069F6E788040020480D0108B4
:101CF00030B5050087B04B1C12D00B4C0B4A236942
:101D000001A8FFF71FFF2800FFF7D4FF049B002B5B
:101D100002D001A8FFF750FF2369986907B030BDD2
:101D2000FFF7C8FF004CF7E788040020611C00089B
:101D300070B504000F4DA3682869A16182689342C1
:101D400003D82000FFF77CFF70BDFFF779FF012368
:101D500006002C612375EFF309830269243B9A4244
:101D600004D831002000FEF70FFAEDE70248FFF734
:101D700095FEF6E788040020480D0108044B1A6917
:101D8000196890688B689842804140427047C0460D
:101D90008804002070B50D4C236820691A685460CF
:101DA000226001221A752361FFF774FF0500EFF32B
:101DB00009830269243B9A4204D829002069FEF76E
:101DC000E3F970BD0248FFF769FEF6E788040020DA
:101DD000480D010810B5FFF7DDFF10BD022382603A
:101DE00083827047836841681A00203A1161016953
:101DF000443BD36019614169596105491962C3685F
:101E00001000936002231375002353757047C0467A
:101E1000A90100084368826810B5934204D2552195
:101E2000197001339A42FBD172B6FFF7DBFF002134
:101E30000400FFF77DFF62B6200010BD70B54518A5
:101E4000A84205D20400552626700134A542FBD1D4
:101E500072B620394418210024392061E1600B61F9
:101E6000049B20004B61054B0B620223A260A382FE
:101E70000021FFF75DFF62B6200070BDA9010008D8
:101E800010B5034B1B6998610F20FFF713FF10BDBE
:101E90008804002010B572B6FFF7F2FF10BDC046EF
:101EA00010B5010072B60820FFF722FF62B610BD20
:101EB00010B500290AD0074B42681B6918605A60A8
:101EC000136043600420FFF713FF10BD0120404260
:101ED000FBE7C04688040020036810B5984206D08E
:101EE0001A680260506099611800FFF7A9FE10BDE2
:101EF00070B5040000680D00844208D003682360B8
:101F00005C608561FFF79CFE20688442F6D170BD5D
:101F100080B500AFEFF30983203383F3098862B6FD
:101F2000BD4680BDB0B500AF0F300ED072B6EFF336
:101F30000984203C84F3098880235B04E361FFF774
:101F40001DFF002803D0034BA361BD46B0BD024B6B
:101F5000A361FAE7B5010008B801000810B500F068
:101F6000DBFE00F0F3FA00F0B1FC00F097FB01F0AB
:101F7000D7FA00F001F810BD10B500F045FF10BD14
:101F800080230022DB0558631A610232DA60704751
:101F900080230022DB05DA607047C0468023DB0522
:101FA00058637047C3681960826801328260826931
:101FB000944642696344C360934201D3036AC36099
:101FC0007047C04630B51D00002404325543C3613C
:101FD000039B4D19C362049B4561006040608460AF
:101FE0000161C1608261016244628462036330BD49
:101FF0000023022110B5026A83600261C26043625D
:1020000083624942FFF774FF10BDC04610B504005B
:10201000FFF7C8FF00212000FFF75EFF10BDC0469C
:10202000836810B50400002B07D000202269131D1F
:10203000126863629B18A36210BDFFF739FF002886
:10204000FAD1F2E7826983689446013B83600369B1
:102050004269634410B50361934201D3036A03618B
:1020600000234362C36A002B00D0984710BDC046CE
:1020700070B5040072B6436A002B0CD0A26A1D78BA
:1020800001336362934202D262B6280070BD200021
:10209000FFF7D8FFF8E7FFF7C3FF051EF4D1636A27
:1020A000ECE7C046F8B5CE464746040080B5894601
:1020B0001700984672B6002515E0A36A7E1B5B1ACE
:1020C0009E4200D91E0032004846FFF73FFB636A7C
:1020D000A26A9B196362AD19934202D32000FFF7F5
:1020E000B1FFAF420AD9616A0029E6D1414620001A
:1020F000FFF796FF002801D1616ADEE762B628008B
:102100000CBC90469946F8BDC3680269934201D061
:10211000181D704782680020002AFAD1F8E7C046EF
:102120008368002B03D0006908C80B60704700204B
:10213000FCE7C046826983689446013B836003697B
:102140004269634410B50361934201D3036A03619A
:102150000021FFF7C1FE10BDC368026910B504007D
:10216000934207D01A1D6262A2690020944663441C
:10217000A36210BD8268002AF4D0FFF799FE002800
:10218000F7D1E368EEE7C04610B50400FFF70AFF99
:1021900000236362E36A002B01D02000984710BD42
:1021A00070B504000D0072B6436A002B0FD01D708D
:1021B000636AA26A01336362934202D262B600206C
:1021C00070BDA3692000191FFFF7DEFFF6E71100BD
:1021D000FFF7C2FF002801D1636AE8E762B6EFE7C4
:1021E000F8B5CE464746040080B5894617009846A4
:1021F00072B6002518E0A36A7E1B1B1A9E4200D906
:102200001E004B4632005919FFF7A0FA636AA26A12
:102210009B196362AD19934204D3A3692000191F6F
:10222000FFF7B2FFAF420AD9606A0028E3D1414606
:102230002000FFF791FF002801D1606ADBE762B65A
:1022400028000CBC90469946F8BDC046836870B51E
:1022500004000025002B06D1416A002903D0C36881
:102260000439C91A01D1280070BDFFF79BFE6562D1
:102270000135F8E703000269C169013A02614A1CAD
:10228000C261C068405C59698A4201D30022DA61A8
:102290007047C04603690133036183695A1C826138
:1022A000C268D15483694269934201D30023836198
:1022B0007047C04610B50024006040600461C160F2
:1022C000C46184614261836010BDC0460023022165
:1022D00010B5C361836103614942FFF709FE10BD78
:1022E0000369426910B50400934207D2FFF7D2FF99
:1022F00020000021FFF7F0FD002010BD012040422A
:10230000FBE7C04670B5040072B60369002B0BD022
:102310002000FFF7AFFFA3680500002B01D02000CD
:10232000984762B6280070BDFFF7C2FD051EF8D1C0
:10233000EEE7C046F0B54E46DE4657464546E0B5A8
:1023400083B0040000919146019372B6002711E01A
:102350002A004046FFF7FAF9E369EE182369E661BF
:102360005B1B23617F19A368002B01D020009847D5
:10237000B9452DD92369002B22D04A46D51B9D4251
:1023800000D91D00002DEED0009B9846B844012DC9
:1023900027D06369E6699B469B1B9A46E3689919B7
:1023A0005545D5D352464046FFF7D0F95B464046E7
:1023B000F61A761950443200E168FFF7C7F9CDE705
:1023C00001992000FFF774FD002801D12369D4E7AB
:1023D00062B6380003B03CBC90469946A246AB4674
:1023E000F0BD2000FFF746FF434601371870BAE7FB
:1023F00070B504000D0072B6036941698B420BD2BF
:1024000029002000FFF746FFA368002B01D0200021
:102410009847002062B670BD1100FFF749FD002803
:10242000F8D1EDE7036970B50400002B08D0FFF781
:1024300021FF002105002000FFF74EFD280070BDA0
:1024400001256D42FAE7C046F0B55746DE464E46D6
:102450004546E0B583B0040000919246019372B600
:102460000027B84611E02A004946FFF76FF9A36933
:10247000EE182369A6615B192361A844A368002BA9
:1024800001D020009847C2452ED923696769BB4215
:1024900021D252464146FB1A551A9D4200D91D00D1
:1024A000002DEBD0009B43449946012D25D0A66911
:1024B000BB1B9B46E36898195D45D4D35A464946F1
:1024C000FFF744F94946F61B761959443200E06893
:1024D000FFF73CF9CDE701992000FFF7E9FC002860
:1024E00002D167692369D4E762B6404603B03CBCB9
:1024F00090469946A246AB46F0BD19782000FFF7FA
:10250000C9FE01239C46E044B8E7C046012110B54E
:1025100008304942FFF7F6FE10BDC046012210B553
:1025200028305242FFF764FF10BDC046012310B5AA
:1025300008305B42FFF7FEFE10BDC046012310B518
:1025400028305B42FFF780FF10BDC04610B500F099
:10255000C9FC10BD70B515000A4A0B0002600100ED
:10256000012204000271483108303F32FFF7A2FE19
:10257000210020002B00883128304022FFF79AFEEE
:1025800070BDC046580D010810B5040072B600F0C9
:10259000D3FC0223237162B610BDC04630B59E2520
:1025A000046B6D00625983B013681978042902D155
:1025B0002179022901D003B030BD117901228A406E
:1025C0001B891342F7D1200001A93C30FFF7A8FD79
:1025D000021EF0D0635919791868019B00F0CCF9FC
:1025E000E9E7C04670B59E256D00425904001368A6
:1025F0001978042902D10179022901D0012070BD86
:10260000517901228A405B891342F7D10830FFF7E4
:102610007BFD021EF2D0635918685979402300F0FF
:1026200099F90020EBE7C04610B5006BFFF7DAFF21
:1026300010BDC046012110B508304942FFF718FD12
:1026400010BDC0469E235B00C35810B51B681B78A5
:10265000042B05D101223C305242FFF7A1FD10BDF1
:1026600002204042FBE7C046012310B508305B4220
:10267000FFF718FD10BDC04603009E20400018580B
:1026800010B5006804780020042C00D010BD3C3345
:10269000180001235B42FFF7A3FDF7E77047C04630
:1026A0000E4B10B5036001230400010003710C4BB5
:1026B00082B0009370310830019401234022FFF76B
:1026C00081FC21002000074BB43100933C30019481
:1026D00002234022FFF776FC02B010BD780D0108FE
:1026E000292600089D2500080A6872B60B7909336F
:1026F0009B00D31858604B7911339B0098508B790D
:10270000002B03D009339B00D21850609E235B003E
:10271000C1503B3BFF3B037162B6704710B50400EC
:102720000830FFF765FC20003C30FFF761FC10BD6E
:1027300010B504000830FFF75BFC20003C30FFF7C9
:1027400057FC2000FFF74EFF10BDC0467423C15C4C
:10275000143B02000B400020202B00D07047553363
:10276000D35C202BFAD3212B05D8064B012093668E
:102770000723D366F2E7222BF0D19066D0660120C2
:10278000ECE7C0460003002070B59E256D0042595D
:1027900082B0136804001978042902D10179022952
:1027A00001D002B070BD117901228A401B89134209
:1027B000F7D106003C363000FFF748FD0028F0D086
:1027C00001A93000FFF7ACFC6359020019791868C1
:1027D000019B00F0D1F8E4E70B00F0B509339B0052
:1027E000C3185C6883B006000F00002C15D072B6C9
:1027F0008D004519EB683C345B691B68002B1BD1CD
:1028000001A92000FFF78CFC002808D00200019BE2
:102810003900300000F0B0F862B603B0F0BDEB68EC
:102820005A691B8A12689A42F6D1002300223900A5
:10283000300000F0A1F8EFE72000FFF77BFCDFE7B6
:102840001131890010B50C58002C11D072B69E239E
:102850005B00E3581A685B7902339B00D3185B680E
:102860009B695968002904D12000FFF7BBFE62B6BE
:1028700010BD20000830FFF7C9FBF5E77047C046E0
:1028800010B50400002100F0E7FD0021200000F059
:10289000CFFD63681B68002B02D0052120009847FC
:1028A00064230622E25410BD762310B50400C25AF8
:1028B0000833C25400F09EFB63681B68002B02D0F3
:1028C0000121200098470323237010BD10B500F0AC
:1028D00067FB10BD01230370002301004360030068
:1028E00000222C3348311A60DA6104338B42FAD16A
:1028F0008260704710B5040072B600234160C36067
:10290000036143618361C36103624362836200F0D8
:102910004FFB0223237062B610BDC0468B1C9B0088
:1029200070B5C318050050690E0014005A600028E5
:1029300003D00C220021FEF75DFFA069002803D020
:102940000C220021FEF756FF3100280000F05CFB4E
:1029500070BDC04670B501258D4044892C4344812B
:102960008C1CA40004196468A46923600023A2607D
:10297000636000F00BFC70BD70B501258D400489CB
:102980002C4304818C1CA4000419646864692360CE
:102990000023A260636000F00DFC70BD022310B53F
:1029A0006422037000230400C3678360C360036173
:1029B00043618361C361036243628362835400F0B5
:1029C00089FB63681B68002B02D000212000984718
:1029D00010BDC04605230370436810B51B68002B6B
:1029E00001D00321984710BD04230370436810B53C
:1029F0001B68002B01D00421984710BD70B56423DB
:102A0000002502000400C554743200F0A5FB636881
:102A100025679B68002B1BD020009847002817D003
:102A2000E26E7A23E35A934200D2E36672B67423CD
:102A3000E35C7F2B30D8E36E002B39D0A26E0021EF
:102A40002000FFF787FF64230422E25462B670BDC2
:102A50007423E25C143B13421AD17523E05C563BAD
:102A60001340012B3ED0002B36D0022B10D1782200
:102A70000F21A55A083229402A40012800D195E0AB
:102A8000002800D182E0032800D18FE00C2831D04B
:102A90002000FFF7F5FEDAE7E36E002B12D0A26EFE
:102AA00000212000FFF768FF64230122E254CDE7F4
:102AB0000023002200212000FFF75EFF642305228F
:102AC000E254C3E70023002200212000FFF742FF69
:102AD00064230322E254B9E70928D9D8464A83007F
:102AE000D3589F460028D3D1444B0222A366022329
:102AF000E36696E7414AE366A266022291E77623FF
:102B00007F22E35CA3545A1E93410333237063680E
:102B10001B68002B02D00221200098470023A366E7
:102B2000E36683E723007C33A36602230222E36685
:102B300077E723007F33A36601230122E36670E772
:102B400076236068E15A0233CAB24568E35A090A3B
:102B50002000A84700289BD043680268A366E2666D
:102B60005FE70023A366E366254B23675EE77623D2
:102B7000E35A012B8CD17C210222635A9343032810
:102B800001D06352CAE713436352C7E7C9B22000BA
:102B9000002A1CD000F0D0FA01281BD0022800D057
:102BA00076E7184BE066A36602223AE77623E35AFB
:102BB000002B00D06CE7002900D169E7C9B20128D9
:102BC0000ED02000002A11D000F046FCA6E700F04D
:102BD0009FFAE1E70C4B0222A3660223E36620E79B
:102BE0002000002A05D000F065FC97E700F020FCEB
:102BF00094E700F045FC91E7980D0108E40D010809
:102C0000A9280008DC0D0108E00D0108642310B5B7
:102C1000C35C0400062B05D8184A9B00D3589F4676
:102C2000FFF72EFE10BD7A23C06EE35A984205D2FC
:102C3000E368198AFDF74EFB002913D072B6002312
:102C4000002200212000FFF785FE62B664230322E4
:102C5000E254E7E7036F002B00D09847642300227B
:102C6000E254DFE772B6002300222000FFF784FE63
:102C700062B664230222E254D4E7C046C00D0108C4
:102C800070B56425425D0400062A14D801239340E0
:102C900067221A4210D1DA0611D41B070BD5C3687C
:102CA0009B695B68002B06D1036F002B00D098470F
:102CB00064230022E25470BDFFF7E2FDFBE772B629
:102CC000002300220021FFF757FE62B6052363555B
:102CD000F1E7C0460F4A70B594460322FF25C0268F
:102CE0000240D20095408901914083089B006344D3
:102CF000B6009C591F22AC430C439C510123024057
:102D00009340C02240098000604452008350036019
:102D100070BDC04600E100E00A4B01219A6A002222
:102D2000494299629A62186919611A61D86806491C
:102D30000143D960DA608022D96952050A43DA6119
:102D40007047C04600100240FFFFBFFF0121234A29
:102D500013680B431360013113681942FCD003213F
:102D600053688B4353605368093153601B4A53685F
:102D70000B40FCD1F92110680140116053608023A1
:102D8000516B5B020B4380215363144A8902536BDE
:102D90000B42FCD0E523DB0453600023D3621033E5
:102DA0001363802311685B040B43802113600B4A7B
:102DB000890413680B42FCD01121094B1960536838
:102DC0000F390B435360054A0A3153680B40082BF7
:102DD000FBD1012193690B439361704700100240BE
:102DE000002002408023DB051A6910B57446920763
:102DF00003D42000FFF796F810BD00221A6172B6C6
:102E0000FEF752FE62B6F4E701220E4910B5CB6917
:102E10000F201343CB610C498B6813438B608023D5
:102E2000E021DB05FF319962E139FF39D9620021E8
:102E300099615963D96059605A6102311A60FFF78C
:102E400049FF10BD00100240005801408021024A95
:102E500013680B431360704700380140F8B5C8236E
:102E6000CE4647461D4E80B5F458F0462768E569C2
:102E7000256272B6AB060BD5202399460836A18C85
:102E80003000C9B2FFF72CFA4B46E5692B42F6D168
:102E900080233B4213D02B4211D0114B8026994600
:102EA00004E080B22085E5692E4208D04846FFF74D
:102EB000B9FA0028F5DA80233A009A4322604023C9
:102EC0003B4203D02B4201D09F43276062B640466D
:102ED000FFF728F80CBC90469946F8BDCC040020BA
:102EE000F404002010B5084C084A20000021FFF728
:102EF00031FBC823064A0221E250064A04331B2054
:102F0000E250FFF7E7FE10BDCC0400204D2E000874
:102F100000380140006CDC02C82370B50125C4589C
:102F20002368AB432360CC23C058FDF74DF9E06024
:102F300023682B43236070BDF8B5002922D04026BA
:102F400001258B684A681E43CB6809681D432E2300
:102F5000FF3313430279012A0AD0C82284586660DD
:102F6000A5602360FFF7D8FF01235B422362F8BD11
:102F7000084A9042F1D18022074CD201A7693A4316
:102F8000A261EAE796212E230902FF330125034EB1
:102F9000E0E7C046CC0400200010024040400000A2
:102FA00010B50248FFF796FC10BDC0469C050020F6
:102FB000037870B50400012B00D070BD0A4A90421E
:102FC00003D02000FFF7EAFCF7E780220749084D0D
:102FD000C86912040243CA611F202B640321FFF752
:102FE00079FE00232B64ECE79C05002000100240D2
:102FF000005C00407E238022C35C1343014AD364FB
:103000007047C046005C00408B1C9B00C318F0B5A5
:103010005D68CE46474603232A6880B5134052D0E8
:103020000022022B0AD9033B5A42534180225B42C1
:10303000D2001A4080239B009C466244234C244BC0
:10304000A4461B6DCE006344F4186B69002B11D0AD
:10305000002363808033C65899462B8A01339846F3
:10306000012347469F43BB194F46C3512023B6B2A5
:1030700026801A43AB69002B12D06D8A3E2D1BD8D7
:1030800001356E08B602B6B2E68080260127835964
:10309000BD43ED189BB28551A38080239B011A4349
:1030A0000B4B88009C46604403680A43036002603F
:1030B0000CBC90469946F0BD20236E1E76111E432F
:1030C000B6B20135DEE780229200B7E7006000402B
:1030D000005C004000230C4A10B51365536443683C
:1030E0008021DB68D1645C4263419E242402A446B3
:1030F0005B425B026344136440234350034B002153
:10310000C360FFF781FF10BD005C0040E80D0108BF
:10311000074B8900C858C0239B01184006D0054BB7
:103120009C466044431E9841013070470020FCE7F4
:10313000005C004000F0FFFF3020064B8900CB58B8
:10314000184004D01038431E9841013070470020C9
:10315000FCE7C046005C00400A480B4B844610B5B3
:103160001B6DC9006344C91888881400614680B289
:103170000834891A83185B5A13800232A242F9D1AB
:1031800010BDC04600600040005C0040064B890056
:103190009C4661440A68054B1A40C0239B015A4073
:1031A000034B13430B607047005C00408FB7FFFF79
:1031B00080800000F0B5C6468B1C9B00C01800B58F
:1031C00042685569148A68682B681B1A9C4200D9AA
:1031D0001C00164F164BBC461A6DCB0062449A1861
:1031E0001388A7B2AE685780621C9BB252080CD0FD
:1031F0001B1A98464346371852006344D2199B1B4A
:103200003E88DE5302379742FAD1094B89009C462B
:1032100061440B68074A0019134030225340064AA4
:10322000686013430B6004BC9046F0BD0060004032
:10323000005C0040BF87FFFF80800000F0B5DE46E5
:103240004E46574645467346E0B58BB00893724BE1
:103250005E6CF2435A64730500D5C3E0330500D5B4
:10326000C7E0F30404D56C4B9A6C120400D4CAE096
:10327000B30506D5694F7B68DB68002B01D03800A9
:10328000984780231B021E4241D00F229146624A7A
:10329000624F90469A461AE01A68614802405046CA
:1032A00002431A6063695A681B689A4239D3012243
:1032B0008A403B8993433B81A368002B02D0C9B26B
:1032C0003800984743465E6C53461E421FD049461D
:1032D000514A31409446881C8B0082006344BA18DE
:1032E0001D685468F206D7D51A684D4E32408026C4
:1032F00032431A60CAB201922D0517D563681100D6
:103300003800984743465E6C53461E42DFD108980A
:10331000FEF708FE0BB03CBC90469946A246AB4671
:10332000F0BDC9B23800FFF745FFCBE7A2693D4EBB
:1033300055689346AC460295926845466244B44649
:103340002D6D03926544CA00AA18958865440495BA
:10335000D28895B2AA050595950D6A080695099239
:103360000ED05600039A049D9446AD1A66449C46BE
:103370002B0007929D5A158002329642FAD163467D
:10338000059AD20708D5099A049D5200AD5A039EAA
:10339000B5545A4652680292069E5D46B446029A59
:1033A00062446A602D68AA4202D2628AB2420FD990
:1033B00001228A407B898000934338187B814368CF
:1033C000DB68002B00D17DE701993800984779E749
:1033D0001968154A1140C02292015140134A0A430C
:1033E0001A606FE70D4F3800FFF7D8FA330500D4A5
:1033F00037E70821084A094F136C38000B43136460
:10340000FFF7E8FA2DE708211A6C044F8A431A6483
:103410003800FFF7E9FA2BE7005C00409C0500202C
:103420000F07FFFF006000408FB7FFFF80800000A4
:10343000064B89009C4661440A68054B1A4080236C
:103440005B015A40034B13430B607047005C004024
:103450008FB7FFFF80800000064B89009C466144C7
:103460000B68054A134010225340044A13430B6073
:103470007047C046005C0040BF87FFFF80800000AF
:10348000094BC0229C46890061440B68920113409D
:10349000934208D00A68054B1A4080239B015A408A
:1034A000034B13430B607047005C00408FB7FFFF76
:1034B00080800000084B89009C46302361440A68E4
:1034C0001340302B07D00B68044A1340202253408E
:1034D000034A13430B607047005C0040BF87FFFF47
:1034E0008080000080B50A4B0A4A196800AF9142FB
:1034F00009D162B600221A60074B83F30888074B94
:103500001B689847FEE7FFF721FCBD4680BDC0461B
:10351000F03F0020EFBEADDE5022002004C8FF1FA8
:103520007047C046F8B547461D0080460B23CE467F
:10353000434480B50800170099461C003900060076
:10354000FCF7C8FE3023CAB2092900D907339B18FB
:10355000013CDBB22370002D02D0013D002DEDD1E6
:10356000BE4209D339000600FCF7B4FE0025CAB2FA
:1035700030230929EBD9E9E74A46101B002200E075
:10358000A35C41468B5401329042F9D140440CBCBB
:1035900090469946F8BDC046F8B54746CE46140059
:1035A00080B581460F1C9046092A01DD0923984603
:1035B00043469A001B4B381CD658FCF7FFFF05000A
:1035C000FDF758FF011C381CFDF746FD071C3000B5
:1035D000FDF750FF011C381CFDF728FCFC21890574
:1035E000FDF7D6F8FCF7EAFF0700864201D8871BF3
:1035F000013500230A2229004846FFF793FF002CDB
:1036000003D10CBC90469946F8BD6923064A441C78
:10361000D35C390003700A2243462000FFF782FF83
:10362000EFE7C046EC0E0108080300200389012BD8
:1036300006D943685A1C426019700389013B038113
:1036400000207047F0B5DE46454657464E460023FB
:103650008B468046E0B58FB00193203303930292EE
:103660005B4619785F1C00290FD0252915D04346E9
:10367000BB461B6840469B689847019B01330193FA
:103680005B4619785F1C0029EFD101980FB03CBC54
:1036900090469946A246AB46F0BD80203C78002675
:1036A000400080251021042202232D2C0ED02B2C2B
:1036B0000FD0302C10D06A2C11D0202C12D0622CBC
:1036C00013D1064301373C782D2CF0D11E4301372E
:1036D000F9E716430137F6E70E430137F3E72E43C8
:1036E0000137F0E726430137EDE7002502992A006C
:1036F00006E008C9DBB29500AD186D003C785A1998
:103700002300303BDBB20137092BF4D92A2CF0D04F
:10371000029115002E2C00D145E140231E430023C9
:10372000BB4699462300443BDBB2342B00D92AE147
:10373000C64A9B00D3589F460822029F08AC02CF7E
:1037400000232000FFF7EEFE8246031B0297ED1ACE
:1037500069D430230393F30600D421E1B30765D580
:10376000544500D3D5E1019B474601331B1BA846B6
:1037700056461D003B6821789B68380098472B19F6
:103780000134A642F6D845461E00B846002D00D1A9
:10379000C3E12C004746A846039D3B6829009B686F
:1037A0003800013C9847002CF7D145467319B846BC
:1037B000019355E7029FF30500D51EE10723073764
:1037C0009F4303CF0297FDF7E7FE82460021504654
:1037D000FCF782FE002800D019E1730700D4BCE199
:1037E00008AB1A0004932B23944613702A3B6344BE
:1037F0000593330604D56A23059A1370531C059369
:1038000093495046FCF77CFE002800D187E119233C
:10381000059A049C1370931C9A46202353705346B8
:103820001B1BED1A95D50025B30799D42C233342E1
:1038300002D0F30600D5D0E02E1E12D04746A04697
:10384000039C3B6821009B683800013E9847002E8E
:10385000F7D1019B44469C46AC446346B8460025DC
:103860000193544500D27EE7FAE6029F02CF002979
:1038700000DADCE0730700D47FE108AB1A000493A0
:103880002B23501C1370330602D56A2303700130BA
:1038900000230A22FFF746FE049C8246031B029780
:1038A00055E710233200029F9A4310CF002C00D11D
:1038B000C7E0237871066BD5002B6ED065492300D5
:1038C00004E0E01A4018013000D141E101331878DA
:1038D0000028F6D19A4602971B1B160037E7029B79
:1038E00004CB07934B46002B00D182E04C460E2BB5
:1038F00000DD0E2401230293002308A989469C467B
:103900000E334B441F00012399461F339A46230070
:1039100064469C46504893085108C9180B09C918B9
:103920000B0AC9180B0CC918C9088B005B185B007F
:10393000D31A092B03D90A3B0131092BFBD83033A9
:103940007A1EDBB21370002900D189E04B46034296
:1039500003D05346BA1E13700134170040080A0002
:10396000D9E71023029F9E4308CF08AA13701400C2
:10397000012302970122A44662449246E7E6102200
:10398000DBE60A22D9E608AB1C70012308ACF1E79C
:10399000002B02D04B46591E91D2A2461600029728
:1039A00020230393DAE60023944618000D0006E076
:1039B00008CDDBB20F0082001218520098183C7834
:1039C000791C2300303BDBB2092BF3D92A2CEFD032
:1039D0000295814665468B46A4E643461B682178DE
:1039E0009B6840469847019B661C01330193340055
:1039F00022E7033302930E247EE708CF00219A4684
:103A000050460297FCF768FD002800D1E5E6082340
:103A10001E4308AB1A0004932D23137080231B064A
:103A200053449A469446012363440593E1E60823F0
:103A30001E4308AB1A0004932D2349421370501CF7
:103A400021E7064C7306A5D5024938E7040E0108A4
:103A5000FFFF7F7FFE7F000024490000E40E010885
:103A60006146A44660460C00A4490127095C0E206B
:103A7000059108A98C467F4267446044BC46801A81
:103A80008444012081460130824628000093654627
:103A900004910696029F009B844609E0002E11D0F7
:103AA0004E1C32000B708D4215D03100020003789D
:103AB0004E46501C3E40202BF0D1002E23D04B46CA
:103AC0009F432E23621E002C52DB4E1C14000B70F1
:103AD00032008D42E9D16546069E0297531C9A46F4
:103AE000029B9B0707D5059B202B04D02023137036
:103AF000931C52469A46059B049C13705346079AA2
:103B00001B1B029223E656463E42DBD1901C5378A3
:103B1000D8E7019E002D00D03BE60196A0E5730694
:103B200033D5462C3FD00923994651464A4605983D
:103B3000FFF732FD82461023334200D08EE0534619
:103B4000049C1B1BED1A00D42AE7049C002505E603
:103B50009A4602971B1B1600F9E5202333421ED01C
:103B600008AA944613701F3B63440492059340E6F1
:103B7000069E029765460A00B0E7202333420AD02A
:103B800008AA04921370501C7DE6462CCDD14B46FA
:103B90001BB206930AE008AB0493180073E608AB67
:103BA0000493059325E6032399460693544950460A
:103BB000FCF7B0FC002877D052495046FDF736F9A3
:103BC0004E4C071C02344E49381CFCF7A3FC00285D
:103BD00008D0381C4B49FDF729F901342378071C1C
:103BE000002BF0D1BA46013C2478002C03D04B4680
:103BF000013B1BB206935046FCF7E0FC63284CD90E
:103C0000069B023B1BB20693069B002B3EDB069FE6
:103C100051463A000598FFF7BFFC8246002F14D0AA
:103C20000300013B1A78302A06D1013B591C013BA5
:103C30005A78302AFAD08A4669233349CB5C9B1ADA
:103C40005A4253415246D31A9A46002C00D172E789
:103C500053461C7001239C46E2446CE75E40534689
:103C6000013B1B78302B07D15246023A511C013AD6
:103C70005378302BFAD08A462E2B03D101235B4296
:103C80009C46E2445346049C1B1B60E551460022BF
:103C90000598FFF781FC8246D7E70928B4D9069B2F
:103CA000013B1BB20693AFE7FE2150468905FCF7A6
:103CB00013FC002801D100249DE711495046FDF76F
:103CC000B5F8124C071C0134FE21381C8905FCF79D
:103CD00003FC002808D0381C0949FDF7A7F8013477
:103CE0002378071C002BEFD10649381CBA46FCF795
:103CF00007FC0028DFD0013C247876E7D80E0108C5
:103D000000007A446F12833A08030020140F010860
:103D10000CB430B5030085B00C000020002910DD84
:103D20000A4A01AD0192298109AA08992800029343
:103D30000092FFF787FC00226B681A70844200DC57
:103D4000601E05B030BC08BC02B01847200F010847
:103D5000C37882781B02134342781B021343007816
:103D60001B0218437047C0460B0A017043700B0CCE
:103D7000090E8370C170704743690239023B8B4260
:103D800004D94389806A5943081870470020FCE72A
:103D900003685A1C026018780300613B192B01D894
:103DA000203870477F28FCD9024B181880380078DB
:103DB000F7E7C046300F0108F0B5CE4647469846B3
:103DC000FF2380B585B081460191150013420FD0C5
:103DD000FF2402E0013D2C420AD001A8FFF7D8FFE2
:103DE0000028F7D1002005B00CBC90469946F0BDE4
:103DF0004B461A78002A3CD0802676004B46029328
:103E0000019B03934B460FE02A2A0FD002A8FFF72D
:103E1000BFFF040003A8FFF7BBFF070084421ED1C9
:103E2000002C28D0029B1A783F2AEDD14246002A66
:103E3000D8D00022581C029019783F291DD0324357
:103E4000597803003F29F5D02A29F3D04346039936
:103E5000013BFFF7B1FF00280DD1039B1F7801A89C
:103E6000FFF796FF002DBDD0002FBBD04B461A7830
:103E7000C4E7002DC0D00120B5E70132E0E7C0461D
:103E800010B50468002C0DD0230002E00B003A2A84
:103E900005D01A78591C202AF8D8002010BDA21C81
:103EA0008A4202D001204042F8E72278302AF9D134
:103EB00003600020F2E7C04670B504000D00002842
:103EC00009D00368002B06D01A78002A03D0818815
:103ED000DA88914203D0092000232B6070BD587806
:103EE0000BF074FD01231840F5D12368F5E7C046B7
:103EF00070B5C3780400002B02D10025280070BDE6
:103F00000600303640780123E26A31000BF0EEFD06
:103F1000051E10D1E26A236AA169E070D31A8B42B0
:103F2000EBD2A378022BE8D152186078013B310024
:103F30000BF0DCFDE2E70125E0E7C04670B50400C8
:103F4000E36A0D0000208B4200D170BD2000FFF716
:103F5000CFFF0028F9D12100607801232A003031F9
:103F60000BF03EFD002802D0012501206D42E562E4
:103F7000EBE7C046F8B505000E00FFF7B9FF0124D6
:103F8000002801D02000F8BD310028002E00FFF7E6
:103F9000F3FE80223036E8620700920000213000F4
:103FA000FDF728FC6B8900240020002B04D10CE0D5
:103FB00068890134A04208D93A1968780123310090
:103FC0000BF094FD0028F3D06889241A601E844108
:103FD000E4B2D7E770B50400FFF78AFF051E0AD1E7
:103FE0002378032B08D06078002200210BF0F2FD2B
:103FF000431E9841C0B270BD2379012BF3D1260036
:1040000080223036920000213000FDF7F3FB55226C
:10401000124B1349E254134B5532E2543000FFF770
:10402000A3FE85239B00E0180F49FFF79DFE862322
:104030009B00E0182169FFF797FE87239B00E0189B
:10404000E168FFF791FEE36960785A1CE2620123A0
:1040500031000BF04BFD2571C5E7C0462E02000074
:10406000525261412F02000072724161F8B545461B
:10407000DE4657464E460C00E0B590460500012945
:104080003ED943698B423BD90778022F5ED0032F7C
:104090003ED00226012F34D14B08994689444B4625
:1040A000590A036A9C466144FFF748FF061E28D15F
:1040B00030239B462F3B4B449A464B465246DB05EA
:1040C000AB44DB0D5B44510A274256D142461A707D
:1040D0002B6AEF709C4628006144FFF72FFF0028F1
:1040E00063D15346DA0543460F20D20D5A44117866
:1040F0001B0A814303400B4313700123EB7000E064
:10410000022630003CBC90469946A246AB46F8BD1C
:10411000036AC9099C466144FFF710FF061EF0D1EF
:104120004346FE221F012B005200A40030331440EE
:104130001C192000FFF70CFE010F3F090907394346
:104140002000FFF711FE0123EB70DAE7036A090A8A
:104150009C466144FFF7F2FE061ED2D1FF222B00DF
:1041600064005200303314401C19434623709BB244
:104170001B0A63700123EB70C3E70F22187810400D
:104180004246120102431A702B6AEF709C462800C7
:104190006144FFF7D3FE002807D15346DA054346B2
:1041A000D20D1B095A44DBB2A6E70600A9E7C046B8
:1041B00093B21B0A8A76CB760378032B00D0704724
:1041C000120C0A75120A4A75F9E7C046F0B5C646E0
:1041D000050000B50C000126012909D9436999425F
:1041E00006D20378022B28D0032B12D0012B03D048
:1041F000300004BC9046F0BD036A4F089C467F180F
:10420000790A6144FFF79AFE002829D001267642F8
:10421000EEE7036AC9099C466144FFF78FFE002858
:10422000F4D1FE2328005B00A4001C4030300019AC
:10423000FFF78EFD06013609DAE7036A090A9C4694
:104240006144FFF77BFE0028E0D1FF2364005B00A0
:1042500030351C402D196E78287836020643C7E7A2
:104260007B1C9846FB05DB0DEB1830331F7843466B
:10427000590A2B6A28009C466144FFF75FFE00281C
:10428000C4D14346D805C00D2D1830352B781B02FC
:104290001F43264201D03E09AAE73F053E0DA7E78E
:1042A000F0B5C646070000B58846066800293DD12E
:1042B000F568002D36D101253369002B2DD07369A7
:1042C0002C0006E0012869D0431C69D0AC4224D000
:1042D000736901349C4202D3012D1ED902242100AE
:1042E0003868FFF773FF0028ECD101222100524209
:1042F0003000FFF7BBFE00284ED14346002B44D1CF
:1043000073693269023BF4609A4201D8013A326122
:10431000012233791343337100E00024200004BCF0
:104320009046F0BD7369AB42C6D8C4E73000FFF7D2
:104330004DFF0400012831D9431C31D073698342F9
:10434000ECD83269002AE8D04246541CA34200D877
:10435000022421003868FFF739FF01281ED0431CD2
:104360001ED0002807D0F5687369012D01D99D4240
:10437000A6D34546A4E7002C15D0012221005242C5
:104380003000FFF773FE002806D1220041463000BE
:10439000FFF76CFE0028B3D0012801D00124BDE74F
:1043A00001246442BAE77369454689E7F0B5C64619
:1043B0000E0000B5070011000568012E33D96B69A6
:1043C000B34230D92800002A25D10123984619E0AC
:1043D000012828D0431C28D0002231002800FFF7F4
:1043E00045FE002814D16A692B69911E8B4205D2C3
:1043F000414601332B612B790B432B71A24206D925
:10440000260038683100FFF7E1FE041EE0D10020ED
:1044100004BC9046F0BD01225242FFF727FE00285F
:10442000F6D13868D1E70220F2E70120F0E7C04674
:10443000F8B54746CE4605692E4B203580B50400B9
:1044400088469D4206D900230420A3610CBC9046F7
:104450009946F8BD8369002B4AD0EF050668FF0D29
:1044600030D1416901338361002931D073896A0AEF
:10447000013B1A4226D13000FFF7A8FE8146030017
:10448000012831D901332DD07369834213D84346B3
:10449000002BD8D061692000FFF702FF8146031E80
:1044A00024D0012820D001331CD001003000FFF7B8
:1044B00061FD002816D14B46494663613000FFF785
:1044C0005BFCA0613036F6192561E6610020BDE78E
:1044D00032896B099342B6D23036F6192561E6610E
:1044E0000020B3E70120B1E70220AFE70720ADE7E6
:1044F0000420ABE7FFFF1F00F8B5040005683F2666
:10450000042020271AE02800FFF718FD00281DD1FD
:10451000E3691A78002A18D0DB7A3340A371E52AC0
:1045200006D02E2A04D00F2B02D0BB43082B0AD171
:1045300000212000FFF77CFF002807D1A169002996
:10454000E1D1002802D10020F8BD04200023A3619E
:10455000FAE7C046002370B5846805000668036169
:10456000002C12D13378022B0BD83389002B1FD0AB
:10457000706AA8616C6100281AD000203036EE61A4
:1045800070BD736A002BF0D01C007389002B11D111
:10459000300005E001280BD97369984208D22868D9
:1045A0002100FFF713FE0400431CF3D10120E7E7CD
:1045B0000220E5E721003000FFF7DEFBA861D9E724
:1045C00070B505000668FFF7C5FF041E09D0042C6E
:1045D00019D1033417E001212800FFF729FF041E39
:1045E000F5D1A9693000FFF7A9FC041EEFD1EB69F2
:1045F0001B78E52B01D0002BEDD1A9693000FFF726
:104600009DFC041E01D0200070BD20220021E8691D
:10461000FDF7F0F82900E86920310B22FDF796F844
:104620000123F370EFE7C046002370B5C370013B70
:10463000C3620400FFF782FC00282AD13E4BE05CF5
:104640003E4B0002E55CFF3BFF3BE35C0543EB2B8D
:104650000BD01833DBB2012B07D9394B9C4665448C
:104660002800451EA841023070BD364B9D4212D035
:104670003C23E25C013BE35C120213433D22A15C5C
:104680005A1E134203D18022920093421CD0032071
:10469000EAE70420E8E7200008222B498230FDF7F2
:1046A0002DF800283ED03C23E25C013BE35C120283
:1046B00013433D22A15C5A1E134203D18022920073
:1046C000934231D00220CFE70029E0D04B1E19429F
:1046D000DDD13F23E25C013BE35C12021343BCD01B
:1046E0004023E35C013B012BB7D84223E25C013B52
:1046F000E35C12021343B0D04423E25C013BE35C71
:10470000120213437F2B06D820005030FFF720FB06
:104710000E4B9842A1D94723E25C013BE35C1202B5
:1047200013439AD000209FE70029CBD04B1E19429B
:10473000CFD0022098E7C0462F0200002E020000D2
:10474000AB55FFFF55AA0000B00F0108FFFF0000A6
:10475000F0B5DE4657464E4645460023E0B50B60B1
:1047600087B00F001600FFF78BFB051E00DAD6E0BE
:10477000B24B8200D458002C00D1F3E03C600127FA
:104780002378BE43002B12D060780BF01FF907424C
:104790000DD1002E03D00426064000D0E0E030000A
:1047A00007B03CBC90469946A246AB46F0BD0023FC
:1047B000E8B2237060700BF03DF8C30700D5A6E0A7
:1047C000002E02D0430700D5CAE000212000FFF7E9
:1047D0002BFF022800D1A4E0042800D19BE001288F
:1047E00000D99AE03C23E25C013BE35C12021343F4
:1047F00080221BB29200934200D08EE04723BB3A46
:10480000E35CFF3AA55C1B021D4304D12000543039
:10481000FFF79EFA0500E36AA5619B464023E65C2C
:10482000731EA670012B78D83D23E75CBBB2638171
:10483000002B72D07B1E1F426FD14223E25C013BF2
:10484000E35C120213431BB298469BB29A46238143
:104850001B0762D144234322E35CA05C1B02184384
:1048600003D120005030FFF773FA3F233E22E35C70
:10487000A25C1B021A4391464FD032006A43534652
:1048800094461B094B4463440092984245D3C61A90
:10489000390030000193FBF797FCBE423DD3684BD3
:1048A00098423AD8019A6749D944861C4B465A44E3
:1048B000884259D864496661884200D9AFE05946B8
:1048C000A2625246E1612362002A26D0009A9446F1
:1048D00001226344636273009B195B0816409E19B2
:1048E00001235A4A94466644760AB54215D30122FA
:1048F00052422261E26081322271DBB2544A23705B
:104900001388002601339BB21380E38047E7032618
:1049100045E7042801D1012641E70D263FE70B2694
:104920003DE74C4B260002AD98462F00F736FF3688
:10493000A0443000FFF70CFA103601C7B045F8D19B
:104940002E00103602E00435AE42E2D02968032082
:104950000029F8D02000FFF767FE0128F3D841E7CF
:104960000A261CE70C261AE7594623625B23666178
:10497000E161A262E25C013BE35C12021343424646
:104980001A4313B2002BC8D120005C30FFF7E0F9C6
:104990002E4BB6009C4666446062760AB542BCD394
:1049A00001235B422361E360813323711F3BE25C9F
:1049B000013BE35C12021343012B01D003239DE76B
:1049C000594620000131FFF7B9FA0028F6D1224BF1
:1049D0002071E25C214B1202E35C1343204A1BB2BC
:1049E0009342EBD120003030FFF7B2F91D4B9842D3
:1049F000E4D185239B00E018FFF7AAF91A4B9842EF
:104A0000DCD186239B00E018FFF7A2F987239B00E7
:104A10002061E018FFF79CF90323E0606EE7594638
:104A2000A2625246E1612362002A00D175E7009A32
:104A30007600944663446362022352E72C0600200A
:104A4000F5FFFF0FF5FF0000F50F0000FF0100006C
:104A500030060020360200002F0200002E02000067
:104A600055AAFFFF5252614172724161F0B50023B5
:104A7000C646140000B55372002837D00B680022D8
:104A8000984641464E1E2E2100238C4604E0E31832
:104A9000597203000B2A10D00132B15C2029F9D0E1
:104AA000052900D1E031581C092AF0D16546E718E4
:104AB0007D729F1C03003800E9E70022E3185A7258
:104AC0004346DA7A3F234046134023721C30FFF7F7
:104AD0003FF943462060DA7D9B7D12021343E38059
:104AE00043465A7E1B7E12021343A38004BC9046A9
:104AF000F0BDC046CA7E10B50400887E1202104385
:104B0000032C05D14A7D0B7D120213431B0418436D
:104B100010BDC046F0B557464546DE464E46E0B5A8
:104B200005000F00036883B001933B782F2B01D061
:104B30005C2B01D10137F8E70023AB603B781F2BDA
:104B400000D8B2E020239B46BA46AB440B2220217A
:104B50005846FCF74FFE08239846093B534400276C
:104B6000002699464B4601369C5D202C22D92F2CDD
:104B700033D05C2C31D02E2C28D0B8451DD963B24F
:104B8000002B03DA7F231C404C4B1C5D21004C485A
:104B9000FCF784FE002810D12300613B192B01D8BB
:104BA000203CE4B25B46DC554B4601369C5D013748
:104BB000202CDCD8B244002F1AD10624200003B0E8
:104BC0003CBC90469946A246AB46F0BD43460B2BF3
:104BD000F3D00B2308279846C4E7564433782F2B8D
:104BE00001D05C2B01D10136F8E7B246002FE4D0AA
:104BF0002023EA5CE52A52D00422202C46D82B231D
:104C00002800EA542F68FFF7A5FC041E22D13F2399
:104C1000B94698465F4617E0E8690378002B1BD039
:104C20004346C67A3340AB710823C47A1C4005D191
:104C30000B223900FCF762FD002814D00021280067
:104C4000FFF7F6FB041E05D1A9694846FFF776F980
:104C5000041EE1D0042CB1D12B23EB5C04245B07B0
:104C6000ACD40524AAE72B23EB5CBB465B07A5D499
:104C7000F306F6D5019A2B691100DB05DB0D303107
:104C80001078C918FFF736FFA8605FE75346002188
:104C900000201B781C329A4241418A00AFE7E03A7B
:104CA000EA540422202CAAD9F0E72B2380222800E2
:104CB000EA54FFF74FFC040080E7C046300F0108BC
:104CC000BC0F010810B584B0019003A80091140036
:104CD0000391FFF7D5F8002817DB0D4A8000135821
:104CE000002B01D000211970019B002B01D0002165
:104CF000197013500020002C01D104B010BD002207
:104D000001A96846FFF724FDF7E70B20F5E7C04649
:104D10002C060020F0B54F46D6464646C0B590B0AA
:104D200004000191170000283ED03F2515402A00BD
:104D300003A901A8FFF70CFD061E08D0002323607D
:104D4000300010B01CBC90469946A246F0BD039BB3
:104D5000019904A80493FFF7DDFE1C233B400028C3
:104D600012D169462B22103009188A5C7F2A1DD87F
:104D70006A46927D002B0DD01123134212D17B077E
:104D800000D499E00826D9E7002B01D0042811D0DF
:104D90000600D3E7D3060BD4BB0700D488E0D307C3
:104DA00000D485E00726C9E70926C9E70626C5E736
:104DB0000426C3E704A8FFF703FC08231D430028CB
:104DC000E6D10AF033FD0B9B0700180039000E30C6
:104DD0000093FEF7C9FF0B9B3900180016300093B3
:104DE000FEF7C2FF0B9B039F994638781900FFF727
:104DF00081FE20234A46D3720B9B8046190038005F
:104E000000220093FFF7D4F90B9B002118001C30FF
:104E10000093FEF7A9FF0123039FFB704346002B7D
:104E20005DD12B0701D540231D43FB6A23620B9BF9
:104E30006362387819009946FFF75CFEA0608046EF
:104E400048461C30FEF784FF2760E060FB88802224
:104E5000A38000236374E361636128339A46A2440C
:104E600081462574920000215046FCF7C3FCAB0636
:104E700000D465E74B46002B00D161E763617D8973
:104E80006D02A94508D81BE0013313D04B465B1BCC
:104E900099469D4214D2276841463800FFF796F99B
:104EA000804603000128EFD802264346A36145E768
:104EB000039FB6E70126F8E73B0782D4039FB4E7D8
:104EC0004346A3614B46DB0500D139E7039D4146CC
:104ED0002800FEF751FF002816D102262EE70022F7
:104EE000414604A8FF6AFFF761FA002800D04FE7A7
:104EF00039000398FFF722F84146039F0139F96012
:104F000000288ED0060019E74B465A0A1218E261B3
:104F10006878012351460AF063FD002800D10FE7AD
:104F200001260BE7F0B557469A464546DE464E4603
:104F3000002390465246E0B587B00F00136005A9E4
:104F40000500FEF7B9FF8146002855D16B7C9946D4
:104F5000002B51D101222B7C1A40029200D1A5E0F6
:104F60006C69EB681E1B464500D98AE0002E43D0D1
:104F700028239C46AC44634601934B46B9460393B1
:104F8000E105C90D5FD1059B620A9B465B89013B28
:104F90001A40904665D0A9695846FEF7EDFE0028F4
:104FA00000D186E0454B404407009E422CD95B4629
:104FB0004246740A5B8912199A4201D942469C1AE8
:104FC0005B463A005878494623000AF009FD00285C
:104FD00052D12B7C7F2B56D86402534652461B6815
:104FE000361B1B1913606B69A1449C4664446C61B9
:104FF000002EC5D1039B9946484607B03CBC90465D
:105000009946A246AB46F0BDEA69824217D05B469C
:1050100058782B7C7F2B0BD9012301990AF066FD70
:10502000002829D17F232A7C13402B74059B5878B4
:1050300001233A0001990AF0D3FC00281CD16B69C6
:10504000EF61D905C90D80239B005C1AB44200D9D9
:105050003400019B22009C4648466144FCF776FBE5
:10506000BBE7002C1CD1A968012922D94B1C03D015
:10507000059BA9619B468FE701236B74029B9946B0
:10508000BAE7464672E7EB69DF1BA742A4D27F026C
:1050900038008022484492000199FCF757FB9BE7B7
:1050A000A9692868FFF792F80100DDE70723994610
:1050B000A2E702236B7499469EE7C046FF010000F9
:1050C000F0B557464E46DE469A4645460023E0B5C3
:1050D0001600524685B00F00136003A90400FEF7C6
:1050E000EBFE8146002800D07EE0637C9946002BD1
:1050F0007AD1237C9A0700D4CBE06569AA1995423E
:1051000000D998E0002E00D1AFE04B46B94601939C
:1051100024E02700283780239B001D1AB54200D9C0
:1051200035002A0038184946FCF710FB8022237C02
:10513000524213432374534652461B68761B5B1935
:1051400013606369A9449C46E36865446561AB42AA
:1051500000D22B00E360002E00D183E0E805C00DF3
:10516000D7D1039B5F899B46013F6B0A1F4012D139
:10517000002D00D06FE0A068002800D179E0012860
:1051800000D189E0431C2CD0039BA0619B46A368FF
:10519000002B00D1A060237C7F2B3BD8A16958460F
:1051A000FEF7EAFD002800D176E080463C4BB8448B
:1051B0009E4221D95B46750A5B897A199A4200D9C9
:1051C000DD1B5B464246587849462B000AF08EFCB0
:1051D000002806D14246E369991AA9422DD36D02EF
:1051E000A9E7012399466374484605B03CBC904644
:1051F0009946A246AB46F0BD2700E36960692837AF
:10520000434502D0E368834238D84346C005E36192
:10521000C00D80E75B4621005878E2690123283100
:105220000AF064FC0028DCD17F23227C1340237425
:10523000039B9B46B2E7EE4364E7802220004902CD
:10524000920049442830FCF781FA7F23227C6D02CA
:10525000134023746FE7A1692000FFF721F80028AD
:1052600000D08CE7019B9946237C40221343237492
:10527000BAE700212000FFF713F8F0E75B4642464B
:105280005878390001230AF0ABFB0028A9D16069E6
:10529000BBE707239946A7E7022363749946A3E770
:1052A000FF010000F0B583B001A90500FEF704FE80
:1052B000041E0FD12B7C40341C400BD05BB2002B62
:1052C0000BDB0AF0B3FA296A07000198FEF736FEF5
:1052D000041E11D0200003B0F0BD2900019BEA6933
:1052E0005878283101230AF001FC002825D17F23BA
:1052F0002A7C13402B74E4E720226E6AF37A310093
:105300001343F372AA682868FEF752FF3000E96879
:105310001C30FEF729FD300039001630FEF724FD61
:1053200001230198B474F474C370FEF753FE402255
:105330002B7C040093432B74CCE70124CAE7C046BE
:1053400010B582B00400FFF7ADFF002801D002B015
:1053500010BD01A92000FEF7AFFD0028F7D12060A5
:10536000F5E7C04630B585B0041E01912DD000226E
:1053700003A901A8FFF7ECF9002803D0002323605C
:1053800005B030BD039B019923602000FFF7C2FBED
:10539000002816D12B23E35C7F2B18D8A379DB06DA
:1053A00011D5039DE1692878FFF7A4FBA060EB8885
:1053B0002000A380FFF7CEF8042804D00028DFD017
:1053C000DCE70428DAD10520D8E70920D8E7039DD7
:1053D000EDE7C04610B582B001A90400FEF76CFDF0
:1053E000002800D1206002B010BDC04630B583B0A7
:1053F0000D0001A90400FEF75FFD002816D1200072
:10540000002D15D0FFF778F8FB2318420ED12100AC
:105410002A001C31A069FFF729FB00212000FFF7BB
:1054200007F8031F5A1E93415B42184003B030BD7A
:10543000FFF790F8FAE7C046F8B50F0006000C0039
:1054400009370CE0002C10D0637A002B0DD0042318
:1054500000223900F06AFEF7AFFC002805D12100D8
:105460003000FFF7C3FF051EECD02800F8BDC04692
:1054700070B50D00C36211000400FFF773FF002830
:1054800000D070BD29002000FFF7D6FFF9E7C04625
:1054900070B59CB00190022203A901A8FFF758F94A
:1054A000002801D01CB070BD039B019904A804938F
:1054B000FFF730FB0028F5D16A4610212B23521844
:1054C000D35C06307F2BEDD86B469C7DE3071FD461
:1054D0000B9B039E190030780093FFF70BFB050030
:1054E000E30617D40A9B049C190020000093FEF7E2
:1054F00025FD0028D6D10B9B0093E523009A13705D
:10550000E43BE370002D14D10398FEF763FDC9E777
:105510000720C7E7129010A81096FFF71BF8002885
:10552000C0D110A8FEF7E8FF0028F1D00428B9D1B7
:10553000D8E70022290004A8FEF738FF0028B1D1DF
:10554000E2E7C04602290ED0032905D0012901D087
:10555000002070470548FCE70020032AF9D80448DA
:10556000D2008018F5E70348F3E7C0466810010849
:10557000F01001081C10010810B572B60248FDF7C2
:1055800003F962B610BDC0463406002010B5040011
:1055900072B6022906D0032902D10948FDF7BEF8E8
:1055A00062B610BD074A0121FDF7B8F92000064A8E
:1055B0000221FDF7B3F90248FDF7BAF8F0E7C0465B
:1055C00034060020CC0F0108E80F010870B5051C57
:1055D000081C161CFBF7DCF8311C041C281CFBF70C
:1055E000D7F8011C201CFBF7D3F8FA218905FBF73B
:1055F0001DFC70BD044B10B51B680A0019680C68CF
:1056000001001800A04710BD4C20002070B50024F8
:1056100002780B787C2B1AD09A4213D1002A0AD038
:10562000461C01310B7835787C2B11D00136AB420A
:1056300008D1002BF5D1200070BD01310D787C2BF5
:105640000AD02B00002BF8D101246442F3E71500A7
:10565000002DF0D00B78F5E701342B00DAE7C046D7
:10566000F0B5DE4657464E464546E0B5554B87B049
:1056700003905B8B0593002B00D18EE0AC22944607
:10568000F522504B92006344944698464E4A4D4B47
:105690004546634494469A464A4B544663441E002A
:1056A00000239B4635E0011CFE208005FBF7D4FC5F
:1056B000011C0490381CFBF7B9FB5146071C4846F7
:1056C000FBF7CAFC009B191C9946FBF7AFFB011CBA
:1056D000381CFBF7C1FC0299071C4046FBF7BCFCD9
:1056E0004946FBF7A3FB049981460198FBF79EFB13
:1056F000011C4846FBF74CF8804643467360012383
:105700009C46059BE34437600835083408369B45C2
:1057100043DA33682A68181C111C02939046FBF781
:105720009BFC7268071C92466A685046111C9146A1
:10573000FBF792FC6368039A019000932068012AAA
:10574000B1D0FE218905FBF723F8011C8146381CE6
:10575000FBF76CFB019B02900099181C9846FBF725
:1057600065FB494682464046FBF760FB0099804650
:10577000381CFBF75BFB011C4046FBF709F8039B59
:105780008046013318D102995046FBF765FC80230F
:105790001B064344071C9846AFE70422094B9B8C29
:1057A000934340221343074A938407B03CBC90467E
:1057B0009946A246AB46F0BD51460298FBF74CFC19
:1057C000071C9AE7A8070020FC060000012110B57D
:1057D0000C00084A138B1C40844209D08B430343BE
:1057E0000A20138305F0D0FC68230021024AD1541B
:1057F00010BDC046A80700200803002010B50128EE
:1058000000D010BD08680B49FFF700FF00280AD040
:10581000012804D14021084A13788B431370C62015
:1058200005F0B2FCEDE74021034A13780B431370F7
:10583000F5E7C0462C130108A4030020F0B5454647
:105840005746DE464E46E0B5884687B0051E92466E
:105850006A4C00DB9FE0E36801938B4200D399E040
:10586000638C013B9BB29B4623695D468B4200D80B
:1058700091E00027019A9E1A881A00235A460021B7
:10588000FAF772FE32003B00FAF74EFE05003200D6
:105890003B00C1172800FAF767FE029003915946B2
:1058A00000234A0802980399801859415A460490E7
:1058B0000591FAF739FE814604980599019B8019F4
:1058C00079414B4402935A460023FAF72DFE49468C
:1058D000019A029B1618471A98455CD0002F6CD08D
:1058E0004246D01AFBF7C6FD81463800FBF7C2FDE1
:1058F000011C4846FBF7C4F88146029803F00AF9F8
:105900000700300003F006F9B84259D16F1CFE20A1
:1059100049468005FBF7A0FBFB00AC33E4182823C5
:105920005646FF009A4680467B424F460293EB0064
:105930009B460433B2440193029B4046E5185B4604
:10594000E958FBF773FA21688146381CFBF76EFAB9
:10595000011C4846FAF71CFF019B3060E95840469D
:10596000FBF764FA6168051C381CFBF75FFA011C41
:10597000281CFAF70DFFCA239B009C46706008366E
:1059800064445645D8D107B03CBC90469946A246DF
:10599000AB46F0BD002553465646ED00AC356419C4
:1059A00028332268326062687260CA22920094468C
:1059B00008366444B342F4D1E5E7002399469CE7F6
:1059C000404603F0A7F8B8420BD0AB45E3DDFE211B
:1059D00048468905FBF740FB6E1CAF1C814635002D
:1059E00095E7002DD7DDFE2148468905FAF7D0FE60
:1059F0006E1E2F008146350089E7C046A8070020AB
:105A000030B50024094D83B0A022210002235200AA
:105A10000020009509F048FCA0212800C9000234AC
:105A2000FFF7E8FDF02CEFD103B030BDF02D0020E2
:105A300010B508F031FC10BDF8B50E1C051C111C8A
:105A4000301C171CFBF7F2F9291CFBF7EFF940009B
:105A500040080AF05FFF391C041C301CFAF798FE5E
:105A6000291CFAF795FE0021FAF736FD002803D02D
:105A700080231B069C466444201CF8BD10B5094CCD
:105A8000628B002A0CD0CA239B005843AC3000190B
:105A90000023002401330160446008309342F9DBA5
:105AA00010BDC046A807002010B5031C082800D967
:105AB0000823034A0420137005F066FB10BDC0469E
:105AC00058200020014B18787047C046582000200D
:105AD0000121024A13788B4313707047A4030020FE
