:020000040800F2
:1000000000010020C1000008ED1D0008756C00080B
:1000100021190008211900082119000821190008D8
:1000200021190008211900082119000821190008C8
:1000300021190008211900082119000821190008B8
:1000400021190008211900082119000821190008A8
:1000500021190008F1DF000811E00008211900084B
:10006000211900082119000821190008D1DF000812
:10007000C1DB00082119000821190008C12C000863
:100080002119000821190008211900082119000868
:100090002119000821190008211900082119000858
:1000A000211900082119000821190008392D00081C
:1000B0002119000821190008211900081931000828
:1000C00072B6224880F30988022080F31488BFF3B7
:1000D0006F8F01F0EFFB03F073F91D481D491E4AB5
:1000E000914202DA08600431FAE71C49174A91424A
:1000F00002DA08600431FAE719491A4A1A4B9A429F
:1001000004DA0868106004310432F8E70020174967
:10011000174A914202DA08600431FAE701F0D0FB95
:1001200001F0CAFB134C144DAC4203DA2168884736
:100130000434F9E706F042FC104C114DAC4203DAEE
:10014000216888470434F9E70E4908470003002076
:1001500055555555000000200001002000010020E9
:10016000EC29010800030020D4030020D80300205C
:10017000EC3D0020C0000008C0000008C0000008DE
:10018000C0000008BD180008F0B544464D4656466C
:100190005F46F0B46B46CB60C3689D46F0BCA0469A
:1001A000A946B246BB46F0BD62B6281CA047002057
:1001B00001F0DEFD01F07CFD014A024B1360FEE719
:1001C00004ED00E000000080002243088B4274D35D
:1001D00003098B425FD3030A8B4244D3030B8B4248
:1001E00028D3030C8B420DD3FF22090212BA030C51
:1001F0008B4202D31212090265D0030B8B4219D332
:1002000000E0090AC30B8B4201D3CB03C01A524151
:10021000830B8B4201D38B03C01A5241430B8B4299
:1002200001D34B03C01A5241030B8B4201D30B0382
:10023000C01A5241C30A8B4201D3CB02C01A5241A9
:10024000830A8B4201D38B02C01A5241430A8B426C
:1002500001D34B02C01A5241030A8B4201D30B0255
:10026000C01A5241CDD2C3098B4201D3CB01C01A6F
:10027000524183098B4201D38B01C01A5241430979
:100280008B4201D34B01C01A524103098B4201D367
:100290000B01C01A5241C3088B4201D3CB00C01AD4
:1002A000524183088B4201D38B00C01A524143084C
:1002B0008B4201D34B00C01A5241411A00D2014671
:1002C000524110467047FFE701B5002000F0F0F8FA
:1002D00002BDC0460029F7D076E7704703460B43BE
:1002E0007FD4002243088B4274D303098B425FD32F
:1002F000030A8B4244D3030B8B4228D3030C8B425B
:100300000DD3FF22090212BA030C8B4202D3121240
:10031000090265D0030B8B4219D300E0090AC30B15
:100320008B4201D3CB03C01A5241830B8B4201D3C2
:100330008B03C01A5241430B8B4201D34B03C01AAB
:100340005241030B8B4201D30B03C01A5241C30A23
:100350008B4201D3CB02C01A5241830A8B4201D394
:100360008B02C01A5241430A8B4201D34B02C01A7E
:100370005241030A8B4201D30B02C01A5241CDD223
:10038000C3098B4201D3CB01C01A524183098B426E
:1003900001D38B01C01A524143098B4201D34B0157
:1003A000C01A524103098B4201D30B01C01A5241BA
:1003B000C3088B4201D3CB00C01A524183088B4241
:1003C00001D38B00C01A524143088B4201D34B002A
:1003D000C01A5241411A00D201465241104670479C
:1003E0005DE0CA0F00D04942031000D340425340A1
:1003F00000229C4603098B422DD3030A8B4212D361
:10040000FC22890112BA030A8B420CD38901921192
:100410008B4208D3890192118B4204D389013AD0CF
:10042000921100E08909C3098B4201D3CB01C01AA4
:10043000524183098B4201D38B01C01A52414309B7
:100440008B4201D34B01C01A524103098B4201D3A5
:100450000B01C01A5241C3088B4201D3CB00C01A12
:10046000524183088B4201D38B00C01A5241D9D22A
:1004700043088B4201D34B00C01A5241411A00D2AB
:100480000146634652415B10104601D34042002BA7
:1004900000D54942704763465B1000D3404201B526
:1004A000002000F005F802BD0029F8D016E77047DB
:1004B0007047C0468446081C6146FFE71FB500F040
:1004C0006BFC002801D40021C8421FBD10B500F00C
:1004D000EFFB4042013010BD10B500F05DFC00287C
:1004E00001DB002010BD012010BDC04610B500F09A
:1004F00053FC002801DD002010BD012010BDC046C6
:1005000010B500F0FDFB002801DC002010BD01202B
:1005100010BDC04610B500F0F3FB002801DA002042
:1005200010BD012010BDC046002B11D1002A0FD1F3
:10053000002900D1002802D00021C943081C07B4BB
:10054000024802A14018029003BDC04665FFFFFFAC
:1005500003B4684601B5029800F048F8019B9E4636
:1005600002B00CBC7047C046F0B5CE4647461504F5
:100570002D0C2E0080B50704140C3F0C9946030C7B
:100580007E435D43674363437F19340CE4199C4603
:10059000A54203D980235B029846C4444B4643439B
:1005A0005143250C36046544360C2404A4195B1908
:1005B000591820000CBC90469946F0BD9E2110B5FC
:1005C000C905041CFFF7A6FF002803D1201C00F07A
:1005D000E7FE10BD9E21201CC90500F03DFD00F086
:1005E000DFFE80231B069C466044F2E7F0B55746C9
:1005F0004E464546DE46E0B5040083B00D00924607
:1006000099468B4230D82DD04946504601F06AF8C1
:1006100029000600200001F065F8331A9846203BB7
:100620009B4633D45A465346934042461F00534696
:1006300093401E00AF423AD8AF4200D17BE05B4608
:10064000A41BBD41002B00DA78E0002200230092B9
:10065000019301235A46934001930123424693405C
:10066000009328E08242CFD9002200230092019318
:100670000C9B002B01D01C605D600098019903B0B9
:100680003CBC90469946A246AB46F0BD424620236C
:100690009B1A5246DA40414613004A468A401700E8
:1006A00042461F43534693401E00AF42C4D9002226
:1006B0000023009201934346002BD9D0FB079C46B0
:1006C000614672080A437B0846460EE0AB4201D100
:1006D000A2420CD8A41A9D41012024196D41002189
:1006E000013E24184D41002E06D0AB42EED9013E0A
:1006F00024196D41002EF8D1009801995B4600192C
:100700006941002B25DB2B005A464446D3402A0082
:10071000E2401C005B461500002B2BDB26005F46E9
:10072000BE40330026004746BE403200801A994141
:10073000009001919CE7A342B9D880E7424620236C
:1007400000219B1A0022009101920122DA400192BD
:1007500083E7424620239B1A2A0046469A402300FC
:10076000F340444613432A00E2401C005B46150058
:10077000002BD3DA2023424626009B1ADE402F00AE
:10078000B4464646B74066463B003343CAE7C046D8
:10079000F8B54C02640A4746A0464C00C90FCE4645
:1007A00089464146430246005B0A360E240E80B558
:1007B000C50F9C463200D800C900371B4D4560D09C
:1007C000002F48DD002C00D17CE0FF2E00D183E01B
:1007D0008023DB04194301231B2F07DC0B0020229D
:1007E000FB40D71BB9404A1E91410B43C31A5A0123
:1007F00000D4B2E09B019C09200000F055FF0538B1
:100800008440864200DDB1E0861B220020200136B4
:10081000F240861BB44023005C1EA3410026134314
:100820005A0704D00F221A40042A00D004335A0178
:1008300000D495E00136F2B2FF2E00D193E09B0187
:100840005B0A5B02D205580AED07104328430CBC33
:1008500090469946F8BD002F49D1FE24771C3C42B2
:1008600000D087E0002E00D0DBE0002800D1CEE0F1
:100870000029E6D0431A5C0100D4EEE00B1A4D4685
:10088000CEE7002F54DD002C3FD0FF2E24D0802354
:10089000DB04194301231B2F07DC0B002022FB4044
:1008A000D71BB9404A1E91410B431B185A0154D51E
:1008B0000136FF2E57D001226F491A405B080B40CA
:1008C0001343ADE700292CD0013F431A002F00D17C
:1008D0008DE7FF2E00D07EE76346002B43D08023B8
:1008E0006246DB0313435B025B0AFF22A9E7A21BFC
:1008F000002E61D1002811D0013A002A00D1B2E0C7
:10090000FF2C5ED14D46C446E6E7002909D0013FE1
:100910004318002FCAD0FF2EBCD1DDE74D46C44698
:100920002600FF2ED8D063465B025B0AF2B288E74E
:10093000002F29D1FE24013634426DD1002A55D131
:10094000002800D193E0002900D17AE7431800265F
:100950005A0102D5494A013613405A0700D061E7CF
:10096000DB089C46DDE7FF2200236AE7434B361A8B
:10097000234055E7441A63015DD4002C00D03BE7C7
:100980000025002200235CE7A21B002E28D10028AE
:10099000C5D0013A002A6CD0FF2CB4D001231B2A09
:1009A00007DC03002026D340B21A9040421E90413B
:1009B00003435B18260079E7FF2CA3D08023DB04D8
:1009C000184301231B2A07DC03002025D340AA1A61
:1009D0009040421E90410343CB1A4D46260006E745
:1009E000FF2C90D08023DB041843D7E700288AD05F
:1009F000002900D170E780236246DB031A4200D150
:100A00006AE742461A4200D066E7C44664E7002916
:100A100026D04D46434614E7FF2EA4D043185B086A
:100A20009BE700280AD1002900D06BE7802300252E
:100A3000DB03FF2205E70C1A4D46DDE6002900D155
:100A40004AE780236246DB031A4200D144E742466C
:100A50001A4200D040E74D4655E7002B00D07CE716
:100A600000250023EDE60B1A4D462600BFE643465F
:100A7000E7E64318260019E7FFFFFF7DFFFFFFFBB6
:100A8000F0B54F464646D64644024500C0B5640A16
:100A90000F1C2D0EC60F002D4FD0FF2D55D08023DB
:100AA000E400DB041C43002399469A467F3D7B0209
:100AB00078005B0A9846000EFF0F002831D0FF280F
:100AC00010D08022DB00D2041A43904600217F38E8
:100AD0002D1A4B4632000B4371489B00C3587A4095
:100AE000D2B29F46FF3D002B54D102234946194301
:100AF00032000B007A40033BD2B20C2B04D8694978
:100B00009B00CB589F463A00002000246402C30596
:100B1000600AD207184310431CBC90469946A2466F
:100B2000F0BD002B2BD101234946320019438B0025
:100B30005D497A40CB58D2B29F46002C13D1042392
:100B40009946033B00259A46B1E7002C05D10823BE
:100B50009946063BFF259A46A9E70C239946093B8F
:100B6000FF259A46A3E7200000F09EFD7625431F4F
:100B70009C4000236D422D1A99469A4697E718002B
:100B800000F092FD4246431F9A402D18904676355C
:100B900000219EE703219CE717003A00FF20002474
:100BA000B4E780240022E403FF20AFE7320053467D
:100BB000022BF1D0032B6CD0012BA5D028007F3065
:100BC000002846DD630704D00F232340042B00D008
:100BD0000434230103D52800344B80301C40FE2808
:100BE000DCDCA401640AC0B290E78023DB031C4272
:100BF00027D042461A4224D144461C436402640A68
:100C00003A00FF2082E73A0044468A46CFE7414651
:100C100063014C01A34235D21B200021013D012775
:100C20001E0049005B00002E01DB9C4201D81B1B0B
:100C3000394301380028F3D11C00631E9C410C434A
:100C4000BCE78023DB031C436402640A3200FF20FC
:100C50005CE70123181A1B2800DD55E79E352300A9
:100C6000AC40C340611E8C411C43630704D00F237A
:100C70002340042B00D00434630107D4A401640A88
:100C8000002043E71B1B1A200121C8E70120002494
:100C90003CE78023DB031C436402640AFF2035E742
:100CA00040E7000880E70008B4E70008FFFFFFF70F
:100CB00070B542004E024C0045026D0A120EC30F81
:100CC000760A240EC90FFF2A0FD0FF2C11D0012065
:100CD000A24200D070BDB542FCD18B420DD0002A9B
:100CE000F8D12800451EA841F4E70120002DF1D1DC
:100CF000EBE70120002EEDD1E9E70020EAE7C0464E
:100D0000F0B5420046024D024C00C30F760A120EA7
:100D10006D0A240EC80FFF2A1FD0FF2C10D0002A06
:100D20001FD171427141002C01D1002D1ED000292C
:100D30000ED183421ED00221581E08400138F0BD5A
:100D4000002D26D1002AF4D1714271410029F0D042
:100D50000028F4D101204042F1E7002E19D1FF2CE8
:100D6000EED0002CE5D1002DE3D1E4E70020002EE9
:100D7000E5D0E0E7A24205DCEADBAE4202D8E7D3E9
:100D80000020DCE74142414148420221084001384D
:100D9000D5E702204042D2E7F0B5420046024D02BC
:100DA0004C00C30F760A120E6D0A240EC80FFF2ADC
:100DB0000DD0FF2C0FD0002A23D171427141002C9D
:100DC0000FD1002D0DD10020002E14D00DE0002EEB
:100DD00010D1FF2C15D1002D0CD1002A03D1714266
:100DE0007141002908D1834210D00221581E0840C9
:100DF000013800E00220F0BD0028FCD10120404273
:100E0000F9E7002CEFD1002DEDD1EEE7A24205DC91
:100E1000F2DBAE4202D8EFD30020ECE74142414181
:100E20004842022108400138E5E7C046F0B54F4688
:100E30004646D64644024500C0B58846640A2D0E93
:100E4000C70F002D49D0FF2D4FD08023E400DB04D5
:100E50001C43002399469A467F3D434642465E0224
:100E6000D20F5B00760A1B0E904646D0FF2B12D0A5
:100E700080220020F600D2047F3B1643ED186A1C46
:100E8000434694464A467B400F2A00D974E0704995
:100E900092008A589746FF35002E54D14A460223C5
:100EA0001A4391460220EAE74346340082465246FE
:100EB000022A2AD0032A00D1C3E0012A00D082E00E
:100EC000002200246402D205600ADB0710431843A5
:100ED0001CBC90469946A246F0BD002C27D10423A5
:100EE0009946033B00259A46B7E7002C19D1082301
:100EF0009946063BFF259A46AFE7002E08D14A46A1
:100F000001231A4391460120B9E7FF220024D9E7C3
:100F1000300000F0C9FB431F2D1A9E40763D002093
:100F2000ADE70C239946093BFF259A4695E720003B
:100F300000F0BAFB7625431F9C4000236D422D1A1A
:100F400099469A4689E74A4603231A439146032065
:100F500095E73B00ABE780240023E403FF22B1E7E1
:100F60008023DB031C4245D01E4243D133435C0245
:100F7000640A4346FF22A5E7200C2404210C0F003D
:100F8000320C3604360C774351434643504389199B
:100F90003A0C5218964203D98021490288464044AF
:100FA0003F0411043F0CC9198C01661EB441890E1F
:100FB0002143140C2418A4010C4322013CD5012226
:100FC000610814400C4360467F3000281ADD620738
:100FD00004D00F222240042A00D00434220103D579
:100FE00060461C4A80301440FE288EDCA401640A4E
:100FF000C2B267E78020C00304436402640A3B0076
:10100000FF225FE70122101A1B2800DD58E7624625
:101010009E3221009440C140621E94410C436207FD
:1010200004D00F222240042A00D00434620105D4E7
:10103000A401640A002245E7AC46C4E7012200246B
:1010400040E78022D20314436402640AFF2239E796
:10105000ECE70008FFFFFFF7F8B543025B0ADA0090
:10106000DE4693464A02520A454690464E46574649
:101070004446E0B54A0047003F0EE400120EA14688
:101080009C463E00C50FC90FBC1AFF2A00D177E06D
:1010900001208246504641408D4200D180E0002C24
:1010A00051DD002A00D073E04B46002B00D1DDE07B
:1010B000013C002C0FD0FF2F00D1A5E001231B2CF9
:1010C00009DC20224946121B91404B460A00E340AE
:1010D000511E8A4113435A46D31A5A0100D4C0E024
:1010E0009B019C09200000F0DFFA230005388340B3
:1010F000864200DDC4E0861B1A0020200136F24043
:10110000861BB3405C1EA341002613435A0704D03C
:101110000F221A40042A00D004335A0100D4A3E05D
:101120000136F7B2FF2E00D1A7E09B015B0A5802FF
:10113000FF05400AED07384328433CBC90469946DA
:10114000A246AB46F8BD002C4FD1FE247A1C1442B7
:1011500000D099E05A46002F00D000E1002A00D1CB
:10116000F1E04A46002AE2D04B465A46D31A5A01C9
:1011700000D402E14B465A460D009B1A0026C5E7F3
:101180004846002800D183E78D4251D0002CDADD9B
:10119000FF2F39D080234A46DB041A4391468DE75E
:1011A000002C45DD002A3AD0FF2F2DD080234A465F
:1011B000DB041A43914601231B2C09DC20224946FB
:1011C000121B91404B460A00E340511E8A411343D3
:1011D0005B445A0145D50136FF2E4ED001226E499F
:1011E0001A405B080B40134390E7D41B0D00002FFF
:1011F0006FD15B46002B00D18FE0013C002C00D169
:10120000C2E0FF2A6CD1C4466346002B35D0802350
:101210006246DB0313435B025B0AFF2787E74B460B
:10122000002B23D0013C002C74D0FF2FC3D1EBE75F
:10123000002C35D1FE227E1C324200D089E05A4675
:10124000002F6DD1002A00D1A3E04A46002A00D128
:101250006DE75B464B4400265A0102D54F4A0136E2
:1012600013405A0700D053E7DB089C46FF2ECBD033
:1012700063465B025B0AF7B259E7FF27002356E794
:10128000464A361A134041E74B465A46D41A630180
:101290006FD4002C00D025E700250027002346E767
:1012A000D11B002F2CD0FF2AADD080235846DB0461
:1012B0001843834601231B2908DC5B46202458463B
:1012C000CB40611A8840411E884103434B441600BD
:1012D0007FE7FF2A97D080235946DB0419438B46CA
:1012E00001231B2C08DC20215B465846E3400C1BE5
:1012F000A040411E8841034349461600CB1AECE644
:101300005B46002B09D001390029DFD0FF2AD1D15B
:10131000C44679E75B464B445BE7C4461600A5E745
:10132000002A00D16FE74A46002A00D16CE78022EC
:10133000D203134200D167E74346134200D063E76C
:101340000D00C44660E74B46002B1AD00D00434603
:10135000EDE6FF2E91D05B464B445B0881E7002A07
:10136000E1D14B46002BEBD180230025DB03FF2787
:10137000DDE64B460D009C1AB4E60026002B00D09B
:101380006FE700250023D2E64B46594616005B1A4C
:10139000A3E64346CBE6C046FFFFFF7DFFFFFFFB12
:1013A00041024200C30F490A120E00207E2A03D9CF
:1013B0009D2A02D9094A98187047802000040143E9
:1013C000952A07DC9620821AD1404842002BF3D19F
:1013D0000800F1E7963A9140F7E7C046FFFFFF7F2C
:1013E00070B5002812D0C317C5185D40C40F28007F
:1013F00000F05AF99E22121A962A11DCD2B208285D
:1014000033DD083885406802400A02E000240022EB
:1014100000204002D205400AE4071043204370BD7B
:10142000992A0BDD052329001B1AD94003001B3321
:101430009D402B005D1EAB4119430D00052801DDC9
:10144000431F9D402B000A490B406E0709D00F2611
:101450003540042D05D004335D0102D59F220B4099
:10146000121A9B01580AD2B2D3E76802400AD0E7A9
:10147000FFFFFFFB70B5041E0DD000F015F99E2292
:10148000121A962A0EDCD2B208282EDD08388440C3
:101490006002400A01E0002200204002D205400A1A
:1014A000104370BD992A09DD030021001B339940C8
:1014B0004B1E994105231B1ADC400C43052801DD16
:1014C000431F9C4023000A490B40650709D00F25A4
:1014D0002C40042C05D004335C0102D59F220B4024
:1014E000121A9B01580AD2B2D7E76002400AD4E729
:1014F000FFFFFFFB70B541004602C40FFE20090E3E
:101500004B1C750A184214D0E0239B006D07360B64
:10151000CB1800210A0D280012051C4D32435B0533
:101520002A405B0813435B00E4075B082343190070
:1015300070BD002914D1002D1ED0280000F0B4F891
:101540000A281CDC0B232A001B1ADA40030015337F
:101550009D400F4B12031B1A5B05160B5B0DD8E762
:10156000002D06D0320B802636036D071643094B3B
:10157000CFE7084B0026CCE700230026C9E703008D
:101580002A000B3B9A400025E3E7C046FFFF0F808F
:1015900089030000FF0700004A00F0B50B03520D5D
:1015A0003D4D5B0A470F561CC90F1F43C4002E4216
:1015B00028D03A4BD518FE2D08DDFF22002040022E
:1015C000D205400AC90710430843F0BD002D2DDDA8
:1015D00080010200501E8241FB00640F134323432D
:1015E0005A0757D00F221A40042A00D00433802211
:1015F000D2041A404ED00135EAB2FF2DDDD09B0156
:10160000580ADCE73C43002A06D1002C0BD0052306
:101610009B01580AD2B2D2E7002CCED08020C00362
:101620003843FF22CBE700220020C8E72B00173306
:1016300022DB80231E261B043B43761B1F2E1DDD51
:1016400002204042451B1800E8400500202E04D02F
:1016500013488446624493401C4323005C1EA3410C
:101660002B4300255A07BDD18020C0041840012219
:10167000A842C4D10200CBE70022C8E709481018ED
:1016800022008440250083406C1EA541F2402B437C
:101690001343E6E72A00BBE7FE07000080FCFFFFDC
:1016A000A2FCFFFF82FCFFFF1C2101231B049842C8
:1016B00001D3000C10391B0A984201D3000A0839E3
:1016C0001B09984201D30009043902A2105C40189A
:1016D0007047C0460403020201010101000000003E
:1016E0000000000010B5002903D1FFF7DDFF203016
:1016F00002E0081CFFF7D8FF10BDC046F0B5C64693
:1017000000B50F2A43D90B00032603431E400C00EB
:101710000300002E40D11500103D2D09AC462D01CF
:10172000A846804400E03B00676825685F60E76882
:101730001D60DF601F00A56810379D6010344345B1
:10174000F1D165460F230C2401352D0149191340B1
:101750004519144223D08C59AC5104369C1B032CE0
:10176000F9D80324043B9B0801339B002240ED1869
:10177000C918561E002A07D0002300E02300CA5CC7
:101780005C1CEA549E42F9D104BC9046F0BD0500B1
:10179000561E002AF0D1F7E7561E0500ECE71A00A6
:1017A000F6E7C046F0B5050083074AD0541E002A6C
:1017B00044D0CEB20300032202E00135013C3DD308
:1017C00001332E701342F8D1032C2FD9FF220A4087
:1017D000150215432A0415430F2C35D92700103F55
:1017E0003F093E01B4461E001A00103666441560DB
:1017F00055609560D5601032B242F8D10F260C22A8
:1018000001373F012640DB193700224217D03E1F27
:10181000B608B400A4461A001C1D644420C2A242AB
:10182000FCD103240136B6009B193C40002C05D0A6
:10183000C9B21C19197001339C42FBD1F0BD3400B0
:10184000F4E714000300BFE72700E0E710B58307C3
:1018500027D00378002B26D00300032102E01A785A
:10186000002A1CD001330B42F9D119680F4A104CE1
:101870008A188A4322420FD1043319680B4A8A1806
:101880008A43224208D104331968084A8A188A43D5
:101890002242F1D000E001331A78002AFBD1181A55
:1018A00010BD0300E1E70020FAE7C046FFFEFEFEA0
:1018B000808080807047C0467047C046FEE7C046C3
:1018C00080229446F0B50025104E114C1149124B60
:1018D0001248B44499420DD91A0080C880C291427E
:1018E000FBD80139C91A8908013189005B189C426B
:1018F00002D920C39C42FCD81036664504D030681B
:101900007368B168F468E5E7F0BDC0462CE80008EC
:10191000EC3D0020EC3D0020EC3D0020C02A0108F9
:10192000FEE7C046FEE7C04610B500F0EFF800F055
:1019300069F80B4C80220B49200000F0BDF90A4BDE
:10194000283C206103610123084A0375136A084992
:101950000B40136262B6074800F0CAF910BDC046DA
:10196000B0040020ACE800080001002000ED00E019
:10197000FFFF00FFB4E8000872B6014B5862FEE7B3
:1019800088040020F8B58026CE4647461B4DF60554
:101990006C69726A286AA36880B5111A99421DD3CE
:1019A0002F000022143790460AE062B62069C8472B
:1019B00072B66C69726A286AA368111A8B420DD8D4
:1019C000E268C318914642462B6223685F606B61F0
:1019D000E260BB42E9D100F049FAE6E708498C42EF
:1019E00006D01818801A022806D3801800F044FA8E
:1019F0000CBC90469946F8BD0220F6E7880400200A
:101A00009C040020054B1A0014325A619A6101228D
:101A10005242DA6100221A627047C04688040020F0
:101A200070B503618023DB050500C260586A022996
:101A300000D20221164E32007369143293421DD037
:101A4000326A0818841A9A68A24203D911E01B6806
:101A5000A41A9A68A242FAD35A682B606A60156089
:101A60005D60AC609A68141B9C6001235B42F3616B
:101A700070BD00F001FA73699A68EBE73062756136
:101A8000B56108182B606B60A96000F0E7F9EFE71B
:101A9000880400201C4B10B55969026881420ED0A1
:101AA000416814330A60026851600021C1609A42A3
:101AB00004D0916883688C466344936010BD18001D
:101AC000002414305A615060CC60824218D088687B
:101AD00091681B6A8C46604490608022D205526AED
:101AE000D11A8842EAD99B1A1818022803D3801801
:101AF00000F0C2F9E2E70220801800F0BDF9DDE74E
:101B000000F0B4F9DAE7C046880400200022024B56
:101B10001B605B609A607047880400200023826825
:101B20000375054B1B6899689142FBD25A680360A4
:101B300042601060586070478804002010B572B68B
:101B4000037D032B0AD0042B0CD0002B04D00123DF
:101B50005B428361FFF7E2FF62B610BD002283693A
:101B60001A60F4E74268036813605A60EFE7C04602
:101B7000002382680375054B1B6899689142FBD866
:101B80005A68036042601060586070478804002003
:101B900070B50C4C25692875206803685C6023606B
:101BA000012320610375EFF309832A69243B9A42DC
:101BB00003D82900FEF7E8FA70BD0348FFF7DCFE02
:101BC0002069F6E788040020D4E8000830B5050055
:101BD00087B04B1C12D00B4C0B4A236901A8FFF7AE
:101BE0001FFF2800FFF7D4FF049B002B02D001A8A1
:101BF000FFF750FF2369986907B030BDFFF7C8FFB2
:101C0000004CF7E7880400203D1B000870B5040075
:101C10000F4DA3682869A1618268934203D8200010
:101C2000FFF77CFF70BDFFF779FF012306002C61F1
:101C30002375EFF309830269243B9A4204D83100EB
:101C40002000FEF7A1FAEDE70248FFF795FEF6E760
:101C500088040020D4E80008044B1A6919689068C9
:101C60008B689842804140427047C04688040020FB
:101C700070B50D4C236820691A68546022600122F7
:101C80001A752361FFF774FF0500EFF309830269FA
:101C9000243B9A4204D829002069FEF775FA70BDEA
:101CA0000248FFF769FEF6E788040020D4E8000840
:101CB00010B5FFF7DDFF10BD0223826083827047FD
:101CC000836841681A00203A11610169443BD3607E
:101CD00019614169596105491962C368100093602F
:101CE00002231375002353757047C046A9010008ED
:101CF0004368826810B5934204D2552119700133AC
:101D00009A42FBD172B6FFF7DBFF00210400FFF718
:101D10007DFF62B6200010BD70B54518A84205D2FF
:101D20000400552626700134A542FBD172B6203935
:101D30004418210024392061E1600B61049B2000DC
:101D40004B61054B0B620223A260A3820021FFF7C7
:101D50005DFF62B6200070BDA901000810B5034BFD
:101D60001B6998610F20FFF713FF10BD8804002046
:101D700010B572B6FFF7F2FF10BDC04610B50100F6
:101D800072B60820FFF722FF62B610BD10B5002919
:101D90000AD0074B42681B6918605A6013604360A1
:101DA0000420FFF713FF10BD01204042FBE7C046AF
:101DB00088040020036810B5984206D01A680260B3
:101DC000506099611800FFF7A9FE10BD70B50400BE
:101DD00000680D00844208D0036823605C60856160
:101DE000FFF79CFE20688442F6D170BD80B500AF3D
:101DF000EFF30983203383F3098862B6BD4680BDC3
:101E0000B0B500AF0F300ED072B6EFF30984203CAE
:101E100084F3098880235B04E361FFF71DFF00283A
:101E200003D0034BA361BD46B0BD024BA361FAE7EB
:101E3000B5010008B801000810B500F0DBFE00F0A5
:101E4000F3FA00F0B1FC00F097FB01F0D7FA00F0D4
:101E500001F810BD10B500F045FF10BD8023002231
:101E6000DB0558631A610232DA6070478023002272
:101E7000DB05DA607047C0468023DB055863704796
:101E8000C36819608268013282608269944642693F
:101E90006344C360934201D3036AC3607047C04682
:101EA00030B51D00002404325543C361039B4D1916
:101EB000C362049B45610060406084600161C16051
:101EC0008261016244628462036330BD00230221A7
:101ED00010B5026A83600261C26043628362494254
:101EE000FFF774FF10BDC04610B50400FFF7C8FF30
:101EF00000212000FFF75EFF10BDC046836810B5CB
:101F00000400002B07D000202269131D12686362B1
:101F10009B18A36210BDFFF739FF0028FAD1F2E742
:101F2000826983689446013B836003694269634424
:101F300010B50361934201D3036A03610023436236
:101F4000C36A002B00D0984710BDC04670B504008E
:101F500072B6436A002B0CD0A26A1D78013363620B
:101F6000934202D262B6280070BD2000FFF7D8FF6E
:101F7000F8E7FFF7C3FF051EF4D1636AECE7C0463C
:101F8000F8B5CE464746040080B589461700984606
:101F900072B6002515E0A36A7E1B5B1A9E4200D92B
:101FA0001E0032004846FFF7A9FB636AA26A9B192C
:101FB0006362AD19934202D32000FFF7B1FFAF4235
:101FC0000AD9616A0029E6D141462000FFF796FF51
:101FD000002801D1616ADEE762B628000CBC904699
:101FE0009946F8BDC3680269934201D0181D704735
:101FF00082680020002AFAD1F8E7C0468368002BE7
:1020000003D0006908C80B6070470020FCE7C04699
:10201000826983689446013B836003694269634433
:1020200010B50361934201D3036A03610021FFF7F6
:10203000C1FE10BDC368026910B50400934207D009
:102040001A1D6262A269002094466344A36210BD17
:102050008268002AF4D0FFF799FE0028F7D1E368E0
:10206000EEE7C04610B50400FFF70AFF00236362E5
:10207000E36A002B01D02000984710BD70B5040022
:102080000D0072B6436A002B0FD01D70636AA26AFE
:1020900001336362934202D262B6002070BDA3692D
:1020A0002000191FFFF7DEFFF6E71100FFF7C2FF60
:1020B000002801D1636AE8E762B6EFE7F8B5CE46DB
:1020C0004746040080B589461700984672B6002539
:1020D00018E0A36A7E1B1B1A9E4200D91E004B46C5
:1020E00032005919FFF70AFB636AA26A9B196362FF
:1020F000AD19934204D3A3692000191FFFF7B2FF63
:10210000AF420AD9606A0028E3D141462000FFF7B8
:1021100091FF002801D1606ADBE762B628000CBCA1
:1021200090469946F8BDC046836870B50400002506
:10213000002B06D1416A002903D0C3680439C91AAB
:1021400001D1280070BDFFF79BFE65620135F8E7FD
:1021500003000269C169013A02614A1CC261C06898
:10216000405C59698A4201D30022DA617047C04657
:1021700003690133036183695A1C8261C268D154C7
:1021800083694269934201D3002383617047C0464B
:1021900010B50024006040600461C160C4618461C6
:1021A0004261836010BDC0460023022110B5C361A7
:1021B000836103614942FFF709FE10BD036942696B
:1021C00010B50400934207D2FFF7D2FF2000002190
:1021D000FFF7F0FD002010BD01204042FBE7C046A4
:1021E00070B5040072B60369002B0BD02000FFF716
:1021F000AFFFA3680500002B01D02000984762B60E
:10220000280070BDFFF7C2FD051EF8D1EEE7C046FD
:10221000F0B54E46DE4657464546E0B583B004006D
:1022200000919146019372B6002711E02A004046C2
:10223000FFF764FAE369EE182369E6615B1B23612B
:102240007F19A368002B01D020009847B9452DD9EC
:102250002369002B22D04A46D51B9D4200D91D0080
:10226000002DEED0009B9846B844012D27D063691D
:10227000E6699B469B1B9A46E36899195545D5D359
:1022800052464046FFF73AFA5B464046F61A761940
:1022900050443200E168FFF731FACDE701992000A0
:1022A000FFF774FD002801D12369D4E762B6380036
:1022B00003B03CBC90469946A246AB46F0BD200018
:1022C000FFF746FF434601371870BAE770B50400C0
:1022D0000D0072B6036941698B420BD229002000C0
:1022E000FFF746FFA368002B01D02000984700208D
:1022F00062B670BD1100FFF749FD0028F8D1EDE787
:10230000036970B50400002B08D0FFF721FF0021FE
:1023100005002000FFF74EFD280070BD01256D422D
:10232000FAE7C046F0B55746DE464E464546E0B5AC
:1023300083B0040000919246019372B60027B8461C
:1023400011E02A004946FFF7D9F9A369EE1823697D
:10235000A6615B192361A844A368002B01D020006B
:102360009847C2452ED923696769BB4221D252469C
:102370004146FB1A551A9D4200D91D00002DEBD095
:10238000009B43449946012D25D0A669BB1B9B4663
:10239000E36898195D45D4D35A464946FFF7AEF92C
:1023A0004946F61B761959443200E068FFF7A6F952
:1023B000CDE701992000FFF7E9FC002802D1676909
:1023C0002369D4E762B6404603B03CBC90469946C8
:1023D000A246AB46F0BD19782000FFF7C9FE0123E5
:1023E0009C46E044B8E7C046012110B50830494298
:1023F000FFF7F6FE10BDC046012210B5283052424C
:10240000FFF764FF10BDC046012310B508305B42E2
:10241000FFF7FEFE10BDC046012310B528305B4219
:10242000FFF780FF10BDC04610B500F0C9FC10BD1D
:1024300070B515000A4A0B00026001000122040079
:102440000271483108303F32FFF7A2FE2100200020
:102450002B00883128304022FFF79AFE70BDC0461D
:10246000E4E8000810B5040072B600F0D3FC0223C3
:10247000237162B610BDC04630B59E25046B6D0059
:10248000625983B013681978042902D1217902298D
:1024900001D003B030BD117901228A401B8913425B
:1024A000F7D1200001A93C30FFF7A8FD021EF0D0B3
:1024B000635919791868019B00F0CCF9E9E7C04627
:1024C00070B59E256D0042590400136819780429DF
:1024D00002D10179022901D0012070BD5179012278
:1024E0008A405B891342F7D10830FFF77BFD021E5B
:1024F000F2D0635918685979402300F099F9002007
:10250000EBE7C04610B5006BFFF7DAFF10BDC04621
:10251000012110B508304942FFF718FD10BDC04633
:102520009E235B00C35810B51B681B78042B05D194
:1025300001223C305242FFF7A1FD10BD0220404273
:10254000FBE7C046012310B508305B42FFF718FDDA
:1025500010BDC04603009E204000185810B500680A
:1025600004780020042C00D010BD3C331800012357
:102570005B42FFF7A3FDF7E77047C0460E4B10B56F
:10258000036001230400010003710C4B82B000932F
:1025900070310830019401234022FFF781FC2100B3
:1025A0002000074BB43100933C30019402234022B9
:1025B000FFF776FC02B010BD04E90008052500080D
:1025C000792400080A6872B60B7909339B00D31886
:1025D00058604B7911339B0098508B79002B03D0B6
:1025E00009339B00D21850609E235B00C1503B3BD7
:1025F000FF3B037162B6704710B504000830FFF767
:1026000065FC20003C30FFF761FC10BD10B50400F4
:102610000830FFF75BFC20003C30FFF757FC200040
:10262000FFF74EFF10BDC0467423C15C143B02008F
:102630000B400020202B00D070475533D35C202B5B
:10264000FAD3212B05D8064B012093660723D366C6
:10265000F2E7222BF0D19066D0660120ECE7C0466D
:102660000003002070B59E256D00425982B01368AA
:1026700004001978042902D10179022901D002B09D
:1026800070BD117901228A401B891342F7D10600DF
:102690003C363000FFF748FD0028F0D001A930009B
:1026A000FFF7ACFC6359020019791868019B00F030
:1026B000D1F8E4E70B00F0B509339B00C3185C6860
:1026C00083B006000F00002C15D072B68D0045199E
:1026D000EB683C345B691B68002B1BD101A920000F
:1026E000FFF78CFC002808D00200019B3900300065
:1026F00000F0B0F862B603B0F0BDEB685A691B8A0F
:1027000012689A42F6D1002300223900300000F00E
:10271000A1F8EFE72000FFF77BFCDFE7113189002C
:1027200010B50C58002C11D072B69E235B00E358F4
:102730001A685B7902339B00D3185B689B69596800
:10274000002904D12000FFF7BBFE62B610BD2000B7
:102750000830FFF7C9FBF5E77047C04610B5040025
:10276000002100F0E7FD0021200000F0CFFD6368AC
:102770001B68002B02D00521200098476423062205
:10278000E25410BD762310B50400C25A0833C25477
:1027900000F09EFB63681B68002B02D00121200023
:1027A00098470323237010BD10B500F067FB10BDE0
:1027B00001230370002301004360030000222C3337
:1027C00048311A60DA6104338B42FAD18260704773
:1027D00010B5040072B600234160C3600361436119
:1027E0008361C36103624362836200F04FFB022393
:1027F000237062B610BDC0468B1C9B0070B5C31819
:10280000050050690E0014005A60002803D00C2205
:102810000021FEF7C7FFA069002803D00C22002189
:10282000FEF7C0FF3100280000F05CFB70BDC04621
:1028300070B501258D4044892C4344818C1CA40033
:1028400004196468A46923600023A260636000F037
:102850000BFC70BD70B501258D4004892C430481AB
:102860008C1CA40004196468646923600023A260BE
:10287000636000F00DFC70BD022310B5642203708C
:1028800000230400C3678360C36003614361836105
:10289000C361036243628362835400F089FB63680F
:1028A0001B68002B02D000212000984710BDC046B5
:1028B00005230370436810B51B68002B01D003216A
:1028C000984710BD04230370436810B51B68002BA4
:1028D00001D00421984710BD70B564230025020083
:1028E0000400C554743200F0A5FB636825679B683B
:1028F000002B1BD020009847002817D0E26E7A23C7
:10290000E35A934200D2E36672B67423E35C7F2BF2
:1029100030D8E36E002B39D0A26E00212000FFF7E3
:1029200087FF64230422E25462B670BD7423E25C24
:10293000143B13421AD17523E05C563B1340012B24
:102940003ED0002B36D0022B10D178220F21A55A71
:10295000083229402A40012800D195E0002800D102
:1029600082E0032800D18FE00C2831D02000FFF74F
:10297000F5FEDAE7E36E002B12D0A26E00212000F4
:10298000FFF768FF64230122E254CDE70023002211
:1029900000212000FFF75EFF64230522E254C3E715
:1029A0000023002200212000FFF742FF64230322BE
:1029B000E254B9E70928D9D8464A8300D3589F463C
:1029C0000028D3D1444B0222A3660223E36696E794
:1029D000414AE366A266022291E776237F22E35C06
:1029E000A3545A1E93410333237063681B68002B62
:1029F00002D00221200098470023A366E36683E704
:102A000023007C33A36602230222E36677E72300D8
:102A10007F33A36601230122E36670E776236068B3
:102A2000E15A0233CAB24568E35A090A2000A847AE
:102A300000289BD043680268A366E2665FE7002334
:102A4000A366E366254B23675EE77623E35A012BF3
:102A50008CD17C210222635A9343032801D0635214
:102A6000CAE713436352C7E7C9B22000002A1CD04B
:102A700000F0D0FA01281BD0022800D076E7184BCE
:102A8000E066A36602223AE77623E35A002B00D0E1
:102A90006CE7002900D169E7C9B201280ED02000F7
:102AA000002A11D000F046FCA6E700F09FFAE1E70B
:102AB0000C4B0222A3660223E36620E72000002AD3
:102AC00005D000F065FC97E700F020FC94E700F0EB
:102AD00045FC91E724E9000870E900088527000813
:102AE00068E900086CE90008642310B5C35C0400C1
:102AF000062B05D8184A9B00D3589F46FFF72EFE99
:102B000010BD7A23C06EE35A984205D2E368198A51
:102B1000FDF7E0FB002913D072B60023002200214C
:102B20002000FFF785FE62B664230322E254E7E744
:102B3000036F002B00D0984764230022E254DFE7A4
:102B400072B6002300222000FFF784FE62B66423E1
:102B50000222E254D4E7C0464CE9000870B564256F
:102B6000425D0400062A14D80123934067221A42CA
:102B700010D1DA0611D41B070BD5C3689B695B68BB
:102B8000002B06D1036F002B00D09847642300224E
:102B9000E25470BDFFF7E2FDFBE772B600230022AE
:102BA0000021FFF757FE62B605236355F1E7C046E3
:102BB0000F4A70B594460322FF25C0260240D2007A
:102BC00095408901914083089B006344B6009C595D
:102BD0001F22AC430C439C51012302409340C0226E
:102BE00040098000604452008350036070BDC046BD
:102BF00000E100E00A4B01219A6A002249429962F1
:102C00009A62186919611A61D86806490143D96046
:102C1000DA608022D96952050A43DA617047C046FA
:102C200000100240FFFFBFFF0121234A13680B433E
:102C30001360013113681942FCD0032153688B43A0
:102C400053605368093153601B4A53680B40FCD1F1
:102C5000F92110680140116053608023516B5B02C1
:102C60000B4380215363144A8902536B0B42FCD0FF
:102C7000E523DB0453600023D36210331363802306
:102C800011685B040B43802113600B4A89041368AD
:102C90000B42FCD01121094B196053680F390B43CB
:102CA0005360054A0A3153680B40082BFBD10121C0
:102CB00093690B439361704700100240002002406B
:102CC0008023DB051A6910B57446920703D42000EF
:102CD000FFF796F810BD00221A6172B6FEF752FE99
:102CE00062B6F4E701220E4910B5CB690F201343F9
:102CF000CB610C498B6813438B608023E021DB059B
:102D0000FF319962E139FF39D96200219961596334
:102D1000D96059605A6102311A60FFF749FF10BD4E
:102D200000100240005801408021024A13680B4302
:102D30001360704700380140F8B5C823CE464746B7
:102D40001D4E80B5F458F0462768E569256272B6D5
:102D5000AB060BD5202399460836A18C3000C9B2AA
:102D6000FFF72CFA4B46E5692B42F6D180233B4214
:102D700013D02B4211D0114B8026994604E080B22B
:102D80002085E5692E4208D04846FFF7B9FA0028A9
:102D9000F5DA80233A009A43226040233B4203D075
:102DA0002B4201D09F43276062B64046FFF728F8C8
:102DB0000CBC90469946F8BDCC040020F4040020D9
:102DC00010B5084C084A20000021FFF731FBC8234A
:102DD000064A0221E250064A04331B20E250FFF764
:102DE000E7FE10BDCC040020292D0008003801406A
:102DF000006CDC02C82370B50125C4582368AB43BE
:102E00002360CC23C058FDF7DFF9E06023682B4333
:102E1000236070BDF8B5002922D0402601258B68BB
:102E20004A681E43CB6809681D432E23FF331343B2
:102E30000279012A0AD0C82284586660A5602360FE
:102E4000FFF7D8FF01235B422362F8BD084A904296
:102E5000F1D18022074CD201A7693A43A261EAE787
:102E600096212E230902FF330125034EE0E7C046D9
:102E7000CC040020001002404040000010B5024881
:102E8000FFF796FC10BDC0469C050020037870B586
:102E90000400012B00D070BD0A4A904203D02000EC
:102EA000FFF7EAFCF7E780220749084DC8691204DA
:102EB0000243CA611F202B640321FFF779FE002320
:102EC0002B64ECE79C05002000100240005C0040F1
:102ED0007E238022C35C1343014AD3647047C046FB
:102EE000005C00408B1C9B00C318F0B55D68CE46AB
:102EF000474603232A6880B5134052D00022022B94
:102F00000AD9033B5A42534180225B42D2001A4005
:102F100080239B009C466244234C244BA4461B6D9B
:102F2000CE006344F4186B69002B11D0002363803A
:102F30008033C65899462B8A013398460123474669
:102F40009F43BB194F46C3512023B6B226801A4374
:102F5000AB69002B12D06D8A3E2D1BD801356E084F
:102F6000B602B6B2E680802601278359BD43ED182C
:102F70009BB28551A38080239B011A430B4B880091
:102F80009C46604403680A43036002600CBC9046A0
:102F90009946F0BD20236E1E76111E43B6B2013550
:102FA000DEE780229200B7E700600040005C00404E
:102FB00000230C4A10B51365536443688021DB6815
:102FC000D1645C4263419E242402A4465B425B02BE
:102FD0006344136440234350034B0021C360FFF755
:102FE00081FF10BD005C004074E90008074B8900B8
:102FF000C858C0239B01184006D0054B9C4660442E
:10300000431E9841013070470020FCE7005C0040FF
:1030100000F0FFFF3020064B8900CB58184004D049
:103020001038431E9841013070470020FCE7C0462D
:10303000005C00400A480B4B844610B51B6DC9006C
:103040006344C91888881400614680B20834891A1C
:1030500083185B5A13800232A242F9D110BDC046D8
:1030600000600040005C0040064B89009C466144C3
:103070000A68054B1A40C0239B015A40034B134377
:103080000B607047005C00408FB7FFFF808000003E
:10309000F0B5C6468B1C9B00C01800B54268556948
:1030A000148A68682B681B1A9C4200D91C00164FB2
:1030B000164BBC461A6DCB0062449A181388A7B20F
:1030C000AE685780621C9BB252080CD01B1A9846FF
:1030D0004346371852006344D2199B1B3E88DE5387
:1030E00002379742FAD1094B89009C4661440B682C
:1030F000074A0019134030225340064A68601343C0
:103100000B6004BC9046F0BD00600040005C0040D5
:10311000BF87FFFF80800000F0B5DE464E46574671
:1031200045467346E0B58BB00893724B5E6CF24334
:103130005A64730500D5C3E0330500D5C7E0F30436
:1031400004D56C4B9A6C120400D4CAE0B30506D5C2
:10315000694F7B68DB68002B01D0380098478023DB
:103160001B021E4241D00F229146624A624F904696
:103170009A461AE01A6861480240504602431A60B3
:1031800063695A681B689A4239D301228A403B8995
:1031900093433B81A368002B02D0C9B23800984703
:1031A00043465E6C53461E421FD04946514A314049
:1031B0009446881C8B0082006344BA181D685468CA
:1031C000F206D7D51A684D4E3240802632431A6037
:1031D000CAB201922D0517D56368110038009847CF
:1031E00043465E6C53461E42DFD10898FEF708FE48
:1031F0000BB03CBC90469946A246AB46F0BDC9B266
:103200003800FFF745FFCBE7A2693D4E556893466E
:10321000AC460295926845466244B4462D6D0392D1
:103220006544CA00AA18958865440495D28895B269
:10323000AA050595950D6A08069509920ED05600C7
:10324000039A049D9446AD1A66449C462B0007924F
:103250009D5A158002329642FAD16346059AD207EA
:1032600008D5099A049D5200AD5A039EB5545A469A
:1032700052680292069E5D46B446029A62446A60B3
:103280002D68AA4202D2628AB2420FD901228A4034
:103290007B898000934338187B814368DB68002B6F
:1032A00000D17DE701993800984779E71968154AF8
:1032B0001140C02292015140134A0A431A606FE73D
:1032C0000D4F3800FFF7D8FA330500D437E708214F
:1032D000084A094F136C38000B431364FFF7E8FAF0
:1032E0002DE708211A6C044F8A431A643800FFF74F
:1032F000E9FA2BE7005C00409C0500200F07FFFF68
:10330000006000408FB7FFFF80800000064B8900FF
:103310009C4661440A68054B1A4080235B015A4071
:10332000034B13430B607047005C00408FB7FFFFF7
:1033300080800000064B89009C4661440B68054A6A
:10334000134010225340044A13430B607047C04699
:10335000005C0040BF87FFFF80800000094BC02257
:103360009C46890061440B6892011340934208D047
:103370000A68054B1A4080239B015A40034B1343B4
:103380000B607047005C00408FB7FFFF808000003B
:10339000084B89009C46302361440A681340302B57
:1033A00007D00B68044A134020225340034A1343BA
:1033B0000B607047005C0040BF87FFFF808000000B
:1033C00080B50A4B0A4A196800AF914209D162B62A
:1033D00000221A60074B83F30888074B1B68984745
:1033E000FEE7FFF721FCBD4680BDC046F03F002050
:1033F000EFBEADDE5022002004C8FF1F7047C0465C
:10340000F8B547461D0080460B23CE46434480B5A1
:103410000800170099461C0039000600FCF75AFF07
:103420003023CAB2092900D907339B18013CDBB20B
:103430002370002D02D0013D002DEDD1BE4209D3F5
:1034400039000600FCF746FF0025CAB230230929DF
:10345000EBD9E9E74A46101B002200E0A35C414695
:103460008B5401329042F9D140440CBC90469946AD
:10347000F8BDC046F8B54746CE46140080B5814633
:103480000F1C9046092A01DD0923984643469A00FD
:103490001B4B381CD658FDF791F80500FDF7EAFFE5
:1034A000011C381CFDF7D8FD071C3000FDF7E2FFBA
:1034B000011C381CFDF7BAFCFC218905FDF768F9F1
:1034C000FDF77CF80700864201D8871B01350023F1
:1034D0000A2229004846FFF793FF002C03D10CBCB9
:1034E00090469946F8BD6923064A441CD35C3900CE
:1034F00003700A2243462000FFF782FFEFE7C04631
:1035000078EA0008080300200389012B06D94368E4
:103510005A1C426019700389013B038100207047E7
:10352000F0B5DE46454657464E4600238B4680465C
:10353000E0B58FB001932033039302925B46197874
:103540005F1C00290FD0252915D04346BB461B68B8
:1035500040469B689847019B013301935B4619786D
:103560005F1C0029EFD101980FB03CBC90469946F2
:10357000A246AB46F0BD80203C7800264000802566
:103580001021042202232D2C0ED02B2C0FD0302CF6
:1035900010D06A2C11D0202C12D0622C13D10643EB
:1035A00001373C782D2CF0D11E430137F9E7164343
:1035B0000137F6E70E430137F3E72E430137F0E713
:1035C00026430137EDE7002502992A0006E008C9E5
:1035D000DBB29500AD186D003C785A192300303BE2
:1035E000DBB20137092BF4D92A2CF0D00291150057
:1035F0002E2C00D145E140231E430023BB469946B3
:103600002300443BDBB2342B00D92AE1C64A9B009D
:10361000D3589F460822029F08AC02CF0023200007
:10362000FFF7EEFE8246031B0297ED1A69D43023A2
:103630000393F30600D421E1B30765D5544500D3C5
:10364000D5E1019B474601331B1BA84656461D008A
:103650003B6821789B68380098472B190134A642B3
:10366000F6D845461E00B846002D00D1C3E12C0017
:103670004746A846039D3B6829009B683800013CEB
:103680009847002CF7D145467319B846019355E782
:10369000029FF30500D51EE1072307379F4303CFA1
:1036A0000297FDF779FF824600215046FCF714FF90
:1036B000002800D019E1730700D4BCE108AB1A0060
:1036C00004932B23944613702A3B634405933306DB
:1036D00004D56A23059A1370531C059393495046E9
:1036E000FCF70EFF002800D187E11923059A049CFE
:1036F0001370931C9A462023537053461B1BED1ADC
:1037000095D50025B30799D42C23334202D0F30674
:1037100000D5D0E02E1E12D04746A046039C3B6841
:1037200021009B683800013E9847002EF7D1019B8D
:1037300044469C46AC446346B84600250193544534
:1037400000D27EE7FAE6029F02CF002900DADCE031
:10375000730700D47FE108AB1A0004932B23501C9D
:103760001370330602D56A230370013000230A2246
:10377000FFF746FE049C8246031B029755E7102381
:103780003200029F9A4310CF002C00D1C7E023786B
:1037900071066BD5002B6ED06549230004E0E01A5A
:1037A0004018013000D141E1013318780028F6D1EA
:1037B0009A4602971B1B160037E7029B04CB079320
:1037C0004B46002B00D182E04C460E2B00DD0E2430
:1037D00001230293002308A989469C460E334B44DB
:1037E0001F00012399461F339A46230064469C46D6
:1037F000504893085108C9180B09C9180B0AC91871
:103800000B0CC918C9088B005B185B00D31A092B75
:1038100003D90A3B0131092BFBD830337A1EDBB2C6
:103820001370002900D189E04B46034203D0534670
:10383000BA1E13700134170040080A00D9E710239C
:10384000029F9E4308CF08AA137014000123029719
:103850000122A44662449246E7E61022DBE60A22F1
:10386000D9E608AB1C70012308ACF1E7002B02D0AD
:103870004B46591E91D2A24616000297202303936D
:10388000DAE60023944618000D0006E008CDDBB20E
:103890000F0082001218520098183C78791C2300FF
:1038A000303BDBB2092BF3D92A2CEFD002958146AD
:1038B00065468B46A4E643461B6821789B684046D4
:1038C0009847019B661C01330193340022E70333C0
:1038D00002930E247EE708CF00219A4650460297B5
:1038E000FCF7FAFD002800D1E5E608231E4308ABEB
:1038F0001A0004932D23137080231B0653449A4609
:103900009446012363440593E1E608231E4308AB74
:103910001A0004932D2349421370501C21E7064CD2
:103920007306A5D5024938E790E90008FFFF7F7FBD
:10393000FE7F00002449000070EA00086146A446AA
:1039400060460C00A4490127095C0E20059108A9D6
:103950008C467F4267446044BC46801A8444012000
:103960008146013082462800009365460491069600
:10397000029F009B844609E0002E11D04E1C3200AD
:103980000B708D4215D03100020003784E46501C5A
:103990003E40202BF0D1002E23D04B469F432E23B8
:1039A000621E002C52DB4E1C14000B7032008D4244
:1039B000E9D16546069E0297531C9A46029B9B07D7
:1039C00007D5059B202B04D020231370931C52464F
:1039D0009A46059B049C13705346079A1B1B029240
:1039E00023E656463E42DBD1901C5378D8E7019E31
:1039F000002D00D03BE60196A0E5730633D5462C9A
:103A00003FD00923994651464A460598FFF732FDB3
:103A100082461023334200D08EE05346049C1B1B89
:103A2000ED1A00D42AE7049C002505E69A46029781
:103A30001B1B1600F9E5202333421ED008AA94462A
:103A400013701F3B63440492059340E6069E029761
:103A500065460A00B0E7202333420AD008AA049240
:103A60001370501C7DE6462CCDD14B461BB20693FD
:103A70000AE008AB0493180073E608AB04930593BF
:103A800025E603239946069354495046FCF742FD28
:103A9000002877D052495046FDF7C8F94E4C071C14
:103AA00002344E49381CFCF735FD002808D0381C7C
:103AB0004B49FDF7BBF901342378071C002BF0D1EB
:103AC000BA46013C2478002C03D04B46013B1BB284
:103AD00006935046FCF772FD63284CD9069B023BC7
:103AE0001BB20693069B002B3EDB069F51463A0015
:103AF0000598FFF7BFFC8246002F14D00300013B5E
:103B00001A78302A06D1013B591C013B5A78302AD9
:103B1000FAD08A4669233349CB5C9B1A5A425341F7
:103B20005246D31A9A46002C00D172E753461C70B5
:103B300001239C46E2446CE75E405346013B1B7800
:103B4000302B07D15246023A511C013A5378302BA0
:103B5000FAD08A462E2B03D101235B429C46E244D5
:103B60005346049C1B1B60E5514600220598FFF755
:103B700081FC8246D7E70928B4D9069B013B1BB2DA
:103B80000693AFE7FE2150468905FCF7A5FC002807
:103B900001D100249DE711495046FDF747F9124C29
:103BA000071C0134FE21381C8905FCF795FC002810
:103BB00008D0381C0949FDF739F901342378071C6E
:103BC000002BEFD10649381CBA46FCF799FC0028B7
:103BD000DFD0013C247876E764EA000800007A44EC
:103BE0006F12833A08030020A0EA00080CB430B535
:103BF000030085B00C000020002910DD0A4A01AD49
:103C00000192298109AA0899280002930092FFF7DE
:103C100087FC00226B681A70844200DC601E05B0CD
:103C200030BC08BC02B01847ACEA000802290ED02C
:103C3000032905D0012901D0002070470548FCE781
:103C40000020032AF9D80448D2008018F5E7034879
:103C5000F3E7C04658EB0008BCEB00080CEB00088B
:103C600010B572B60248FEF7FDFC62B610BDC04644
:103C70002C06002010B5040072B6022906D00329D4
:103C800002D10948FEF7B8FC62B610BD074A01210F
:103C9000FEF7B2FD2000064A0221FEF7ADFD024804
:103CA000FEF7B4FCF0E7C0462C060020BCEA000892
:103CB000D8EA000870B5051C081C161CFCF768FD46
:103CC000311C041C281CFCF763FD011C201CFCF7A4
:103CD0005FFDFA218905FDF7A9F870BD044B10B509
:103CE0001B680A0019680C6801001800A04710BD85
:103CF0004420002070B5002402780B787C2B1AD069
:103D00009A4213D1002A0AD0461C01310B7835782B
:103D10007C2B11D00136AB4208D1002BF5D120000D
:103D200070BD01310D787C2B0AD02B00002BF8D10F
:103D300001246442F3E71500002DF0D00B78F5E77D
:103D400001342B00DAE7C046F0B5DE4657464E4652
:103D50004546E0B5554B87B003905B8B0593002B30
:103D600000D18EE0AC229446F522504B9200634481
:103D7000944698464E4A4D4B4546634494469A466F
:103D80004A4B544663441E0000239B4635E0011C09
:103D9000FE208005FDF760F9011C0490381CFDF73A
:103DA00045F85146071C4846FDF756F9009B191C7B
:103DB0009946FDF73BF8011C381CFDF74DF90299B7
:103DC000071C4046FDF748F94946FDF72FF80499CE
:103DD00081460198FDF72AF8011C4846FCF7D8FCFB
:103DE00080464346736001239C46059BE34437604D
:103DF0000835083408369B4543DA33682A68181CAE
:103E0000111C02939046FDF727F97268071C924631
:103E10006A685046111C9146FDF71EF96368039AC3
:103E2000019000932068012AB1D0FE218905FCF79A
:103E3000AFFC011C8146381CFCF7F8FF019B029087
:103E40000099181C9846FCF7F1FF49468246404607
:103E5000FCF7ECFF00998046381CFCF7E7FF011CDB
:103E60004046FCF795FC039B8046013318D102992C
:103E70005046FDF7F1F880231B064344071C984683
:103E8000AFE70422094B9B8C934340221343074A1C
:103E9000938407B03CBC90469946A246AB46F0BD21
:103EA00051460298FDF7D8F8071C9AE7A0070020B2
:103EB000FC060000012110B50C00084A138B1C40C1
:103EC000844209D08B4303430A20138305F07CFB13
:103ED00068230021024AD15410BDC046A00700202B
:103EE0000803002010B5012800D010BD08680B4958
:103EF000FFF700FF00280AD0012804D14021084A1A
:103F000013788B431370C62005F05EFBEDE740216C
:103F1000034A13780B431370F5E7C046F8ED000829
:103F2000A4030020F0B545465746DE464E46E0B5B0
:103F3000884687B0051E92466A4C00DB9FE0E36826
:103F400001938B4200D399E0638C013B9BB29B466B
:103F500023695D468B4200D891E00027019A9E1AA2
:103F6000881A00235A460021FCF7FEFA32003B0073
:103F7000FCF7DAFA050032003B00C1172800FCF715
:103F8000F3FA02900391594600234A0802980399D4
:103F9000801859415A4604900591FCF7C5FA8146AC
:103FA00004980599019B801979414B4402935A4624
:103FB0000023FCF7B9FA4946019A029B1618471AE2
:103FC00098455CD0002F6CD04246D01AFDF752FACB
:103FD00081463800FDF74EFA011C4846FCF750FDBB
:103FE0008146029802F0B6FF0700300002F0B2FFEF
:103FF000B84259D16F1CFE2049468005FDF72CF8C8
:10400000FB00AC33E41828235646FF009A4680464E
:104010007B424F460293EB009B460433B24401932C
:10402000029B4046E5185B46E958FCF7FFFE216815
:104030008146381CFCF7FAFE011C4846FCF7A8FB39
:10404000019B3060E9584046FCF7F0FE6168051CB2
:10405000381CFCF7EBFE011C281CFCF799FBCA235B
:104060009B009C467060083664445645D8D107B022
:104070003CBC90469946A246AB46F0BD002553464F
:104080005646ED00AC356419283322683260626808
:104090007260CA229200944608366444B342F4D156
:1040A000E5E7002399469CE7404602F053FFB842FB
:1040B0000BD0AB45E3DDFE2148468905FCF7CCFF7C
:1040C0006E1CAF1C8146350095E7002DD7DDFE2123
:1040D00048468905FCF75CFB6E1E2F0081463500C3
:1040E00089E7C046A007002030B50024094D83B001
:1040F000A0222100022352000020009509F0AEF812
:10410000A0212800C9000234FFF7E8FDF02CEFD110
:1041100003B030BDE42D002010B508F0F9FB10BD50
:10412000F8B50E1C051C111C301C171CFCF77EFE7C
:10413000291CFCF77BFE400040080AF0B1F9391C4D
:10414000041C301CFCF724FB291CFCF721FB00217C
:10415000FCF7C2F9002803D080231B069C46644468
:10416000201CF8BD10B5094C628B002A0CD0CA2364
:104170009B005843AC300019002300240133016038
:10418000446008309342F9DB10BDC046A007002010
:1041900010B5031C082800D90823034A0420137013
:1041A00005F012FA10BDC04650200020014B1878CF
:1041B0007047C046502000200121024A13788B43EB
:1041C00013707047A403002010B5FFF7F5FF10BD72
:1041D0000121024A13784B4013707047A40300205A
:1041E000F0B5FE21C646890500B58046FCF7D0FA39
:1041F000FA210C4F061C3D1D44462C37890500E072
:1042000002CD201CFCF712FE4146FCF70FFE011CFC
:10421000041C301CFCF7BCFA061CAF42F0D104BCF5
:104220009046F0BDF0F4000870B5002A12D04C1E84
:10423000231A584350435043FDF71CF9051C200036
:104240006043FDF717F9011C281CFCF719FCFFF768
:10425000C7FF70BDFE208005FBE7C0460FB400B568
:10426000074B83B01868002808D005AA049901926A
:10427000FFF756F903B008BC04B018470020F9E76F
:104280004420002010B502490248FFF7E7FF10BDA7
:1042900038EC0008D4F2000870B5074C21680029FA
:1042A00009D0064D043428000434FFF7D7FF231F3C
:1042B00019680029F7D170BD78030020D4F20008F6
:1042C00070B50948FFF7CAFF084C0949094D0A347F
:1042D0002800FFF7C3FF6188238809041943F6D13A
:1042E0000548FFF7BBFF70BD30EE0008DCF20008A8
:1042F00028EE00083CEE000888F50008F0B54F46AF
:10430000D64646460500C0B50F00002812D016DD7F
:104310002A4B002498462A4B2A4E99469A46A300D7
:10432000F8583100FFF7E6FC072804D84346800020
:104330001B589F46234E31002348FFF78FFF1CBCBC
:1043400090469946A246F0BD534618221B8B9343D4
:10435000524613830134A542E1D1F0E71821184AEF
:10436000138B8B4308210B431383F3E70621144A75
:10437000138B8B431383EDE70621114A138B8B4379
:1043800004210B431383E5E706210D4A138B8B436E
:1043900002210B431383DDE70020FFF78BFDD9E7F4
:1043A0000120FFF787FDD5E74B4618221B8B93436F
:1043B000102213434A461383CCE7C046DCEB0008C7
:1043C000A00700200CF20008ECF1000810B501284D
:1043D0000BD108680B49FFF78DFC002805D10A486E
:1043E000FFF73CFF08F0A0FB10BD0848FFF736FFC1
:1043F000BFF34F8F064B074ADA60BFF34F8FC046BB
:10440000FDE7C04620EF000824EF000844EF000855
:1044100000ED00E00400FA0510B509F081FB010091
:104420000148FFF71BFF10BDCCF2000810B50C4887
:1044300082B0FFF713FF08F04DFA0A481022835E9E
:104440000E21425E0C24015F1224005F009006489A
:10445000FFF704FFE320400005F0B6F802B010BDFE
:1044600018F100080803002044F1000810B50128E5
:1044700003D00A48FFF7F2FE10BD08680849FFF7AD
:1044800039FC002805D109F085FA0648FFF7E6FE59
:10449000F2E70548FFF7E2FEEEE7C046E0EC000871
:1044A00008ED000824ED000810ED000810B509F033
:1044B00097F90248FFF7D2FE10BDC04664EF00082E
:1044C00010B50278411C00242D2A04D1831C4278A7
:1044D0000800190001342B2A01D142780131303A09
:1044E0000020092A08D883001B185B0098180A7856
:1044F0000131303A092AF6D9002C00D0404210BDD3
:1045000010B5012805D0064B0648198BFFF7A6FE0B
:1045100010BD0868FFF7D4FF014B1883F8E7C046C9
:1045200008030020B8F0000870B50D00022807D07D
:104530000122524214002100022008F0ABFC70BDA1
:104540000868FFF7BDFF04B26868FFF7B9FF02B261
:10455000F1E7C04670B50C00022800D070BD0868B5
:10456000FFF7AEFF05006068FFF7AAFF29B202B2AD
:10457000012008F08FFCF1E710B5012803D00748AF
:10458000FFF76CFE10BD0868FFF79AFF0728F6D802
:1045900009F06AF9042005F017F8F3E758EF00086E
:1045A000F0B54746CE4680B5E1B06A46294B2A4C65
:1045B0001A60C023238027883FB2012841D0002001
:1045C00002F078FE8023DB055B6A244A0A3313601D
:1045D000234B244A5B8B02339BB2138023881BB28C
:1045E000002B04DD30BF23881BB2002BFADC002F28
:1045F0001CDD6B460021595E1B4B002418009846B9
:10460000FFF72CFE6B469E1C184B01340125994682
:10461000A7420BDD0023F15E40460135FFF71EFE89
:104620000C2D08D002360134A742F3DC61B00CBC7B
:1046300090469946F0BD4846FFF710FE0025023629
:10464000F1E70868FFF73CFF0138431E9841084B2B
:104650001880B4E7181800201C180020741E0020D1
:1046600008030020F8240020F0ED000888F5000879
:104670001E180020F0B5CE46474680B583B001280D
:1046800023D0204B204C984643465B8B002B17D001
:104690001E4B002599462068FCF72CFF0600606839
:1046A0000F00FCF727FF3B000090019132004846C5
:1046B000FFF7D4FD43465B8B01350834AB42EADC9F
:1046C00003B00CBC90469946F0BD0868FFF7F8FEB1
:1046D00006280AD801280CDDCA24831EA4005C43E6
:1046E000084BAC3498464444CEE70948FFF7B6FD82
:1046F000E6E7CA24A4004443034BE418014B984660
:10470000C2E7C046A007002020180020E8ED0008FE
:10471000D0ED000810B5037802002B2B01D14378AF
:1047200001320A21302B0ED00020202402E0484321
:10473000C0181378303B0132102B01D9A343073B3B
:104740008B42F4D310BD50786F2809D0782805D05B
:104750006228E9D1083993780232E5E71021FAE7B7
:104760000821F8E7F8B5CE4647460D0080B5022887
:1047700026D02548FFF772FD244BF8269946E02302
:104780005B0100249846F827214D36041C3541462C
:104790002B884846DA080A40590939400A43190467
:1047A00031405B070A431B0C21001A430134FFF719
:1047B00055FD0235202CEAD10CBC90469946F8BD37
:1047C0000868FFF7A7FF83B204001F2BF4D86868BE
:1047D000FFF7A0FFE022F8210D4B2404E40B1C1985
:1047E0001202C3001340490142010A401343F82258
:1047F000010C0A4000041343400F0343E320400030
:10480000A38304F0E1FED7E788ED0008A4ED0008DB
:104810000803002010B5012805D0064B064859684A
:10482000FFF71CFD10BD0868FFF774FF014B5860CF
:10483000F8E7C0460803002080F0000870B50C00BF
:1048400090B000282AD0022828DC1C4B1B7DDB06F8
:1048500024D4022824D01A4E24682000FCF7F6FF46
:10486000184D0200210033002800FDF75BFD2800F1
:10487000330002221449FDF755FD203D134C05E09D
:10488000236802001B6869462000984733004022D5
:1048900069462800FDF7BCFC0028F1D110B070BDBE
:1048A0004868FFF737FF0A4BFA215843094B890044
:1048B0009C466044FBF788FC0600CDE70803002017
:1048C000204E0000F404002088F500082C0600208B
:1048D000A0860100E703000070B50D000A4C022815
:1048E00004D021000948FFF7B9FC70BD21002868F9
:1048F000FFF700FA061EF4DB6868FFF70BFF81B2D2
:10490000B0B208F039F9F0E7A0EE0008B4ED000805
:1049100010B5012805D0064B06481978FFF79EFC14
:1049200010BD0868FFF7F6FEC0B2FFF731FCF7E7ED
:10493000502000200CF0000810B5012805D0064BCF
:104940000648196EFFF78AFC10BD0868FFF7E2FE03
:1049500002F0D8FAF3E7C0460803002070F0000820
:10496000F0B546464F46D646C0B5324B324D1E686E
:1049700086B0354004955B68304C89461C409846AB
:10498000059403283FD02E4F022817D07F2042469F
:104990003F2306402804000E13402D0C22040190F2
:1049A000120E210C0397029600952648FFF756FC3D
:1049B00006B01CBC90469946A246F0BD4B46390055
:1049C0001868FFF797F94B4682465868FFF7A2FE32
:1049D00053468146002BD9DB6328D7D852461A4B61
:1049E0000A219D5C04AB9C466544FBF7EDFB0A2164
:1049F00004014846FBF76EFC0C432C7004990598A3
:104A000009F062F9D4E74B4610491868FFF772F9CC
:104A1000002801D00A4FB9E74B465868FFF77AFEE5
:104A20004B4604009868FFF775FE0100200009F06E
:104A30004BF9BDE7002800407F7F7F003F1FFF004C
:104A4000A8F80008C4F000082CF50008C0F0000821
:104A500010B5012803D00848FFF700FC10BD086816
:104A6000FFF758FE0400FFF7A7FB044B2000D97F97
:104A700002F088FAF2E7C04600EE0008A007002026
:104A8000F0B5C64600B5067804002D2E25D00023CB
:104A900098462B2E23D02000FFF712FDFCF7A0FC38
:104AA0003300303B051C092B05D801342678330030
:104AB000303B092BF9D92E2E2BD02378202293437B
:104AC000452B0FD04346002B03D080231B069C466A
:104AD0006544281C04BC9046F0BD012398466678C6
:104AE0000134D8E7601CFFF7EBFC041E0EDD281C28
:104AF0001949FCF79BF9013C051C002CF7D1E1E7B3
:104B0000281C1649FCF792F90134051C002CF7D13A
:104B1000D8E76378621C1E00303EF1B21400092908
:104B2000CCD8FE27BF050D49381CFCF77FF9071CC0
:104B30003000FCF755FC391CFCF778F90134011CF6
:104B4000281CFBF725FE2378051C1E00303EF2B220
:104B5000092AE8D9B2E7C04600002041CDCCCC3DBF
:104B600010B50400042004F02FFD032C00D9FF240D
:104B7000064BDA7FA24204D0DC77054B1B78DB07BB
:104B800000D510BD200002F04DFBFAE7A007002081
:104B9000A403002010B500280CD0012806D1086815
:104BA000FFF78EFCC0B2FFF7DBFF10BD0448FFF734
:104BB00055FBFAE7034B0448D97FFFF74FFBF4E7B7
:104BC000D8EE0008A0070020CCEE000870B5184C05
:104BD000184A2300283323CA23C323CA23C323CA62
:104BE00023C323CA23C32000402213495830FCF7B3
:104BF00085FD00239C22A3500432A3500432A3500D
:104C0000A8230E4AE2508C22103BD201E2520C4AF9
:104C10000C4B6260E260CA22A36023610023D203CE
:104C2000A261094A6361E261084AA384226270BDFD
:104C3000A0070020C0F4000880F4000800004842EB
:104C400050C3000000E9A4350000FFFFFF0065002D
:104C500030B51148114C438B628B1149DB05D205ED
:104C6000920BDB0D0D8813430F2168222940A55CB0
:104C70008904613A2A400B43617D9205490613433A
:104C8000084A0B431365436853658368936543691A
:104C9000D365237D136630BDA007002008030020E4
:104CA000E63D002000280040F8B5214D2B889BB23E
:104CB000002B32D080221F49D205526A09689142E6
:104CC0002BD882072FD41C4C1C4A528B01329A429B
:104CD00024DA02F0CDFB1A4B00260020185E194B97
:104CE0004000201807009C461A681749C0370B88F7
:104CF0001400002B19D00B880232013B1BB20B8031
:104D00000026835F043023800126B842EFD163463A
:104D10001A602B88013B9BB22B80F8BD60212000DC
:104D200002F0E6FAD7E7094CCEE7002EEFD1F0E724
:104D3000F8240020741E0020781E002008030020A4
:104D40001E180020181800201C180020381F0020F2
:104D500010B5044BC005C00D5883034804F034FC63
:104D600010BDC046080300200202000010B5012853
:104D700024D002280CD0FA20154B00015C8B611C5A
:104D8000FBF7ACFA210002001248FFF767FA10BDEA
:104D90000868FFF7BFFCFA2283B20100120100206D
:104DA000934208D8072B10D90904090C1000FBF70F
:104DB00095FA013880B2FFF7CBFFDCE70868FFF710
:104DC000A9FC80B2FFF7C4FFD5E70348F3E7C0466C
:104DD0000803002080EC0008FF010000411CFA20BD
:104DE00010B50001FBF77AFA10BDC04610B50400FB
:104DF000084B1988084B18684B086043C018FBF72C
:104E0000E3F9064B064A1B68126863439B18C018F7
:104E100010BDC0469807002094070020900700208E
:104E20009C070020F0B557464E46DE464546E0B5A5
:104E3000CE4B9DB0CE4C05909A465A8B238889461E
:104E40009A4200D833E1002800D036E1059B238048
:104E50008022C84B92059A61A4235246C649D05875
:104E6000FBF7E4FF09F026FC0A90112008F01EFB76
:104E7000534620885D8BA84200D337E103234A467E
:104E80001A4002924A46023B1A4001924A460133B6
:104E90001A40002303930A339846002393464A4658
:104EA000049320331A404B460892C146984652E07C
:104EB000019B002B72D15B46002B00D0C1E02588FE
:104EC000642D1BD8019B002B06D0AC4B0E99EA0039
:104ED000D1509B180F9A5A605B46002B0ED02A00C7
:104EE000A64B10996532D200D150EA009B18CB2214
:104EF00092009446119A634406911A60A04B1B7865
:104F0000002B03D0059B002B00D0E0E053465E8BC6
:104F10009C4B5B8B262B16D9AB005B191801C01A72
:104F20008000711EFBF7DAF9039B0700C21A002A02
:104F300009DD0F3318000021012308F0D1F8534692
:104F400025885E8B039700230135A8B220809946FF
:104F5000B04200D3BBE0FFF749FF029B0500002BE6
:104F6000A6D05346D97F02F00DF8089B0490002B81
:104F700000D0A8E02388079343465B0798D5280014
:104F8000FCF778FA9C235246D158FBF74FFF0DAA45
:104F90000CA909F071F9019B002B8CD0002002F0C4
:104FA00089F98023049ADB0594465B6A764A4B4470
:104FB00063441360734B754F5B8B424602339BB265
:104FC0003B8010231A40049200D09EE03B88002BC7
:104FD00000D177E130BF3B88002BFBD10EA802F057
:104FE000FBF9049B002B00D0FDE00A230493434609
:104FF0005B0700D45FE70D9B0E9F0F9A181C391CAE
:1050000009930692FBF712FF0C9E06990B90301C39
:10501000FBF70CFF011C0B98FCF71EF806990E908D
:105020000998FBF703FF391C0690301CFBF7FEFEC6
:10503000011C0698FBF7ACFB5B460F90002B00D1E0
:105040003DE7012002F036F98023049ADB059446FF
:105050005B6A4D4A4B44634413604A4B4B4F5B8B36
:10506000424602339BB23B8011231340102B01D1E7
:1050700021E130BF3B88002BFBD110A802F0ACF936
:105080004346DB0600D583E043465B074BD44346EB
:105090001B0700D413E70A9D1098291CFBF7C6FED6
:1050A000291C10901198FBF7C1FE119007E700230F
:1050B0002380059B002B00D1CAE64B46002B00D075
:1050C000C6E600201AE001235B42079354E7039BE6
:1050D000002B08D0022008F0E9F90123039A0021EF
:1050E0000F2007F0FDFF534620885D8B8022281A91
:1050F000454268411F4B92019A61C0B21DB03CBC51
:1051000090469946A246AB46F0BD12AE3200290049
:105110000798FEF707FF3B88002B00D05AE70EA840
:1051200002F05AF960E00D9F109E119B311C381C53
:105130009946FBF77BFE0C9D06904946281CFBF721
:1051400075FE011C0698FBF787FF49461090381C36
:10515000FBF76CFE311C071C281CFBF767FE011CCB
:10516000381CFBF715FB119091E7C046A007002003
:10517000701E002000080048E3C8EB3D2018002006
:10518000DB2D002008030020741E0020F8240020DE
:105190001A991098FBF760FF12AE051C716A1198FE
:1051A000FBF75AFFB369071C191C281C9946FBF72B
:1051B0003DFEF6690690311C381CFBF737FE011CDA
:1051C0000698FBF749FF49461090381CFBF72EFE66
:1051D000311C071C281CFBF729FE011C381CFBF79F
:1051E000D7FA119050E712AE31680E98FBF734FFF2
:1051F0007168071C0F98FBF72FFFB368F268191C42
:105200000490381C09920B930697FBF70FFE316947
:10521000FBF7BEFA0999071C0498FBF707FE011C6F
:10522000381CFBF719FF0999071C0698FBF7FEFDD0
:105230000B9909900498FBF7F9FD011C0998FBF7FD
:10524000A7FA7169FBF7A4FA391C061C381CFBF796
:10525000EDFD311C0990301CFBF7E8FD011C09989D
:10526000FBF796FA011CFE208005FBF709FC391CB0
:1052700009900698FBF7DAFD311C0B900498FBF7B8
:10528000D5FD011C0B98FBF783FA0999FBF7CEFDBE
:10529000391C0E900498FBF7C9FD311C071C0698B9
:1052A000FBF7C4FD011C381CFBF7D6FE0999FBF780
:1052B000BDFD0F9099E612AE320029000798FEF767
:1052C00031FED7E60EA802F087F88EE6F0B5DE468E
:1052D00057464E464546E0B5D04B89B01B7D7F2BE7
:1052E00000D91AE207F0EAFD05F0DAFBCC4B9B4649
:1052F000CC4B9A4603F02CFF5B469B8CDA0567D4B7
:105300000322104382B201929B0503D52023019A08
:105310001A4301929C235A460021D058FBF7D6F835
:10532000002803D10423019A1A430192A4235A4668
:105330000021D058FBF7CAF8002803D10823019AAE
:105340001A430192B84B1B789B0746D130BF002609
:105350005346B64A1B68151D0024002B10D0534637
:10536000B34A1B681088290001389847534600212A
:10537000B0481C60FCF71EFD53461B68002BEED1A5
:10538000A94B1A7880235B421343A74A137007F096
:105390003DFDA54B1A787F231340A34A1370002EBE
:1053A0000BD0A54B1B78002B00D0D5E05B461A8BA9
:1053B000D3071ED4012004F007F9402004F004F9BB
:1053C00004F04EF903F0C4FE5B469B8CDA0597D5DA
:1053D0001322104382B2019296E701990120FFF750
:1053E00021FD0222904B06001B7893438E4A1370D6
:1053F000AEE706275B4617405D8B022F00D100E128
:10540000042F00D1FDE00023079306931823029593
:10541000134000D1FFE0103B59424B410D215B424C
:10542000194089461E231A406B011343834A9BB2DD
:1054300012889A422BD0814A1380042F00D14FE169
:10544000002D00D167E1069B00269C4665442A009A
:105450001C00029B4D469846B94617002A0041465B
:105460002000FEF7E1FE011C301CFBF791F901342E
:10547000061CA742F2D14F46A946311C002F00D08E
:1054800040E1FE208005FBF7FBFA6D4B18606D4B89
:10549000019A05934B4603930123134210D1CA226C
:1054A00092009446019B684A5B080193059B634404
:1054B00005939A4200D17DE70123019A1342EED071
:1054C0005B465B8B9946002B00D122E100265C4BAA
:1054D000069F1B685D4D059C0493039A0299380052
:1054E000FEF7A2FE0499FBF7A1FC011C8046206890
:1054F000FBF79CFC414628606068FBF797FC01368F
:1055000068600137083408354E45E6DB4A46FF2A15
:105510000CDC4E49D3008C468021634449000020B6
:1055200001321860586008338A42F8D1079B002B7B
:1055300000D091E00121454808F0E0FD5B461A8B60
:1055400006231340042B00D1B7E0CA223F49920042
:105550000598FCF7D3F8A2E7304B3D4A1B7D9146F6
:105560009B0701D43B4B9946364B0393019B059314
:105570000123059A134211D1CA2292009446059B39
:10558000314A5B089BB20593039B634403939A42A1
:1055900000D10BE70123059A1342EDD00122264BDF
:1055A0001B78013B9A400492002AE5DD0023029318
:1055B0005B46039A5B8B106857680832140001251C
:1055C0004E46022B16D92368A26898466368414666
:1055D0009946B047E26820606168381CB0475B4676
:1055E00060605B8B0135013B083440464F469D426D
:1055F000E9DBB146029B049A013302939A42D7D168
:10560000BAE76B009BB20293012307931823069518
:10561000134000D0FFE60623994603E70803002065
:10562000A00700200C200020A4030020F81F002069
:105630004020002048200020502000205220002040
:10564000FC24002020180020701E0020E42D0020E3
:10565000B53C0008214100084B46012B14DDFE211A
:10566000304AC90013008C4601204C466344802513
:105670002D06AC461168013019605168083B614441
:10568000D9600832A042F2DB0121274808F036FD3C
:105690005B46598B244B1A1D0023002900D14DE78E
:1056A00000200133106008329942F9DC5B461A8B06
:1056B00006231340042B00D047E75B465E8B012E88
:1056C00000DC42E70125174C2300083B20681968DD
:1056D000FBF75EF8013520600834B542F4DB34E7AF
:1056E00048464043FBF77CFEFA218905FBF79EFB09
:1056F000FEF776FD011CEE208005FBF7C1F90B4B90
:105700001860C4E6FC208005FBF7BAF9074B186067
:10571000BDE60022FDE60026AFE6012007F0E6FE2A
:10572000E0E5C046EC2D0020E42D0020FC24002004
:1057300070B5094D6B8B002B0CD00024074EA0B226
:10574000FFF754FB01003000FEF788FD6B8B01343E
:10575000A342F4DC70BDC046A007002020EE000884
:10576000F0B557464E464546DE460300E0B5A64C2A
:1057700089B0668B06AD023B82460F002E80022B5D
:1057800000D9C9E00868FEF7C5FF81467868FEF7D2
:10579000C1FF4B468346002B00D1B3E0002800D167
:1057A000B0E0814500D9ADE05346022B00D0B7E010
:1057B00004AA94460A2363449846002342460327DA
:1057C0001380924B05931B780393731E9BB2049333
:1057D0000823039A05999A430A70A28CD20505D52D
:1057E00042461288134201D110231F439C230021FB
:1057F000E058FAF76BFE002805D143461B88DB060C
:1058000001D404231F43A4230021E058FAF75EFECD
:10581000002805D143461B889B0601D408231F435B
:10582000E368994500D1A3E020231F434A46784B03
:1058300004991A60774B668319805B46981AFAF7C9
:1058400049FD754B1860754B1960BB0700D098E097
:10585000FEF7B2FC43461B88002B56D01A0600D533
:1058600096E02A88002A50D06D4A002491466D4A5D
:1058700092466D4A93460FE09A071AD45B072FD4DD
:105880005046FEF7EBFC08239C462B880134E1448C
:10589000A3423ADD43461B88DA07EDD5A0B2FFF7F5
:1058A000A5FA01006148FEF7D9FC43461B889A0718
:1058B000E4D54A465E4BD058FBF71CFE4A465D4B8A
:1058C0000600D0580F00FBF715FE3B000090019139
:1058D00032005846FEF7C2FC43461B885B07CFD513
:1058E0004B461868FBF706FE4B46060058680F004B
:1058F000FBF700FE3200009001913B004A48FEF7A2
:10590000ADFCBDE74C48FEF7A9FC09B03CBC904695
:105910009946A246AB46F0BD4848FEF79FFCF4E727
:10592000B868FEF7F7FE86B2731E9BB22E80049312
:10593000642B64D804AA94460A236344984600233F
:10594000424613805246314B668305931B7803937E
:10595000042A1BD1F868FEF7DDFE039B87B21B0704
:1059600001D580231F4343461F807F07BF0F2FE7CA
:1059700023699B4500D057E7638CB34200D053E7BF
:1059800054E739000020FFF74DFA61E703271FE7CE
:1059900002214046FEF7A2F902212800FEF79EF9F7
:1059A0002B88002BB1D001231D4E002499460227DD
:1059B00008E01F421BD15B0714D42B880134083642
:1059C000A342A2DD43464A461B881A42F1D0A0B248
:1059D000FFF70CFA0421079007A8FEF77FF943466A
:1059E0001B88E6E708213000FEF778F9E5E7104B61
:1059F0000821F018FEF772F943461B88DBE71048D0
:105A0000FEF72CFC81E7C046A0070020A40300207D
:105A10009C07002098070020900700209407002092
:105A2000481B002088F5000804F0000800F000087A
:105A3000D8FCFFFFDCFCFFFFBCEF000884EF000890
:105A4000DCEF0008082210B5054C237813432370BF
:105A5000FFF786FE082223789343237010BDC046CB
:105A6000A4030020014B18687047C046900700202F
:105A7000F8B504000E00431C14D00B4D6B8B8B4209
:105A800010D98FB23800FFF7B1F90B34E4002C19AC
:105A900060606088B04205D003F068FB6780082032
:105AA00003F092FDF8BDC046A0070020F8B5DE4621
:105AB00057464E464546E0B5334C0027A368666816
:105AC000618B9D1B9946314B01391E60304B89B269
:105AD00019802800FAF7FEFB2E4BA04618602E4BCB
